:020000040000FA
:1000000000040020E508000079050000C508000094
:10001000830500008D05000097050000000000002A
:1000200000000000000000000000000009090000BE
:10003000A105000000000000AB050000B5050000B0
:10004000BF050000C9050000D3050000DD05000064
:10005000E7050000F1050000FB05000005060000B3
:100060000F06000019060000230600002D06000000
:1000700037060000410600004B0600005506000050
:100080005F06000069060000730600007D060000A0
:1000900087060000910600009B060000A5060000F0
:1000A000AF060000B9060000C3060000CD06000040
:1000B000D7060000E1060000EB060000F506000090
:1000C000FF06000009070000130700001D070000DD
:1000D00027070000310700003B070000450700002C
:1000E0004F07000059070000630700006D0700007C
:1000F00077070000810700008B07000095070000CC
:100100009F0700001FB500F003F88DE80F001FBD2A
:1001100000F0DEBB1FB56FF00100009040100390AF
:10012000029001904FF010208069000B420900F00E
:100130001F045DF822300120A04083434DF8223097
:10014000684600F044F91FBDF0B54FF6FF734FF459
:10015000B4751A466E1E11E0A94201D3344600E080
:100160000C46091B30F8027B641E3B441A44F9D14B
:100170009CB204EB134394B204EB12420029EBD17E
:1001800098B200EB134002EB124140EA0140F0BD8F
:10019000DD4992B00446D1E90001CDE91001FF220A
:1001A0004021684600F03AFB94E80F008DE80F000C
:1001B000684610A902E004C841F8042D8842FAD12B
:1001C00010216846FFF7C0FF1090AA208DF8440068
:1001D000FFF7A0FF00F0F2F84FF01024A069102202
:1001E0006946803000F001F9A069082210A900F0EA
:1001F000FCF800F0D7F84FF080510A6949690068AF
:100200004A43824201D8102070470020704710B541
:10021000D0E900214FF0805002EB8103026944696C
:100220006243934209D84FF01022536903EB8103D4
:100230000169406941438B4201D9092010BD5069D1
:10024000401C01D0002010BD0F2010BD70B501680A
:100250000446AE4D4FF01020062951D2DFE801F0E0
:10026000320318283B1DD4E90265646829463046EC
:1002700000F0CDF82A462146304600F0B6F8AA0034
:100280002146304600F09EFA002800D0032070BDC1
:1002900000F050FB4FF4805007E0201DFFF7ABFF4C
:1002A0000028F4D100F046FB60682860002070BD93
:1002B000241D94E80700920000F084FA0028F6D08C
:1002C0000E2070BD8069401C12D0201DFFF79FFFDB
:1002D0000028F6D109E08069401C09D0201DFFF7F5
:1002E0008AFF0028EDD1606820B12046FFF750FF5B
:1002F000042070BDFFF70EFF00F060F800F052F828
:10030000072070BD10B50C46182802D001200860E7
:1003100010BD2068FFF79AFF206010BD4FF0102439
:10032000A069401C05D0A569A66980353079AA2846
:1003300008D06069401C2DD060690068401C29D03D
:1003400060692CE010212846FFF7FEFE31688142EB
:100350001CD1A16901F18002C03105E030B108CAA9
:1003600051F8040D984201D1012000E000208A429A
:10037000F4D158B1286810B1042803D0FEE728460C
:1003800000F057F861496868086008E000F016F866
:1003900000F008F84FF480500168491C01D000F0CB
:1003A000A3FAFEE7BFF34F8F59480168594A01F499
:1003B000E06111430160BFF34F8FFEE74FF0102063
:1003C0008169491C02D0806900F0ADB87047524A7B
:1003D00001681160121D416811604F4A8168103236
:1003E0001160111DC068086070472DE9F041174683
:1003F0000D460646002406E03046296800F0A6F8BF
:10040000641C2D1D361DBC42F6D3BDE8F08170B5CD
:100410000C4605464FF4806608E0284600F083F855
:10042000B44205D3A4F5806405F58055002CF4D1C1
:1004300070BD4168044609B1012500E000254FF078
:1004400010267069A268920000F0BCF9C8B120467D
:1004500000F01AF89DB17669A56864684FF4002031
:1004600084420AD2854208D229463046FFF7CFFFA0
:100470002A4621463046FFF7B8FFFFF79FFFFFF7F8
:1004800091FFFFF747FEF8E72DE9FF414FF01024F9
:10049000616980680D0B01EB800000F6FF70010BB5
:1004A00000200090019002900246039068460123CC
:1004B0000BE0560902F01F0C50F8267003FA0CFCF2
:1004C00047EA0C0740F82670521CAA42F1D30AE012
:1004D0004A0901F01F0650F8225003FA06F6354388
:1004E00040F82250491C8029F2D3A169090B4A091E
:1004F00001F01F0150F822408B409C4340F82240FD
:10050000FFF765FFBDE8FF815809000000000020EB
:100510000CED00E00400FA050006004014480168F4
:100520000029FCD07047134A0221116010490B6862
:10053000002BFCD00F4B1B1D186008680028FCD056
:100540000020106008680028FCD07047094B10B5E7
:1005500001221A60064A1468002CFCD00160106861
:100560000028FCD00020186010680028FCD010BDC6
:1005700000E4014004E5014008208F49096809585A
:10058000084710208C4909680958084714208A49EF
:100590000968095808471820874909680958084711
:1005A0003020854909680958084738208249096878
:1005B000095808473C2080490968095808474020E5
:1005C0007D4909680958084744207B49096809584A
:1005D0000847482078490968095808474C20764957
:1005E000096809580847502073490968095808479D
:1005F0005420714909680958084758206E4909680C
:10060000095808475C206C49096809580847602068
:100610006949096809580847642067490968095801
:100620000847682064490968095808476C206249EE
:1006300009680958084770205F4909680958084740
:1006400074205D4909680958084778205A490968A3
:10065000095808477C2058490968095808478020EC
:1006600055490968095808478420534909680958B9
:100670000847882050490968095808478C204E4986
:1006800009680958084790204B49096809580847E4
:10069000942049490968095808479820464909683B
:1006A000095808479C204449096809580847A02070
:1006B0004149096809580847A4203F490968095871
:1006C0000847A8203C49096809580847AC203A491E
:1006D000096809580847B020374909680958084788
:1006E000B4203549096809580847B82032490968D3
:1006F00009580847BC203049096809580847C020F4
:100700002D49096809580847C4202B490968095828
:100710000847C8202849096809580847CC202649B5
:10072000096809580847D02023490968095808472B
:10073000D4202149096809580847D8201E4909686A
:1007400009580847DC201C49096809580847E02077
:100750001949096809580847E420174909680958E0
:100760000847E8201449096809580847EC2012494D
:10077000096809580847F0200F49096809580847CF
:10078000F4200D49096809580847F8200A49096802
:1007900009580847FC2008490968095808475FF4C8
:1007A0008070054909680958084700000348044952
:1007B000024A034B70470000000000206809000057
:1007C0006809000040EA010310B59B070FD1042A15
:1007D0000DD310C808C9121F9C42F8D020BA19BA0C
:1007E000884201D9012010BD4FF0FF3010BD1AB171
:1007F000D30703D0521C07E0002010BD10F8013BC6
:1008000011F8014B1B1B07D110F8013B11F8014BEC
:100810001B1B01D1921EF1D1184610BD02F0FF033F
:1008200043EA032242EA024200F005B870477047EB
:1008300070474FF000020429C0F0128010F0030C42
:1008400000F01B80CCF1040CBCF1020F18BF00F8C3
:10085000012BA8BF20F8022BA1EB0C0100F00DB872
:100860005FEAC17C24BF00F8012B00F8012B48BFD0
:1008700000F8012B70474FF0000200B51346944674
:100880009646203922BFA0E80C50A0E80C50B1F1E8
:100890002001BFF4F7AF090728BFA0E80C5048BFFC
:1008A0000CC05DF804EB890028BF40F8042B08BF9A
:1008B000704748BF20F8022B11F0804F18BF00F896
:1008C000012B7047014B1B68DB68184700000020B4
:1008D00009480A497047FFF7FBFFFFF713FC00BD0B
:1008E00020BFFDE7064B1847064A1060016881F3F8
:1008F0000888406800470000680900006809000097
:100900001D030000000000201EF0040F0CBFEFF3D9
:100910000881EFF30981886902380078182803D12B
:1009200000E00000074A1047074A12682C3212689C
:100930001047000000B5054B1B68054A9B589847B7
:1009400000BD000005030000000000205409000065
:1009500004000000001000000000000000FFFFFF86
:040960000090D00330
:101000009012002091090200452F0000FF08020005
:10101000452F0000452F0000452F00000000000074
:10102000000000000000000000000000E9090200CC
:10103000452F000000000000452F0000452F000054
:10104000510A0200570A0200452F0000452F0000F8
:10105000452F0000452F0000452F0000452F0000C0
:101060005D0A0200452F0000452F0000630A0200C0
:10107000452F0000690A02006F0A0200750A02008B
:10108000452F0000452F0000452F0000452F000090
:10109000452F0000452F0000452F0000452F000080
:1010A000452F00007B0A0200452F0000452F00005D
:1010B000452F0000452F0000452F0000452F000060
:1010C000810A0200452F0000452F0000452F000037
:1010D000452F0000452F0000452F0000452F000040
:1010E000452F0000452F0000452F0000452F000030
:1010F000452F0000452F0000452F0000452F000020
:10110000452F0000452F000000F002F81FF02DFCD5
:101110000AA090E8000C82448344AAF10107DA4552
:1011200001D11FF022FCAFF2090EBAE80F0013F054
:10113000010F18BFFB1A43F0010318476CFF0100B1
:101140008CFF01000A4410F8014B14F00F0508BF92
:1011500010F8015B240908BF10F8014B6D1E05D083
:1011600010F8013B6D1E01F8013BF9D1641E03D05C
:10117000641E01F8015BFBD19142E4D3704700008B
:101180000023002400250026103A28BF78C1FBD890
:10119000520728BF30C148BF0B6070471FB500F031
:1011A0003DF88DE80F001FBD1EF0040F0CBFEFF3DC
:1011B0000880EFF30980014A104700009F2E0000CD
:1011C0008269034981614FF00100104470470000BB
:1011D000D511000001B41EB400B511F0BFFC01B47C
:1011E0000198864601BC01B01EBD0000F0B4404627
:1011F000494652465B460FB402A0013001B506488D
:10120000004700BF01BC86460FBC80468946924617
:101210009B46F0BC70470000091100001FF0A2BB04
:1012200070B51A4C054609202070A01C00F05FF82C
:101230005920A08029462046BDE8704008F0B2B889
:1012400008F0BBB870B50C461149097829B1A0F176
:101250006001512908D3012013E0602804D06928D7
:1012600002D043F201000CE020CC0A4E94E80E00BC
:1012700006EB8000A0F58050241FD0F8806E284631
:10128000B047206070BD01207047000008000020BA
:101290001C000020CC0A020010B5044600210120E9
:1012A00000F03BF800210B2000F037F80421192052
:1012B00000F033F804210D2000F02FF804210E2057
:1012C00000F02BF804210F2000F027F80421C84378
:1012D00000F023F80721162000F01FF80721152041
:1012E00000F01BF82046FFF79BFF002010BD962161
:1012F00001807047FFF7A4BF10487047104A10B52F
:1013000014680F4B0F4A08331A60FFF79BFF0C4815
:10131000001D046010BD704770474907090E002882
:1013200006DA00F00F0000F1E02080F8141D70478D
:1013300000F1E02080F800147047000003F900423B
:101340001005024001000001FE48002101604160DB
:10135000018170472DE9F743044692B091464068F9
:1013600011F0B0FE40B1606811F0B5FE20B96078B0
:1013700000F00300022801D0012000E00020F14E1F
:101380004D463072484611F059FE18B1102015B084
:10139000BDE8F0832946012001F02EFF0028F6D198
:1013A00001258DF842504FF4C050ADF840000022A6
:1013B00010A9284606F09BFC0028E8D18DF8425081
:1013C0004FF428504FF00008ADF8400047461C216C
:1013D0006846CDF81C801FF06AFA9DF81C0008AA28
:1013E00020F00F00401C20F0F00010308DF81C00A1
:1013F00020788DF81D0061789DF81E0061F3420091
:1014000040F001008DF81E009DF800000AA940F090
:1014100002008DF800002089ADF83000ADF8327080
:10142000608907AFADF834000B97606810AC0E9080
:101430000A94684606F04EFA0028A8D1BDF82000AC
:1014400030808DF8425042F60120ADF840009DF802
:101450001E0008AA20F00600801C20F001008DF874
:101460001E000220ADF83000ADF8340013A80E9035
:101470000AA9684606F02EFA002888D1BDF8200097
:101480007080311D484600F033F9002887D18DF86F
:10149000425042F6A620ADF840001C216846CDF827
:1014A0001C801FF004FA9DF81C00ADF8345020F0A9
:1014B0000F00401C20F0F00010308DF81C009DF84B
:1014C0001D0008AA20F0FF008DF81D009DF81E00E9
:1014D0000AA920F0060040F00100801C8DF81E00D3
:1014E0009DF800008DF8445040F002008DF8000097
:1014F000CDE90A4711A80E90ADF83050684606F0C5
:10150000E9F9002899D1BDF82000F08000203EE7DD
:101510003EB504460820ADF80000204611F08EFDCF
:1015200008B110203EBD2146012001F065FE0028D3
:10153000F8D12088ADF804006088ADF80600A088D6
:10154000ADF80800E088ADF80A007E4801AB6A46B5
:101550008088002106F0C8FDBDF800100829E1D000
:1015600003203EBD1FB50446002002900820ADF8C0
:101570000800CDF80CD0204611F060FD10B110200D
:1015800004B010BD6F4802AA81884FF6FF7007F0C3
:1015900047F80028F4D1BDF80810082901D003202D
:1015A000EEE7BDF800102180BDF802106180BDF8A3
:1015B0000410A180BDF80610E180E1E701B582B01A
:1015C0000220ADF800005F4802AB6A464088002167
:1015D00006F08AFDBDF80010022900D003200EBDE0
:1015E0001CB5002100910221ADF80010019011F00E
:1015F0004BFD08B110201CBD52486A4641884FF689
:10160000FF7007F00DF8BDF800100229F3D0032099
:101610001CBDFEB54B4C06461546207A0F46C0074A
:1016200005D0084611F00AFD18B11020FEBD0F20AC
:10163000FEBDF82D01D90C20FEBD304611F0FEFC98
:1016400018BB208801A905F04AFE0028F4D13078A3
:101650008DF80500208801A906F024FD0028EBD1B3
:1016600000909DF800009DF8051040F002008DF8F4
:101670000000090703D040F008008DF80000208822
:10168000694606F0ACFC0028D6D1ADF80850208899
:101690003B4602AA002106F027FDBDF80810A9422A
:1016A000CAD00320FEBD7CB5054600200090019005
:1016B0000888ADF800000C462846019511F002FD9F
:1016C00018B9204611F0E0FC08B110207CBD15B11E
:1016D000BDF8000050B11B486A4601884FF6FF7004
:1016E00006F09EFFBDF8001021807CBD0C207CBD63
:1016F00030B593B0044600200D460090142101A897
:101700001FF0D5F81C2108A81FF0D1F89DF80000A3
:10171000CDF808D020F00F00401C20F0F000103071
:101720008DF800009DF8010020F0FF008DF8010009
:101730009DF8200040F002008DF8200001208DF877
:10174000460001E0CE01002042F60420ADF844003E
:1017500011A801902088ADF83C006088ADF83E00EB
:10176000A088ADF84000E088ADF842009DF8020086
:1017700006AA20F00600801C20F001008DF802006F
:101780000820ADF80C00ADF810000FA8059001A9D5
:1017900008A806F09FF8002803D1BDF8180028809B
:1017A000002013B030BD0000F0B5007B059F1E4641
:1017B00014460D46012800D0FFDF0C2030803A206F
:1017C0003880002C08D0287A052806D0287B0128EC
:1017D00000D0FFDF17206081F0BDA889FBE72DE96D
:1017E000F04786B0144691F80C900E9A0D46B9F168
:1017F000010F0BD01021007B2E8A8846052807D0C8
:10180000062833D0FFDF06B0BDE8F0870221F2E7FB
:10181000E8890C2100EB400001EB400018803320E8
:101820001080002CEFD0E889608100271AE0009634
:10183000688808F1020301AA696900F0B2FF06EBAB
:101840000800801C07EB470186B204EB4102BDF89B
:10185000040090810DF1060140460E320FF09AFD12
:101860007F1CBFB26089B842E1D8CCE73420108039
:10187000E889B9F1010F11D0122148430E301880C8
:10188000002CC0D0E88960814846B9F1010F00D032
:101890000220207300270DF1040A1FE00621ECE767
:1018A0000096688808F1020301AA696900F079FFCF
:1018B00006EB0800801C86B2B9F1010F12D007EBCD
:1018C000C70004EB4000BDF80410C18110220AF1EA
:1018D000020110301EF052FF7F1CBFB26089B84277
:1018E000DED890E707EB470104EB4102BDF80400A6
:1018F000D0810AF10201404610320FF04BFDEBE7B8
:101900002DE9F0470E4688B090F80CC096F80C8090
:10191000378AF5890C20109902F10C044FF0000A67
:10192000BCF1030F08D0BCF1040F3ED0BCF1070F8F
:101930007DD0FFDF08B067E705EB850C00EB4C00BE
:10194000188031200880002AF4D0A8F1060000F0A9
:10195000FF09558125E0182101A81EF0A8FF009776
:101960007088434601AA716900F01BFFBDF80400AE
:101970002080BDF80600E080BDF808002081A21C90
:101980000DF10A0148460FF005FDB9F1000F00D036
:1019900018B184F804A0A4F802A007EB080087B2ED
:1019A0000A346D1EADB2D6D2C4E705EB850C00EB50
:1019B0004C00188032200880002ABBD0A8F1050016
:1019C00000F0FF09558137E000977088434601AA6F
:1019D000716900F0E6FE9DF80600BDF80410E18094
:1019E0002179420860F3000162F34101820862F349
:1019F0008201C20862F3C301020962F304114209C1
:101A000062F34511820962F386112171C009607188
:101A1000BDF80700208122460DF1090148460FF06C
:101A2000B9FC18B184F802A0A4F800A000E007E017
:101A300007EB080087B20A346D1EADB2C4D279E755
:101A4000A8F1020084B205FB08F000F10E0CA3F827
:101A500000C035230B80002AA6D0558194810097C1
:101A600083B270880E32716900F09BFE62E72DE947
:101A7000F84F1E460A9D0C4681462AB1607A00F551
:101A80008070D080E089108199F80C000C274FF00D
:101A900000084FF00E0A0D2873D2DFE800F09E0711
:101AA0000E1C28303846556A737373002146484629
:101AB0000095FFF779FEBDE8F88F207B9146082856
:101AC00002D0032800D0FFDF378030200AE000BFBB
:101AD000A9F80A80EFE7207B9146042800D0FFDFB9
:101AE000378031202880B9F1000FF1D1E3E7207B66
:101AF0009146042800D0FFDF37803220F2E7207BB8
:101B00009146022800D0FFDF37803320EAE7207BB0
:101B10001746022800D0FFDF3420A6F800A0288056
:101B2000002FC8D0A7F80A80C5E7207B17460428F5
:101B300000D0FFDF3520A6F800A02880002FBAD003
:101B40004046A7F80A8012E0207B1746052802D0FD
:101B5000062800D0FFDF1020308036202880002F9C
:101B6000A9D0E0897881A7F80E80B9F80E00B88175
:101B7000A1E7207B9146072800D0FFDF3780372080
:101B8000B0E72AE04FF0120018804FF0380017003D
:101B9000288090D0E0897881A7F80E80A7F810807F
:101BA00099F80C000A2805D00B2809D00C280DD074
:101BB000FFDF80E7207B0C2800D0FFDF01200AE058
:101BC000207B0D2800D0FFDF042004E0207B0E28BE
:101BD00000D0FFDF052038736DE7FFDF6BE770B5DE
:101BE0000C46054601F07BFA20B10078222804D289
:101BF000082070BD43F2020070BD052128460DF09B
:101C000059FF206008B1002070BD032070BD38B5B9
:101C10000546DDE905011446049A72B10B460090B1
:101C20000422214628460AF0CFFE032C06D1214685
:101C30002846BDE838400BF097B8198038BD2DE92B
:101C4000FF4F85B0002003900898904689461230D7
:101C500008F061FB401D20F00306089828B908A988
:101C60000598FFF7BCFF002861D1B9F1000F06D03D
:101C70000898017B00295FD10525046829E098F8C0
:101C80000000092803D00F2820D0FFDF54E0089A75
:101C900003255168527B48887243824246D901F13C
:101CA000040B098897B20C181FFA86FABC4200D3BD
:101CB000E41B5044B84200D9FFDF04EB0A00B842ED
:101CC00000D9FFDF5C440020208002E0089C04254E
:101CD00008340CB1208810B1032D27D02CE00898CF
:101CE0000121123008F04FFBADF81000024603ABA3
:101CF000294605980AF059FD070001D1A01C039060
:101D000008983A461230C8F804000598A8F802006E
:101D100004A94046039B08F043FBC0B1072814D236
:101D2000DFE800F0080A1313110C0E00132009B0AD
:101D3000BDE8F08F0020FAE71120F8E70820F6E769
:101D400043F20300F3E70720F1E70320EFE7BDF8D4
:101D5000100003990097CDE9011023462A460899FF
:101D60000598FFF754FFC7B9032D16D10898B7B2ED
:101D70004568407B704384B2298868880E18A64263
:101D800000D3361B3844A04200D9FFDFF019A0422F
:101D900000D9FFDF688838446880B9F1000FC9D0E6
:101DA000089981F80C90C5E72DE9FF4791461A88FC
:101DB0001C468A4680460AB303AB49460AF0F5FC46
:101DC00005001BD04046A61C27880DF090FF324628
:101DD000072629463B4600960DF016FC20880399FD
:101DE0000095CDE9011023464A4651464046FFF78B
:101DF0000EFF00202080012004B005E50020FBE755
:101E000010B586B01C46AAB104238DF800301388A3
:101E1000ADF808305288ADF80A208A788DF80E2087
:101E20000988ADF80C1000236A462146FFF707FF2A
:101E300006B010BD1020FBE770B50D4605210DF072
:101E400039FE040000D1FFDF294604F11200BDE88D
:101E5000704008F081BA2DE9F8430D46804600260F
:101E600007F053FB0446287812287BD2DFE800F005
:101E70007A54543C355632321332323209323232CD
:101E800032322879001FC0B2022801D0102810D1A8
:101E900014BBFFDF35E004B9FFDF052140460DF03C
:101EA00009FE007B032806D004280BD0072828D081
:101EB000FFDF072657E02879801FC0B2022820D014
:101EC00050B1F6E72879401FC0B2022819D0102877
:101ED00017D0EEE704B9FFDF13E004B9FFDF28797C
:101EE00001280ED1172139E0052140460DF0E2FD11
:101EF000070000D1FFDF07F11201404608F003FAA6
:101F00002CB12A462146404600F05BFC2BE0132111
:101F1000404602F08AFC26E0FFDF24E004B9FFDF40
:101F2000052140460DF0C6FD060000D1FFDF6946E1
:101F300006F1120008F0F1F9060000D0FFDFA988D1
:101F4000172901D2172200E00A46BDF8000082429C
:101F500002D9014602E005E01729C3D3404600F04C
:101F600046FCCEE7FFDF3046BDE8F883401D20F099
:101F70000300021D01FB0020704708B1FE4A1060FB
:101F80000CF041BF2DE9F0470E461546242130469E
:101F90001EF08DFC05B9FFDFA87870732888DFF884
:101FA000D8A3401D20F0030195F802900C46DAF802
:101FB00000000CF03FFF070000D1FFDF4FF00008EA
:101FC0003760A7F8008004FB09F4211DDAF800004F
:101FD0000CF030FF040000D1FFDF7460C4F8008013
:101FE000298806F11200BDE8F04708F07EB92DE916
:101FF000F047804601F112000D46814608F08BF94A
:10200000401DDD4E20F003046F7B224629683068B6
:102010000CF039FF7C43221D696830680CF033FFF7
:1020200005200DF0F1FC044605200DF0F5FC201A0A
:10203000012802D130680CF0EEFE49464046BDE86A
:10204000F04708F067B970B5054605210DF032FD7F
:10205000040000D1FFDF04F112012846BDE8704002
:1020600008F051B92DE9F04F91B04FF0000BADF8E9
:1020700034B0ADF804B047880C46054692460521B9
:1020800038460DF017FD060000D1FFDF24B1A78010
:10209000A4F806B0A4F808B0297809220B20B2EB06
:1020A000111F297A7DD104F110023827C91E4FF083
:1020B0000C094FF0010803920F2973D2DFE801F0F9
:1020C000F4F3F28108D48A8FA13DDDF5F0B8B800B1
:1020D000307B022800D0FFDFA88909EBC001ADF8F2
:1020E00004103021ADF83410002C25D06081B5F8F3
:1020F0000E9000271DE004EBC708317C88F80E1015
:10210000F189A8F80C10CDF800906888042304AA7F
:10211000296900F046FBBDF81010A8F8101009F16D
:102120000400BDF812107F1C1FFA80F9A8F81210E5
:10213000BFB26089B842DED80CE1307B022800D003
:10214000FFDFE98909EBC100ADF804003020ADF8EC
:102150003400287B0A90001FC0B20F90002CEBD0F7
:102160006181B5F81090002727E000BFCDF80090FE
:102170006888696903AA0A9B00F013FB0A9904EBBB
:10218000C70809EB01001FFA80F908F10C0204A945
:102190000F980FF0FFF818B188F80EB0A8F80CB03F
:1021A00001E0D4E0D1E0BDF80C10A8F81010BDF8A3
:1021B0000E107F1CA8F81210BFB26089B842D5D8A3
:1021C000C8E00DA8009001AB224629463046FFF733
:1021D00006FBBFE0307B082805D0FFDF03E0307B43
:1021E000082800D0FFDFE8891030ADF80400362061
:1021F000ADF83400002C3FD0A9896181F189A1811B
:1022000027E0307B092800D0FFDFA88900F10C010E
:10221000ADF804103721ADF83410002C2CD06081BB
:10222000E8890090AB89688804F10C02296956E0BE
:10223000E8893921103080B2ADF80400ADF83410CF
:10224000002C74D0A9896181287A10280AD0022133
:102250002173E989E181288A0090EB89688869699E
:10226000039A3CE00121F3E70DA8009001AB224660
:1022700029463046FFF744FB6CE0307B0A2800D04B
:10228000FFDF1220ADF80400ADF834704CB3A9891B
:102290006181A4F810B0A4F80EB084F80C8059E065
:1022A00020E002E031E039E042E0307B0B2800D052
:1022B000FFDF288AADF834701230ADF8040084B125
:1022C00004212173A9896181E989E181298A218217
:1022D000688A00902B8A688804F11202696900F00C
:1022E00060FA37E0307B0C2800D0FFDF1220ADF819
:1022F0000400ADF834703CB305212173A4F80AB092
:10230000A4F80EB0A4F810B024E00DA8009001AB22
:10231000224629463046FFF747FA1BE00DA80090F9
:1023200001AB224629463046FFF7A1FB12E035E01B
:102330003B21ADF80400ADF834107CB3A4F806805E
:10234000A4F808B084F80AB004E0FFDF02E0012935
:102350001BD0FFDFBDF80400AAF8000094B1BDF85F
:1023600034002080BDF804006080BDF834003928B6
:1023700008D03B2806D001E0100000203C2801D006
:1023800086F80CB0002011B0D2E43C21ADF8040076
:10239000ADF8341014B1697AA172DBE7FFE7AAF84F
:1023A0000000EFE72DE9F84356880F4680461546B2
:1023B000052130460DF07EFB040000D1FFDF123412
:1023C00000943B46414630466A6808F0A3F9CBE5E5
:1023D00070B50D4605210DF06DFB040000D1FFDF47
:1023E000294604F11200BDE8704007F0A1BF70B5A6
:1023F0000D4605210DF05EFB040000D1FFDF2946EC
:1024000004F11200BDE8704007F0C5BF70B5054685
:1024100005210DF04FFB040000D1FFDF04F108039C
:1024200021462846BDE870400422BDE470B505464B
:1024300005210DF03FFB040000D1FFDF21462846B7
:102440002368BDE870400522AEE42DE9F0478246DE
:1024500005210DF02FFB040000D1FFDF04F1120075
:1024600007F059FF401D20F0030626E0011D0088FB
:102470000322431821465046FFF796FC002820D03F
:10248000607B656870431FFA80F82888B7B2814680
:1024900010FA86F080B22880404502D3A0EB0800F5
:1024A00028806888B84200D2FFDF09EB0701414568
:1024B00000D9FFDF6888C01B6880606841880029F8
:1024C000D4D1BDE8F08770B50E46054607F01DF87B
:1024D000040000D1FFDF0120207266726580207841
:1024E00020F00F00C01C20F0F00030302070BDE85C
:1024F000704007F00DB82DE9F0438BB00D4614463F
:10250000814606A9FFF76BFB002814D14FF6FF7632
:1025100001274FF420588CB103208DF800001020C3
:10252000ADF8100007A8059007AA204604A90EF0F0
:1025300050FF78B107200BB0BDE8F0830820ADF85C
:1025400008508DF80E708DF80000ADF80A60ADF8F7
:102550000C800CE00698A17801742188C1818DF867
:102560000E70ADF80850ADF80C80ADF80A606A4600
:1025700002214846069BFFF762FBDCE708B5012213
:102580008DF8022042F60202ADF800200A4603232D
:102590006946FFF735FC08BD08B501228DF8022019
:1025A00042F60302ADF800200A4604236946FFF70D
:1025B00027FC08BD00B587B079B102228DF8002054
:1025C0000A88ADF808204988ADF80A1000236A4649
:1025D0000521FFF734FB07B000BD1020FBE709B170
:1025E00007230DE40720704770B588B00D461446E8
:1025F000064606A9FFF7F3FA00280ED17CB10620A3
:10260000ADF808508DF80000ADF80A40069B6A4608
:102610000821DC813046FFF712FB08B070BD0520B1
:102620008DF80000ADF80850F0E700B587B059B15B
:1026300007238DF80030ADF80820039100236A4687
:102640000921FFF7FCFAC6E71020C4E770B588B08F
:102650000C460646002506A9FFF7C1FA0028DCD182
:1026600006980121123007F08EFE9CB121780629D0
:1026700021D2DFE801F0200505160318801E80B284
:10268000C01EE28880B20AB1A3681BB1824203D99E
:102690000C20C2E71020C0E7042904D0A08850B95C
:1026A00001E00620B9E7012913D0022905D0042949
:1026B0001CD005292AD00720AFE709208DF800009B
:1026C0006088ADF80800E088ADF80A00A0680390C3
:1026D00023E00C208DF800006088ADF80800E08849
:1026E000ADF80A00A0680A25039016E00D208DF8C9
:1026F00000006088ADF80800A088ADF80A00E08806
:10270000ADF80C00A0680B25049006E00E208DF8B3
:10271000000060788DF808000C256A46294630468E
:10272000069BFFF78CFA78E700B587B00F228DF88B
:102730000020ADF8081000236A461946FFF77FFA1B
:1027400049E700B587B071B102228DF800200A88F0
:10275000ADF808204988ADF80A1000236A46062122
:10276000FFF76DFA37E7102035E770B586B00646FB
:1027700001200D46ADF808108DF800000146002339
:102780006A463046FFF75BFA040008D12946304616
:1027900005F0C4FC0021304605F0DEFC204606B002
:1027A00070BDF8B51C4615460E46069F0DF08DFA15
:1027B0002346FF1DBCB231462A4600940CF0EBFEC6
:1027C000F8BD10B548800878144620F00F00C01CF2
:1027D00020F0F00090300B4608701822214603F1DB
:1027E00008001EF010F8BDE8104006F091BE70B56C
:1027F0000C460546FFF720FB2146284605F09DFCC8
:102800002846BDE87040012105F0A6BC4FF0E0224B
:102810004FF400410020C2F880112049087020497F
:1028200090020860704730B51C4D04462878A042DD
:1028300018BF002C02D0002818BFFFDF2878A04264
:1028400008BF30BD2C701749154A0020ECB1164D59
:10285000DFF858C0131F012C0DD0022C1CBFFFDF66
:1028600030BD086003200860CCF800504FF4000031
:102870001060186030BD086002200860CCF800507D
:102880004FF040701060186030BD086008604FF075
:102890006070106030BD00B5FFDF00BD1800002083
:1028A00008F5014000F500401C03002014F500402D
:1028B00070B50B2000F0B5F9082000F0B2F9002146
:1028C0000B2000F0C4F90021082000F0C0F9EC4C06
:1028D00001256560A5600020C4F84001C4F84401EA
:1028E000C4F848010B2000F0A7F9082000F0A4F973
:1028F0000B2000F08BF9256070BD10B50B2000F0A7
:1029000090F9082000F08DF9DD48012141608160D7
:10291000DC490A68002AFCD10021C0F84011C0F847
:102920004411C0F848110B2000F086F9BDE81040B2
:10293000082000F081B910B50B2000F07DF9BDE84A
:102940001040082000F078B900B530B1012806D059
:10295000022806D0FFDF002000BDCB4800BDCB48D9
:1029600000BDCA48001D00BD70B5C9494FF0004008
:102970000860C84DC00BC5F80803C74800240460B0
:10298000C5F840410820C43500F04BF9C5F83C417A
:10299000C248047070BD08B5B94A002128B10128A9
:1029A00011D002281CD0FFDF08BD4FF48030C2F8E0
:1029B0000803C2F84803B3483C300160C2F8401134
:1029C000BDE80840D0E74FF40030C2F80803C2F871
:1029D0004803AC4840300160C2F84411AB480CE0F9
:1029E0004FF48020C2F80803C2F84803A5484430D9
:1029F0000160C2F84811A548001D0068009008BD9C
:102A000070B516460D460446022800D9FFDF0022A5
:102A10009B48012304F110018B4000EB8401C1F8B5
:102A2000405526B1C1F84021C0F8043303E0C0F896
:102A30000833C1F84021C0F8443370BD2DE9F0419E
:102A40001C46154630B1012834D0022839D0FFDFAA
:102A5000BDE8F081891E002221F07F411046FFF77A
:102A6000CFFF012C24D000208C4E8A4F012470709F
:102A70003C61894900203C3908600220091D08603A
:102A8000854904203039086083483D350560C7F822
:102A90000042082000F0D0F82004C7F80403082002
:102AA00000F0B4F87A49E007091F08603470CFE7F6
:102AB0000120D9E7012B02D00022012005E00122EC
:102AC000FBE7012B04D000220220BDE8F04197E78C
:102AD0000122F9E76B480068704770B500F0C7F84D
:102AE000674C0546D4F840010026012809D1D4F8E6
:102AF0000803C00305D54FF48030C4F80803C4F8B8
:102B00004061D4F8440101280CD1D4F808038003B3
:102B100008D54FF40030C4F80803C4F8446101201C
:102B20000FF0E6FAD4F8480101280CD1D4F80803D4
:102B3000400308D54FF48020C4F80803C4F8486166
:102B400002200FF0D5FA5648056070BD70B500F050
:102B50008EF8524D0446287858B1FFF705FF687883
:102B600020B1002085F801000FF0C2FA4C48046043
:102B700070BD0320F8E74FF0E0214FF40010C1F8DA
:102B800000027047152000F057B842490120086143
:102B9000082000F051B83F494FF47C10C1F80803F9
:102BA0000020024601EB8003C3F84025C3F8402112
:102BB000401CC0B20628F5D37047410A43F60952BB
:102BC0005143C0F3080010FB02F000F5807001EBE8
:102BD0005020704710B5430B48F2376463431B0C19
:102BE0005C020C602F4C03FB04002F4B4CF2F724CB
:102BF00043435B0D13FB04F404EB402000F58070AD
:102C00004012107008681844086010BD00F01F02E0
:102C1000012191404009800000F1E020C0F800113E
:102C2000704700F01F02012191404009800000F12F
:102C3000E020C0F88011704700F01F020121914090
:102C40004009800000F1E020C0F880127047490779
:102C5000090E002806DA00F00F0000F1E02080F8ED
:102C6000141D704700F1E02080F8001470470C48F4
:102C7000001F00680A4A0D49121D116070470000CC
:102C800000B0004004B500404081004044B1004025
:102C900008F5014000800040408500402C000020E5
:102CA00014050240F7C2FFFF6F0C01000100000194
:102CB0000A4810B5046809490948083108600FF04E
:102CC000B4FA0648001D046010BD064900200860E3
:102CD0004FF0E0210220C1F8800270471005024049
:102CE00001000001FC1F004010B50D2000F06FF83E
:102CF000C4B26FF0040000F06AF8C0B2844200D0A1
:102D0000FFDF3A490120086010BD70B50D2000F0CA
:102D100048F8374C0020C4F800010125C4F80453DA
:102D20000D2000F049F825604FF0E0216014C1F853
:102D3000000170BD10B50D2000F033F82C480121C2
:102D400041600021C0F80011BDE810400D2000F0E6
:102D500033B8284810B50468264927480831086068
:102D60002349D1F80001012804D0FFDF2148001DCC
:102D7000046010BD1D48001D00680022C0B2C1F8EB
:102D800000210FF024FEF1E710B51948D0F800112A
:102D90000029FBD0FFF7DDFFBDE810400D2000F05B
:102DA0000BB800F01F02012191404009800000F1A2
:102DB000E020C0F88011704700F01F02012191400F
:102DC0004009800000F1E020C0F880127047002820
:102DD00006DA00F00F0000F1E02090F8140D03E097
:102DE00000F1E02090F800044009704704D500404D
:102DF00000D00040100502400100000110B5202065
:102E000000F075F8202000F07DF84449202081F87A
:102E10000004434900060860091D42480860FEF7A7
:102E20006BFA3F49C83108603F48D0F8041341F0BD
:102E30000101C0F80413D0F8041341F08071C0F808
:102E40000413364901201C39C1F8000110BD10B52A
:102E5000202000F04CF8324800210160001D016084
:102E60002F4A481EE83A10602F4AC2F808032C4B3C
:102E7000C8331960C2F80001C2F860012B4908602C
:102E8000BDE81040202000F03DB825492848EC3925
:102E90000860704722492648E8390860704770B5D5
:102EA0001F4A8069E83A224911601F49D1F8006140
:102EB0000023204D1D4A5C1E1EB1A84206D30021EE
:102EC0000FE0D1F8606186B1A84209D2C1F80031A3
:102ED000C1F860311460BDE87040202000F012B8E5
:102EE0001168BDE870401DF009BDFFDF70BD00F046
:102EF0001F02012191404009800000F1E020C0F84C
:102F00008011704700F01F020121914040098000AC
:102F100000F1E020C0F880127047000020E000E0DF
:102F2000000602400C130020000002400004024092
:102F300001000001002002000F4A12680D498A4278
:102F40000CD118470C4A12680A4B9A4206D101B5B7
:102F50000FF0F6FDFFF799FFBDE80140074909684A
:102F60000958084706480749054A064B70470000BC
:102F700000000000BEBAFECAA0000020040000202D
:102F8000901200209012002070B50C46054607F004
:102F90005EFD21462846BDE8704008F050BE10B5E1
:102FA00010F01CFAFFF732FC10F0B4F8BDE8104046
:102FB00010F066B90548064A0168914201D1002126
:102FC000016004490120086070470000A000002053
:102FD000BEBAFECA40E5014070477047704770476F
:102FE000704702F0FF0343EA032242EA02421DF067
:102FF0003EBC7047704770477047000405060100EB
:1030000018FFFFFFDBE5B151002002009600FFFF33
:10301000840000000000000030B5FE4D044610287A
:103020000AD0112C06D02846122CC17806D0132CB9
:1030300008D0FFDFEC7030BDFFDFFBE71129F9D0CE
:10304000FFDFF7E71129F5D0FFDFF3E770B50EF0EA
:103050002BFB04460FF04AFB201AC4B206200CF0EA
:10306000D3FC054606200CF0D7FC2E1A07200CF0E6
:10307000CBFC054607200CF0CFFCE649281A321895
:10308000C87812280DD000231A4413280BD0002032
:1030900002440878022808D000201044201AC0B248
:1030A00070BD0123F0E70120F2E70120F5E7D948E0
:1030B00000B58079D74942089BB051F8070F89883D
:1030C0000BD017220190ADF808108DF800200BA945
:1030D000684609F053FA1BB000BD4622F2E7022110
:1030E0000CF0E8BC2DE9F0419AB01D4690460E4622
:1030F0000746FFF7F4FF04000BD02078222804D302
:10310000A07FC0F34010A84206D108201AB0BDE845
:10311000F08143F20200F9E74B208DF80000ADF892
:1031200004703DB101208DF806008DF807608DF820
:10313000088002E000208DF806000BA9684609F01F
:103140001DFAA07F65F34510A0770020DEE730B5BB
:103150000446A1F120000D460A284AD2DFE800F01B
:1031600005070C1C2328353A3F44FFDF42E0207856
:1031700020283FD1FFDF3DE0A6480178032939D060
:10318000C078132836D02078242833D0252831D091
:1031900023282FD0FFDF2DE0207822282AD02328D3
:1031A00028D8FFDF26E02078222823D0FFDF21E087
:1031B000207822281ED024281CD026281AD0272880
:1031C00018D0292816D0FFDF14E02078252811D048
:1031D000FFDF0FE0207825280CD0FFDF0AE0207801
:1031E000252807D0FFDF05E02078282802D0FFDF60
:1031F00000E0FFDF257030BD30B50B8840F67B4422
:103200004FF6FF72022801D0934204D09D1FA542C1
:1032100024D2022802D04D88954203D04D88AD1F9C
:10322000A5421BD24C88A34218D88B88B3F5FA7FED
:1032300014D2022802D0C888904205D0C88840F62F
:1032400077450A38A84209D2C888904208D09442EB
:1032500006D05B1C6343B3EB800F01DB072030BD5E
:10326000002030BD70B514460D4606460FF0E6FE50
:1032700058B90DB1A54201D90C2070BD002408E059
:1032800056F824000FF0DAFE08B1102070BD641C5F
:10329000E4B2AC42F4D3002070BDF0B50024059D2B
:1032A00010B1A94203D850E009B90020F0BD0920AF
:1032B000F0BD055DD5B1071997F801C0BCF1150F38
:1032C0002DD03BDCBCF1150F38D2DFE80CF0371203
:1032D0002020262628282F2F3737373737373737FC
:1032E00037372000025D22BB641CE4B28C42F9D364
:1032F000DBE7022DDBD1BD781D70072D01D26D07F4
:1033000001D40A20F0BD157845F0010515E0EF4322
:10331000FF0707E0012D07D010E00620F0BD2F07C2
:10332000A7F18057002FF5D03046F0BD1578AF07D4
:1033300001D50B20F0BD45F002051570055D641C3C
:103340002C44E4B28C4202D9B1E74FF448568C4287
:10335000AFD3AAE710B50278540809D0012243F28E
:103360000223012C07D0022C0DD0032C13D10FE027
:103370000020087005E080790324B4EB901F0AD187
:103380000A70002010BD8079B2EB901F03D1F7E7DF
:1033900080798009F4D0184610BD1E4A117C39B1DD
:1033A000517C022908D0032908D043F2022070473B
:1033B0000146901D01F01EBD032100E001210170B6
:1033C0000020704738B50C460546694601F012FDED
:1033D00000280DD19DF80010207861F3470020707F
:1033E00055F8010FC4F80100A888A4F805000020D2
:1033F00038BD38B51378E8B102281BD006A46D4655
:10340000246800944C7905EB9414247864F3470302
:10341000137003E0B80100200302FF0103280ED05F
:1034200003F0FE0010700868C2F801008888A2F856
:10343000050038BD23F0FE0313700228E9D1D8B28D
:1034400040F00100EEE730B50C4609789BB0222928
:1034500002D208201BB030BD28218DF80010ADF835
:103460000400132A03D03B2A01D00720F2E78DF88D
:1034700006200BA9684609F081F8050003D1212137
:103480002046FFF764FE2846E4E700B59BB0232101
:103490008DF80010ADF804001088ADF806005088D3
:1034A000ADF80800D088ADF80C009088ADF80A009F
:1034B0000020ADF80E00ADF810000BA9684609F029
:1034C0005DF808E62DE9FF470220FB4E8DF8040069
:1034D0000027B08AADF80600B84643F202094DE075
:1034E00001A80CF050FA050006D0B08AA8B3A6F8DF
:1034F0001480ADF806803FE0039CA07F01072DD526
:1035000004F124000090A28EBDF80800214604F1C9
:10351000360301F084FE050005D04D452BD0112D5A
:103520003DD0FFDF3BE0A07F20F00800A077E07FE8
:10353000810861F30000C10861F34100E07794F86D
:10354000210000F01F0084F820002078282827D1CF
:1035500029212046FFF7FBFD22E015E040070BD5AF
:10356000BDF80800214604F10E02FFF78EFF0500AA
:103570000DD04D4510D100257F1CFFB202200CF06C
:1035800043FA401CB842ABD8052D12D008E0A07F0A
:1035900020F00400A07703E0112D00D0FFDF00250C
:1035A000BDF80600B082052D05D0284604B0BDE860
:1035B000F087A6F814800020F8E72DE9FE43040008
:1035C00000D1FFDF2078002720F00F00801C20F0C2
:1035D000F000703020706068B74E0178091F17291D
:1035E0000ED2DFE801F0FD0D0C0D4AFC0D0FFCFCC6
:1035F00037FD0D0DFD6CFDFD0D0DFDFDFB00FFDF2D
:10360000BDE8FE8385882846FFF769FD040000D1E8
:10361000FFDF05F07DFFB07C212140F00400B07495
:103620002046FFF794FD284609F09CF92846FEF74E
:103630000AFD284604F078F8294602200FF0BAFC6B
:10364000A07F20F01000A077FFF73CFF0028D7D024
:10365000FFDFD5E785882846FFF741FD00B9FFDF8A
:1036600060688078012800D0FFDF6068817903B04E
:103670002846BDE8F04309F0D9BA86883046FFF7FE
:103680002EFD050000D1FFDF05F042FF60683146E6
:10369000C088288160680089688160684089A88145
:1036A00002200FF087FCAF75A87F00F0030002280E
:1036B000A6D1FFF707FF0028A2D0FFDFA0E78078A0
:1036C0003C281BD0002502280ED08DF8007000B1D8
:1036D000FFDF05F01DFFB07C40F00800B0748DB135
:1036E000B07801F046FB01208DF800009DF8000045
:1036F000012876D0022875D0FFDF81E701258DF8FB
:103700000070E6E76568B5F80490A879AD1C01285B
:1037100006D03079804605F0ADFC070003D101E00A
:10372000B078F7E7FFDF0022022148460CF0B9F934
:10373000040000D1FFDF22212046FFF708FD287991
:10374000012800D002208DF80000A17F6A4660F3B6
:103750000101A177288B2081688B6081A88BA081D3
:1037600084F82280032148460CF09BF900B9FFDF62
:10377000B888ADF80800B8788DF80A0002AA0521CB
:1037800048460CF08EF900B9FFDFB888ADF80400A8
:10379000F8788DF8060001AA042148460CF081F95A
:1037A00000B9FFDF062105F1120001F05AFB30B32A
:1037B0006879800700D5FFDF6979E07D61F3470014
:1037C000E075D5F80600A0616889A083062105F19F
:1037D0000C0001F046FBE0B1B07904E041E03BE0D1
:1037E00046E021E02CE04108607861F3470060701A
:1037F000D6F80700C4F80200B6F80B0012E0E07D2E
:1038000020F0FE00801CE075D5F81200A061E88A67
:10381000DBE7607820F0FE00801C6070E868C4F888
:103820000200288AE08061E73078032800D0FFDFBB
:10383000002108460FF0BEFB012001F065FADFE62B
:10384000F078132800D0FFDF002107200FF0B2FB33
:103850001120FFF7E1FBD3E62046BDE8FE4301F06F
:103860009FBF05F055FEB07C40F04000B074C7E645
:10387000BDE8FE4305F04CBE2DE9F05F054600783B
:103880000C4600270109DFF830A091463E46012989
:103890006FD000234FF6FF7002296BD007290DD09F
:1038A0000A2968D0FFDF00BFA9F800600CB12780AB
:1038B00066800020BDE8F09FB8010020D5F804C064
:1038C00004F108029CF80010132973D00EDC04F1F7
:1038D00018080B2913D004DC042969D0082968D101
:1038E0004AE00F295AD01229F9D1C2E01439072928
:1038F0005FD2DFE801F0F2F35E5E49DFF0001127EE
:103900000926002C7DD0BCF804804046FFF7E7FB79
:1039100090F822B0A4F804806868807920729AF840
:103920001210404621F004018AF8121004210CF014
:10393000D3F8052140460CF0CFF8002140460CF0AA
:10394000CBF8012140460CF0C7F8032140460CF0AB
:10395000C3F8022140460CF0BFF8062140460CF0A7
:10396000BBF8072140460CF0B7F8584601F001FAC1
:103970009AE70AE135E102E112271026BCF80400BB
:10398000214601F04FFA8FE71C270926B4B3BCF893
:103990000200A08068680079207285E71B2709264D
:1039A00064B30420207268684088A0807CE701E04E
:1039B00034E0E3E09CF802003C2825D010271826CC
:1039C0000CF1020CD4B1BCF80200A080BCF81800C5
:1039D0006082BCF818002082BCF81A00A082BCF8F3
:1039E0001C00E0829CF805000CF10601FFF701FDC8
:1039F0009CF8040018B10120E0730AE001E0022005
:103A0000FAE7A9F8006054E71B270926002CF8D034
:103A100023729AF8121021F00801F5E01D273726CD
:103A2000002CEED0A0806968081DCB7801461846AE
:103A3000FFF7DFFC6868C07AA0756868007B04281F
:103A4000E07D13D020F00100E07569681F22097B3A
:103A500061F34200E0756968897A61F3C700E07537
:103A6000696840460D311CF089FE1DE740F00100F9
:103A7000EAE71D273726002CC3D0A08069680879A3
:103A8000491DFFF7B6FC696804F10F02C87A0C31D2
:103A9000FFF7AFFC6868807CA0756868C178E07D3E
:103AA00061F3420020F0F900E0751F2140461CF050
:103AB000FEFEF9E620271026002CA2D0A080686820
:103AC00004F10902807A207269680B1DC8781946D2
:103AD000FFF78FFCE8E63AE000E024E021270B2620
:103AE000002C8ED0BCF80400A0806868807820721A
:103AF00068688079012805D0022803D003280ED0F9
:103B0000FFDF002060726868C079012805D00228B4
:103B100003D0032805D0FFDF0020A072C4E60420F4
:103B2000F0E70420F9E723271026002CA4D0BCF8E6
:103B30000200A0806868007920816868007A60814E
:103B40006868C088A08168684089E081ACE6222767
:103B50001026002C90D06888A0806868808820811A
:103B60006868C088608168680089A0816868408949
:103B7000E0819AF8121021F0400145E04A462146C2
:103B80002846BDE8F05F01F0A9BF287A012803D0DC
:103B9000022814D0FFDF87E61F271026002C8CD0C8
:103BA0006888A08068892081A8896081E889A081CF
:103BB000288AE0819AF8121021F0200124E01227CF
:103BC00010266888214601F02DF9002C89D06878EC
:103BD00000F007000528A1D19AF8121021F0020187
:103BE00012E0297A062923D2DFE801F0041111033B
:103BF0000303C3E71B270926002C97D0A08023725C
:103C00009AF8121021F001018AF812104CE61B27D5
:103C10000926002C8AD0A080287A012806D003200B
:103C200020729AF8121021F01001EDE70220F7E758
:103C3000FFDF39E630B5F84D9BB0E878132801D0A6
:103C4000082007E422208DF83C0069460FA808F000
:103C500095FC040002D1287901F08BF8002107209F
:103C60000FF0A8F920460FE400B5EB489BB0C078F0
:103C7000122801D0082024E41E208DF80000002026
:103C80008DF804008DF805000BA9684608F076FC55
:103C90000028F0D1002107200FF08CF91120FFF748
:103CA000BBF900200DE410B5DB4C9AB02078012858
:103CB00013D01B208DF8000000208DF804000BA904
:103CC000684608F05BFC002808D1002108460FF088
:103CD00071F92078032803D005E008201AB010BD40
:103CE000A07801F046F8012001F00EF80020F5E779
:103CF0002DE9F041C84C002740B102281DD007280B
:103D000042D0082800D0FFDFBDE8F081FFF7CBFFED
:103D10000028F9D105F0F9FB0028F5D0017821F051
:103D20000F01891C21F0F00120310170077205F0AC
:103D3000EFFBA07C40F001001DE08EB23046FFF7A3
:103D4000CEF9050000D1FFDF28782128DCD005F06E
:103D5000DCFB90B1017821F00F01891C21F0F0010A
:103D600010310170022101724680AF7505F0D0FB61
:103D7000A07C40F00200A074C6E729463046BDE8AA
:103D8000F0411322FFF75FBBE578122D03D0132D0E
:103D900004D0FFDFB8E7FFF767FF01E0FFF74AFF56
:103DA0000028B1D105F0B1FB0028ADD0017821F099
:103DB0000F01891C21F0F00120310170122D07D074
:103DC0000221017205F0A4FBA07C40F01000D2E7B4
:103DD0000121F6E72DE9F04116460C00074600D117
:103DE000FFDF307820F00F00801C20F0F000103052
:103DF00030702078012803D0022817D0FFDF83E736
:103E00003846FFF76CF9050000D1FFDF0220A875E6
:103E100005F07EFB2068B0606068F0602089308229
:103E20007D48817C41F0200181746DE73846FFF7C1
:103E300056F9050000D1FFDF61884FF6FF7081421F
:103E400009D1A288824206D129463846BDE8F04110
:103E50001322FFF7F8BA814201D1A08848B105F0DA
:103E600057FB2068B0606068F060208930820020D5
:103E700006E078230022394602200EF0FBFF0120E5
:103E8000A87541E730B505469BB00C4608460FF0D3
:103E9000D5F878BB00210120203D092D6BD2DFE849
:103EA00005F005254C505A616D7B4000002108202B
:103EB0000FF056F808B11120C3E624208DF8000059
:103EC000D4F802000190A0798DF808000BA968468B
:103ED00008F054FB05004FD1082300221146184674
:103EE0000EF0C8FF082847D0FFDF45E060680FF0FC
:103EF000E9F808B11020A4E64C208DF800002088D5
:103F0000ADF804006088ADF806000BA9684608F01B
:103F100035FB050030D1606860B3BDF8301001801A
:103F20002AE04E208DF800002088ADF80400A0782B
:103F300000F001008DF8060029E0206802F06FF81B
:103F400017E04D2208E000BF8DF804001FE000BF1D
:103F50008DF804101BE048228DF800202278D2074B
:103F6000F6D0F1E72178C90705D057218DF8001068
:103F7000EAE7054600E00725284662E638208DF886
:103F800000002088ADF804006088ADF806000BA999
:103F9000684608F0F3FAECE72078C00802D16078B0
:103FA000C00801D007204CE63F208DF800002078A3
:103FB0008DF8050060788DF80600207830B100207B
:103FC0008DF80400617819B1002102E00120F7E7C3
:103FD00002210843B8E730B505469BB00C460846B9
:103FE0000FF052F808B110202BE6203D092D2BD2FE
:103FF000DFE805F0052828282A2A2A2A2800208810
:10400000FFF76DF820B10078222807D2082018E6C3
:1040100043F2020015E60000B801002025208DF8CB
:1040200000002088ADF804000BA9684608F0A6FA45
:104030000028D9D1DDF83210C4F802109DF83610EE
:10404000A171FEE50620FCE50720FAE5F748704778
:1040500038B5F6481621801F1CF007FC012000F03F
:1040600053FE1120FEF7D8FFF04C6846A41FE11D57
:1040700005F0ACF99DF80010A07961F3470020F03D
:104080000100A071002020744FF46170E0810220D3
:104090006074FFF70CF800B1FFDFFDF755F901F090
:1040A0003AFB38BD10B50C463E2120461CF0DDFB26
:1040B000A07F20F00300A077202020700020A075B2
:1040C00084F8230010BD70477CB505460EF0B6FF9E
:1040D00008B110207CBDD54CA41FA11DD4F806004A
:1040E0000090D4F80A0001902846FFF76BF90028E9
:1040F000F0D1FEF7DCFF0028ECD00099C4F80610E0
:10410000BDF8041061819DF8061021737CBD10B5C7
:1041100004460EF0B9FF08B1102010BDC349224675
:10412000891F8879C91D4008FFF763F9002010BD79
:104130002DE9F047A0B00D4604004FF0000812D062
:104140000822FFF78FF800281CD1002609E000BFE5
:1041500054F8260004A9FFF7FDF8002812D1761CB8
:10416000F6B2AE42F4D32F460A2006AD0DF1440A52
:104170008DF8180026465146284608F0FFF920B170
:1041800043F2032020B0BDE8F0874046DFF89C8270
:10419000A8F1060888F805002EB300244FF00B099B
:1041A0001DE000BF56F8240005A9FFF7D3F800B1C1
:1041B000FFDF9DF81400287156F8240050F8011F05
:1041C000C5F805108088A5F8090085F800905146CB
:1041D000284608F0D3F900B1FFDF641CE4B2BC420A
:1041E000E0D388F805700020CCE72DE9F047A2B0B5
:1041F0001546894604001ED00F4608222946FFF7BF
:1042000031F8002811D1002613E000BF54F8260031
:1042100005A9103000F0EEFD002806D13FB157F897
:1042200026000EF00BFF10B1102022B0ABE7761C79
:10423000F6B2AE42EAD30026A5F101081CE000BFA9
:1042400006F1010A0AF0FF0712E000BF54F8260049
:10425000017C4A0854F827100B7CB2EB530F05D1B0
:104260000622113011311CF05DFAC0B17F1CFFB283
:10427000AF42EBD30AF0FF064645E1DBC8462F46C6
:10428000342007AD0DF148098DF81C00264649463B
:10429000284608F073F928B143F20420C5E743F239
:1042A0000520C2E796B300242CE000BF56F8240096
:1042B000291D103000F09EFD00B1FFDF56F82400EC
:1042C000102250F8111FC5F805108088A5F80900C4
:1042D00056F8241005F10B001CF050FAB8F1000F4D
:1042E00015D058F82410102205F11B001CF046FAD6
:1042F000322028704946284608F040F900B1FFDF17
:10430000641CE4B2BC42D1D3012206E004E005F112
:104310001B0001F078FEEBE700224946284600F03A
:1043200094FD002081E770B59AB004460EF086FE39
:1043300018B960680EF0CFFE10B110201AB070BD31
:1043400060884AF2B811884206D8384D20786E4607
:10435000AD1F18B1012804D00720EFE7FEF7A7FE34
:1043600019E06078022804D0032802D043F202202A
:10437000E4E7687417208DF80000697C0020019044
:10438000ADF80800022932D003292DD0FFDF0BA998
:10439000684608F0F3F80028D0D1606801F026FEE6
:1043A000207870B101208DF80400701D01F02BFE03
:1043B00050208DF800000BA9684608F0DFF800B126
:1043C000FFDF6088A8B1E88180B2ADF8040030203A
:1043D0008DF800000BA9684608F0D0F800B1FFDFA7
:1043E000207828740020A9E78DF80900CFE7402045
:1043F000FAE74FF46170E6E710B504460EF044FEAC
:1044000020B9606838B10EF05DFE08B1102010BD13
:10441000606801F0F8FD0548801FC1896180417C1A
:104420006170007C2070002010BD0000BE010020E3
:104430002DE9F041A0B0054600208DF874008DF8FC
:1044400070008DF86C008DF878001E461446884682
:1044500028460EF040FE18B920460EF03CFE10B182
:10446000102020B050E455EA040018D01F271BABE1
:104470001DAA414628460097FEF70FFF0028F0D1FD
:104480001EAB1CAA314620460097FEF706FF002807
:10449000E7D19DF87000C00703D00A20E1E70720AC
:1044A000DFE701AF7DB11A208DF804008DF8088098
:1044B00042462946781D1CF061F90CA901A808F0B4
:1044C0005DF80028CDD17CB120208DF804008DF856
:1044D000086032462146781D1CF050F90CA901A84D
:1044E00008F04CF80028BCD1FF499DF86C004870DA
:1044F0000020B6E72DE9F0479EB08A464FF000084D
:10450000FAA104468DF86880D1E90001CDE91B01CC
:1045100020460EF093FD90B92078012803D1606801
:104520000EF08CFD58B9F04D4FF00109287C48B1D0
:10453000687C022806D160680EF0CDFD10B1102015
:104540001EB020E62878012801D00820F8E70720CF
:104550000BF062FA18B9207848B1012807D0FEF7AD
:1045600075FD30B1A87C10F00C0F08D103E01220CB
:10457000E6E71320E4E7C10701D1800701D5112048
:10458000DEE7608943F6E172A0F1200191422178D3
:1045900007D301297ED100287CD1A189002979D1B6
:1045A0000FE0022901D0032901D1A02872D30129EB
:1045B00007D06978C90704D0A18900296AD0B42935
:1045C00068D8217831B1012908D0022904D0032903
:1045D00060D10AE0002609E0022607E008B9A089B8
:1045E00008B1042609E0012607E00326287C50B123
:1045F000687C022807D1606828B11AA96068FEF7B4
:10460000A9FE00289CD1207A30B1012806D00228CA
:1046100006D0032878D105E0002704E0012702E056
:10462000022700E003270EB1022E0ED16FB1687988
:1046300080B36878800702D043F2012080E7022E21
:1046400003D1022F60D0032F5ED0207808B101285B
:1046500006D1504600F06CFB002889D185F802A0F5
:1046600018208DF83C006089ADF840006089ADF8F5
:1046700042008DF844600DF14500FEF78EFE00B15A
:10468000FFDF9DF868008DF846002078012808D0EB
:10469000287C00E038E058B1687C022808D16068C6
:1046A00030B1606850F8011FCDF84710808802E0F3
:1046B0004046CDF84780ADF84B008DF84E70A07B9A
:1046C000C0F34002014662F35F01C0F3800041EA9B
:1046D00080001BA9085C8DF84D00A8B169460FA8A1
:1046E00007F04CFF0028A9D11B208DF83C008DF865
:1046F000409069460FA807F041FF00289ED19DF821
:1047000001001B281CD101E0072019E7052E0CD25F
:10471000DFE806F0030308080300A87800F01CFB9C
:10472000032000E0022000F0EFFA012E0AD0A08959
:1047300040B100228300114610460EF09BFB08B1E9
:104740000320FDE60020FBE62DE9FC4107460D466F
:10475000032608460EF0BFFC002864D13846FEF759
:10476000BEFC040005D02078222805D20820BDE830
:10477000FC8143F20200FAE7A07F00F0030C2DB1A8
:1047800029466046FEF738FD0600F0D15648BCF1D8
:10479000010F05D0BCF1020F17D0FFDF3046E6E76E
:1047A000A27D2946012A02D0807C800701D51120F4
:1047B000DDE729B96846FCF7D5FE0028D7D1694660
:1047C000384608F0E1F90646E8E7A17D022914D150
:1047D000807C800611D425B1A07F40070BD4002136
:1047E00000E00121384608F0FAF90600D6D1A0759C
:1047F000002DD3D002E01126D0E7A5B12A462146EC
:104800003846FEF742FE06461128C7D1A07F410771
:10481000C4D4296844F80E1F6968616040F0040040
:1048200020740026BAE71020A1E770B50C460546B3
:10483000FEF755FC010005D022462846BDE8704031
:10484000FEF701BE43F2020070BD00B59BB04521EA
:104850008DF800108DF804000BA9684607F08EFE55
:104860001BB000BD0123FEF73DBC00231A461946CC
:10487000FEF738BC30B59BB004460EF0DFFB10B13C
:1048800010201BB030BD204600F0A2FA0028F8D15D
:10489000154DE878112801D00820F2E7FEF7D6FB85
:1048A00020B1A87CC00603D51120EAE71320E8E771
:1048B0002078800701D56879F0B31D208DF80000BD
:1048C0002078022200F001008DF804006088ADF825
:1048D0000600A088ADF808002078C0F3400102EA85
:1048E0005000014306E00000B8010020070605045F
:1048F000030201008DF80B100DF10A00FEF74DFDCB
:1049000000B1FFDF0BA9684607F038FE0028B8D1D8
:104910001E208DF8000001208DF8040000208DF885
:1049200005000BA9684607F029FE0028A9D1E088F8
:1049300000F06AFA040000E005E0A2D11220FEF7C0
:104940006BFB20469DE707209BE72DE9F041FE4CDD
:1049500007469AB0E078984616460D46122803D1CD
:10496000FFF782F900280ED128460EF067FB70BBD6
:1049700030460EF063FB50BBA07C10F0180F01D145
:10498000400703D511201AB0BDE8F081284600F099
:104990001FFA0028F7D131460220FEF72DFC00282F
:1049A000F1D1E078112801D00820ECE706200BF0C7
:1049B00033F850B12878800701D5607940B1FEF70F
:1049C00045FB022806D21320DDE71220DBE716E0C4
:1049D0000720D8E721208DF800006888ADF8040092
:1049E000A888ADF806002878C0F340008DF80800CC
:1049F000287880071DD438460EF020FB08B110201F
:104A0000C1E73878420808D0012A18D043F20221C1
:104A1000022A18D0032A18D115E0C00700D00220BE
:104A20008DF8090057F8010FCDF80A00B888ADF8E5
:104A30000E0004A8FEF7B1FC58B10320A3E7C0079D
:104A400005D00320ECE7C00701D008469BE7012012
:104A5000E6E73088ADF812007088ADF81400B08831
:104A6000ADF81600F088ADF818000020ADF81A0077
:104A7000ADF81C00404600F05BF9002883D184F8B3
:104A800004800BA9684607F079FD00288DD12079B4
:104A900000F062F9E88800F0B7F9040085D113202E
:104AA000FEF7BAFA20466EE730B505469BB00C46D5
:104AB00008460EF0E9FA08B11020E2E62846FEF7B3
:104AC0000EFB38B10178222902D3807F800604D4FE
:104AD0000820D6E643F20200D3E613208DF800004A
:104AE000ADF804500BA9684607F048FD0028E4D152
:104AF0009DF932107F2901D02170C2E60520C0E661
:104B000030B505469BB00C4608460EF097FA08B142
:104B10001020B6E62846FEF7E2FA20B100782228F7
:104B200004D20820ADE643F20200AAE62078C008CD
:104B300002D16078C00801D00720A2E656208DF887
:104B40000000ADF8045020788DF8070060788DF8EB
:104B50000800207830B100208DF80600617819B186
:104B6000002102E00120F7E7022108438DF806004A
:104B70000020ADF80A000BA9684607F0FFFC80E6AC
:104B80002DE9F041B8B0144688460546FEF7A7FA6D
:104B9000060005D03078222805D2082038B0F3E688
:104BA00043F20200FAE740460EF095FA28B90027D2
:104BB0003CB120460EF086FA08B11020EEE72760DF
:104BC000A7806148807C400601D51120E6E796F871
:104BD000220004F04FFA8088011DFB2901D2001D3C
:104BE00000E0FB20C0B26A46414600F0CCF82C221F
:104BF000564913A81BF007FEADF85050BDF802004F
:104C0000ADF85200BDF80600ADF85400BDF8000044
:104C1000ADF85600BDF80400ADF8580004A913A87B
:104C200007F0ACFC00B1FFDFBDF81400ADF80800E0
:104C3000BDF81600ADF80A00BDF81800BDF81A104E
:104C4000BDF800200844ADF80C0007201B2AA5D3AE
:104C5000BDF802101B29A1D3FB2A9FD8FB299DD8A0
:104C600006268A4210D10121104600F03DF8BDF819
:104C70000410884208D1BDF80200012100F034F888
:104C8000BDF80610884201D0304687E7BDF808001D
:104C900028B9BDF80A0010B9BDF80C0038B124B12C
:104CA00002982060BDF80C00A080132076E7274909
:104CB0002C222C311EA81BF0A6FDADF87C50BDF8AF
:104CC0000200ADF87E00BDF80600ADF88000BDF82A
:104CD0000000ADF88200BDF80400ADF8840029A9F9
:104CE0001EA807F04BFC59E7032904D0022907D07E
:104CF000C000703006E04FF4747101EB801001E0E9
:104D000080003C3080B2704730B50F4D040008D0B1
:104D1000012C04D0022C06D0032C04D0FFDF2C7011
:104D200030BDFFDFFBE728780128F8D0FFDFF6E78A
:104D300010B5044604F09EF950B1407850B12046B9
:104D400004F09FFC002010BDB8010020100C0200F0
:104D50000720F8E71220F6E710B504F08BF90400FD
:104D600000D1FFDF607800B9FFDF6078401E60701F
:104D7000E9E710B504F07EF9040000D1FFDF6078A8
:104D8000401C6070DFE710B5144631B10A6822603C
:104D900049686160218839B107E020806080012185
:104DA000FFF7A2FFA0800DE02080618801B960803C
:104DB000A08820B920880121FFF796FFA080E08815
:104DC0000028C0D160880121FFF78EFFE080BAE79C
:104DD000418843F6FD730A1F9A4209D2808804284D
:104DE00006D3B0F5804F03D8884201D80020704721
:104DF000072070470278520804D0012A02D043F2FB
:104E000002207047FEF7A6BA10B548B18300002211
:104E1000114607200EF02EF8072801D0032092E754
:104E2000002090E770B50C0006460DD0FEF757F94C
:104E3000050000D1FFDFA6802889208128896081B4
:104E40006889A081A889E08170BD10B502F00102D7
:104E500002713122027007F091FB002800D0FFDFC1
:104E600071E710B500231A4603E0845C2343521C0B
:104E7000D2B28A42F9D30BB1002064E7012062E785
:104E80002DE9F041884606460188408815460C18F1
:104E90001F46AC4200D3641B3844A84200D9FFDF50
:104EA000E019A84200D9FFDF70883844708008EB11
:104EB0000400BDE8F08110B504460EF0BFF808B15B
:104EC000102010BD2078C0F30210042807D86078A5
:104ED000072804D3A178102901D8814201D20720E4
:104EE00010BDE078410706D421794A0703D40007B2
:104EF00001D4080701D5062010BD002010BD10B553
:104F000013785C08C37F64F30003C3771478A408A4
:104F100064F34103C3771078C309487863F3410011
:104F2000487013781C090B7864F347130B701378DF
:104F3000DB0863F3000048705078487110BD10B56D
:104F4000C4780B7864F300030B70C478640864F3CE
:104F500041030B70C478A40864F382030B70C47817
:104F6000E40864F3C3030B700379117863F3000161
:104F7000117003795B0863F34101117003799B0899
:104F800063F3820111700079C00860F3C3011170EE
:104F900010BD70B514460D46064604F0B6FA80B151
:104FA0000178142221F00F01891C21F0F001A031B9
:104FB00000F8081B21461BF026FCBDE8704004F0F9
:104FC000A7BA29463046BDE870401322FEF73BBA27
:104FD00070B514460E46054604F097FA70B1017894
:104FE00021F00F01891C21F0F00120310170458072
:104FF00021688160BDE8704004F08ABA31462846D5
:10500000BDE870401322FEF71EBA10B5FE4C94F8AE
:10501000300000280CD104F120014FF6FF72A1F1FD
:1050200010000CF03EF900B1FFDF012084F83000E1
:1050300010BD2DE9F047064608A8894690E83004DF
:105040001F469046142128461BF031FC0021CAF867
:105050000010B8F1000F03D0B9F1000F03D114E034
:105060003878C00711D020680EF00EF8F0BBB8F108
:10507000000F07D120681230286020681430686063
:105080002068A8602168CAF800103878800728D501
:1050900060680EF017F848BBB9F1000F2DD0FEF78D
:1050A000D5FF0168C6F8C8118188A6F8CC118079AF
:1050B00086F8CE01FFF7A9FFDFF84C8308F120083E
:1050C000C5F80C80626862B196F8C80106F2C91191
:1050D00040081032FEF78DF91022414660681BF03F
:1050E0004DFB3878400712D5A06800E002E00DF0D3
:1050F000CBFF50B11020BDE8F08760680028F9D0E0
:10510000E8606068C6F8C401EBE7A0682861002089
:10511000F1E730B5054608780C4620F00F00401C3A
:1051200020F0F001103121700020607095F823000C
:1051300030B104280FD0052811D0062814D0FFDF85
:1051400020780121B1EB101F04D295F8200000F067
:105150001F00607030BD21F0F000203002E021F02F
:10516000F00030302070EBE721F0F0004030F9E73C
:1051700010B510B190F8BD4044B1A34890F8354047
:10518000002064B108601060186010BD00F1BC041C
:105190000C6000F1E40100F586701160F4E79A4CB0
:1051A00034340C60EFE700B58BB00723CDE9021271
:1051B0008DF80130019194490023643105910993E0
:1051C00001468DF8103068460CF043F8002800D0F6
:1051D000FFDF0BB000BD70B590B015460C46022243
:1051E0000646ADF80820082103AB07F0DEFA04906C
:1051F000002812D00C208DF8010004208DF8040046
:1052000004F59A74099605948DF818500AA9684611
:105210000CF01FF800B1FFDF012010B070BD30B5F9
:105220009BB00C462C251E998DF80050ADF804005B
:10523000C3B11868CDF80600D3F80400CDF80A0011
:10524000ADF80E20102204A81BF098FA0BA96846AE
:1052500007F094F9002803D1A17F41F01001A17754
:105260001BB030BD0020CDF80600E7E72DE9F04780
:105270000646008A8CB080B20D468246FDF72FFFAD
:105280000446614F3078383FDFF87C814FF00009E9
:10529000122873D2DFE800F072F8350936777E966F
:1052A000A3E7F7F6F5F4F35BF3F3A07F00F0030058
:1052B000012806D0002150460AF0FCFB050003D16E
:1052C00001E00121F7E7FFDF98F85C10090602D53D
:1052D000D8F860000BE0032105F121000DF058FB28
:1052E000D5F821004949B0FBF1F201FB1200C5F8E5
:1052F00021007068A867B068E8672078252800D08A
:10530000FFDFE7E0A07F00F00300012806D00021C6
:1053100050460AF0CFFB060003D101E00121F7E778
:10532000FFDF3078810702D52178252904D040F0AD
:10533000010030700CB0DEE60220287096F82000E4
:10534000287106F121003136C5E90206F2E7A07F97
:1053500000F00300012806D0002150460AF0AAFB05
:10536000040003D101E00121F7E7FFDF2078C10647
:1053700005D51320287041346C60DBE7C9E140F0AB
:1053800008002070D6E72048082138380DF000FBCF
:10539000032014E02A208DF80000102201A8716873
:1053A0001BF0ECF9102205A8B1681BF0E7F91649CB
:1053B00068463C3907F0E2F800B1FFDF04202870AE
:1053C0006F60B7E7E07FC00600D5FFDFB0680090F0
:1053D000B38806220821504607F0F6FAAAE704B976
:1053E000FFDF716821B1102204F124001BF0C6F91F
:1053F00028212046FDF7ABFEA07F00F00300022825
:1054000013D104F1240003E01402002040420F00F5
:10541000002300901A4621465046FFF700FF11284E
:1054200007D029212046FDF792FE307A84F820002B
:1054300080E7A07F000700D5FFDF14F81E0F40F0C3
:1054400008002070A4F81690C4F81890C4F81C90B6
:105450006178084661F38200410861F3C30060701F
:10546000307AE07066E7A07F00F0030001280CD0DE
:10547000002150460AF01EFB040009D107E01BE0A2
:1054800043E17FE075E04DE02BE00121F1E7FFDF34
:10549000022104F189000DF07BFA1020287004F538
:1054A000E4706860B4F88910298204F18000FE4934
:1054B0006861C5E902813DE7A07F00F00300012893
:1054C00005D0002150460AF0F5FA18B901E0012193
:1054D000F8E7FFDF0CB0324621465046BDE8F04702
:1054E00057E504B9FFDF20782128A1D930790128B8
:1054F00002D002280AD103E0E07F40F01000E077FC
:1055000098F85C1041F0010188F85C1032462146A1
:105510005046FFF73EFD0CB02046BDE8F047232182
:10552000FDF715BE3279AA8005F10803082150461F
:1055300007F03BF9E86008B1112021E0A07F00F0FE
:105540000300012806D0002150460AF0B3FA0400F7
:1055500003D101E00121F7E7FFDF04F16601022337
:105560001022081FFFF78CFC80F800903179417001
:10557000E0E60821504607F0F7FB00289BD11220F7
:105580002870D7E6A07F00F00300012806D0002194
:1055900050460AF08FFA050003D101E00121F7E738
:1055A000FFDF95F8880000F00300012878D1A07F84
:1055B00000F00307E07FC0F3400616B1012F04D0CE
:1055C0002BE095F8A400C0072AD0D5F8C01119B374
:1055D00095F88720087C62F387000874E27FD5F88D
:1055E000C01162F341000874D5F8C01166F30000E1
:1055F0000874AEB1D5F8C001102204F124018C3535
:105600001BF0BCF8287E40F001002876287820F0B6
:10561000010005F88C0900E016B1022F04D02CE03F
:1056200095F88C00C00726D0D5F8BC1119B395F8B1
:105630008720087C62F387000874E27FD5F8BC11EC
:1056400062F341000874D5F8BC1166F300000874D9
:105650008EB1D5F8BC01102204F124018C351BF069
:105660008DF8287840F0010005F8180B287820F014
:10567000010005F8A409022F43D0002000EB4000F0
:1056800005EBC00090F88C00800709D595F88000E4
:10569000D5F8C421400805F181011032FDF7A9FEBB
:1056A00005208DF8000095F888006A4600F0030098
:1056B0008DF8010095F88C108DF8021095F8A40073
:1056C0008DF8030021465046FFF782FC20782528FC
:1056D00005D0212807D0FFDF2078222803D92221F6
:1056E0002046FDF734FDA07F00F0030001280AD01A
:1056F000002150460AF0F0F900283FF427AEFFDF02
:1057000018E60120BAE70121F3E7716881F80190FA
:1057100010E6FFDF0EE670B5634C0025103C14F870
:105720005C0F20F08000207065600BF05AFD5E4930
:10573000A1F1100003F07CFE04F82C5C06206072DE
:1057400059487C3020615030A0611030E06170BD5C
:1057500070B50D46FDF7C3FC040000D1FFDF4FF428
:10576000E87128461BF0A3F84F485430686104F1F3
:1057700024002861A07F00F00300012808D0022146
:1057800005F59A700BF02EFD002800D0FFDF70BDEC
:105790000121F5E70A46014602F59A700BF042BD79
:1057A00070B505464068A0B00178092906D00C29DB
:1057B00038D00D2934D0FFDF20B070BD4688304688
:1057C000FDF78DFC040000D1FFDF20782128F3D005
:1057D000282822D1686802210C3001F0D1F9E0B10B
:1057E00068680821001D01F0CBF9B0B12D208DF8BB
:1057F0000000ADF80460102204F124010DF1060050
:105800001AF0BCFF0BA9684606F0B8FE00B1FFDF36
:1058100029212046FDF79BFCCEE703F079FECBE77C
:1058200001218171686886883046FDF758FC0400C4
:1058300000D1FFDFA07F00F00301022902D120F098
:105840001000A077207821280AD06868817909B1F2
:10585000807880B1A07F00F0030002285AD0FFDFDB
:10586000A07F00F003000228A6D1FDF72BFE002840
:10587000A2D0FFDFA0E703F04BFEE07FC10724D0FA
:10588000800701D5062000E0052084F82300207859
:1058900029281CD02428E3D1314606200DF08AFBAC
:1058A0002221204602E0000024020020FDF74FFCE8
:1058B000A07F00F0030001282AD0002130460AF022
:1058C0000BF90028CCD0FFDFCAE70420DDE7A07F7A
:1058D00000F00300012806D0002130460AF0EAF863
:1058E000050003D101E00121F7E7FFDF2521204674
:1058F000FDF72DFC0F208DF868001AA905F59A70A8
:105900000BF087FC0228ABD00028A9D0FFDFA7E767
:105910000121D3E703F0FCFDA2E72DE9F0438BB0B2
:105920009946154688460646FDF7D9FB04004FD038
:10593000207822284CD323284AD0E07FC00647D4C1
:10594000A07F00F00300012806D0002130460AF0B5
:10595000B1F8070002D00CE00121F7E7A07F00F0CA
:105960000300012805D10121002230460AF099F8F0
:10597000074601AB02AA03A93846FFF7F9FB0398D3
:1059800000B9FFDF4FB1039807F59A778761207858
:10599000222806D0242804D007E00399002088613B
:1059A00003E025212046FDF7D2FB03980B2141702F
:1059B00046628580C0E902890299016101994161CD
:1059C00004A90BF046FC022802D0002800D0FFDF1B
:1059D0000BB0BDE8F083F0B587B00746FDF77FFB5D
:1059E000017822291DD9807F00F00300012806D00C
:1059F000002138460AF05EF804003FD101E00121A1
:105A0000F7E7FFDF3AE000BFB4F8621004F1660088
:105A100008440178427831B121463846FFF7DBFB74
:105A2000B8B907B0F0BDADF804200821384602AB84
:105A300006F0BBFE03900028F3D011208DF8000083
:105A4000694604F59A700BF0E4FB022801D000B11E
:105A5000FFDF04F162052E88B01C80B22880102878
:105A600001D3103828806888022800D2FFDFB61CD6
:105A7000102E00D9FFDF6888801E6880B4F86400AB
:105A80000028C1D1CDE730B587B00546FDF727FB2B
:105A90000446007822281FD90821284607F064F917
:105AA000002819D1A07F00F00300012806D00021B2
:105AB000284609F0FFFF040003D101E00121F7E7C8
:105AC000FFDF12208DF80000694604F59A700BF094
:105AD000A0FB002800D0FFDF07B030BD2DE9F05F4C
:105AE00005460C4600270078904601093E46BB4615
:105AF00004F1080A02297CD0072902D00A2909D119
:105B000042E068680178092905D00C292CD00D29BC
:105B10002AD0FFDFC6E114271C26002C6AD040885B
:105B2000A080FDF7DCFA5FEA000900D1FFDF99F8F9
:105B300017005246400809F11801FDF75AFC686841
:105B40008089208268684168C4F812108068C4F8AF
:105B50001600A07E20F0060040F00100A07699F823
:105B60001E0040F040014DE01A270A26002CD5D037
:105B70008088A080FDF7B3FA050000D1FFDF514611
:105B80002846FFF7C6FA8DE10CB1288BA080287A51
:105B90000E287CD006DC01287AD0022808D0032801
:105BA00004D135E0102874D0112873D0FFDF79E1DB
:105BB0001E270926002CB1D0A088FDF790FA5FEAD5
:105BC000000900D1FFDF287B00F003000128207AC4
:105BD0001BD020F001002072297B890861F341006D
:105BE0002072297BC90861F382002072297B090990
:105BF00001E04CE119E161F3C300207299F81E0045
:105C000040F0800189F81E104CE140F00100E2E70D
:105C100013270D26002CAAD0A088FDF760FA814634
:105C2000807F00F00300012806D00021A08809F041
:105C300041FF050003D101E00121F7E7FFDF99F8FB
:105C40001E0000F00302012A59D0E86F817801F0AC
:105C500003010129217A54D021F0010121728378B6
:105C60009B0863F3410121728378DB0863F38201AF
:105C7000217283781B0963F3C3012172037863F3F4
:105C800006112172437863F3C711217203E060E0CB
:105C9000A6E08EE09EE084F809B0C178A172012AE6
:105CA00032D04279E17A62F30001E172427952081E
:105CB00062F34101E1724279920862F38201E1727A
:105CC0004279D20862F3C301E1720279217B62F367
:105CD000000121730279520862F3410121730279B4
:105CE000920862F3820121730079C00860F3C30156
:105CF000217399F8000023285AD9262168E0A86F5B
:105D0000A4E741F00101A9E70279E17A62F3000119
:105D1000E1720279520862F34101E172027992085C
:105D200062F38201E1720279D20862F3C301E17287
:105D30004279217B62F3000121734279520862F3B8
:105D4000410121734279920862F382012173407903
:105D5000CBE718271026002C67D0A088FDF7BFF9E5
:105D60008246807F00F00300012807D00021A08830
:105D700009F0A0FE5FEA000903D101E00121F6E786
:105D8000FFDFE868A06099F8000040F0040189F89E
:105D9000001099F80100800708D5012020739AF8B7
:105DA000000023287ED92721504663E084F80CB0F8
:105DB00078E015270F26C4B3A088FDF790F9814637
:105DC00006225146E86806F041FC0120A073AEE0CF
:105DD00048464FE0162709263CB3287B207261E035
:105DE000297BFE4802290CD019270E26ECB1012987
:105DF0000DD003291AD004291BD0052919D0FFDFA3
:105E000023E01B270926BCB30121217205E00121F3
:105E10002172617A21F00301617210F85C1F4A0857
:105E2000520062F3060101700FE02BE002202072A5
:105E300007E0687B052900F00F0040F08000207229
:105E40001BD0607A20F003006072A088FDF747F94C
:105E500005460078212825D0232800D0FFDFA87F21
:105E600000F00300012810D00021A08809F034FEC2
:105E700022212846FDF76BF914E0607A20F0030038
:105E8000401CE1E7A8F8006011E00121EDE70CB14A
:105E90006888A080287A03282BD004280AD00528F7
:105EA0004BD0FFDFA8F800600CB12780668000208F
:105EB000BDE8F09F15270F26002CE3D0A088FDF742
:105EC0000EF9807F00F00300012806D00021A08891
:105ED00009F0F0FD050003D101E00121F7E7FFDF44
:105EE000D5F821000622514606F0B0FB84F80EB02A
:105EF000D8E717270926002CC4D0A088FDF7EFF8B3
:105F00008146807F00F00300012806D00021A08890
:105F100009F0D0FD050003D101E00121F7E7FFDF23
:105F20006878800701D5022000E00120207299F8EE
:105F300000002328B6D927214AE719270E26002C6E
:105F4000A0D0A088FDF7CBF85FEA000900D1FFDF01
:105F5000C4F808B0A4F80CB084F808B0A07A40F0F7
:105F60000300A07299F81F1061F38200A07299F8E3
:105F70001F1001EA510161F3C300A072687A00F0BA
:105F8000030001288ED1607A40F00400607299F815
:105F90001E00E97A00F00300012813D0607B61F352
:105FA00000006073AA7A217B62F300012173EA7A10
:105FB000520862F341006073A87A400860F341011F
:105FC00021736FE7207B61F300002073AA7A617B65
:105FD00062F300016173EA7A520862F341002073B0
:105FE000A87A400860F3410161735BE710B57B4C10
:105FF00030B10146102204F120001AF0BFFB01204D
:1060000084F8300010BD10B50446FEF7FEFF73495A
:1060100020461022BDE8104020311AF0AFBB70B509
:106020006E4C06004FF0000514D00DF007F808B1D3
:1060300010250DE00621304606F0EFFA411C06D08F
:10604000206614F85C0F40F08000207000E0072507
:10605000284670BD14F85C0F20F08000F5E700784A
:1060600010F00F0204D0012A05D0022A0CD110E052
:10607000000909D10AE00009012807D0022805D04B
:10608000032803D0042801D007207047087000209F
:1060900070470620704705282AD2DFE800F0030782
:1060A0000F171F00087820F0FF001EE0087820F08E
:1060B0000F00401C20F0F000103016E0087820F0AF
:1060C0000F00401C20F0F00020300EE0087820F097
:1060D0000F00401C20F0F000303006E0087820F07F
:1060E0000F00401C20F0F000403008700020704786
:1060F000072070472DE9F041804688B00D46002703
:1061000008460CF0E8FFA8B94046FCF7E8FF040099
:1061100003D02078222815D104E043F2020008B011
:10612000BDE8F08145B9A07F010603D500F003006A
:10613000022801D01020F2E7A07FC10601D4010798
:1061400002D50DB10820EAE7244991F85C10C9078F
:1061500001D01120E3E7E17FC90601D50D20DEE77C
:1061600000F00300022805D125B12846FEF7A3FE62
:106170000700D4D1A07F00F00300012806D0002141
:10618000404609F097FC060002D00DE00121F7E738
:10619000A07F00F0030001280CD00021002240461F
:1061A00009F07FFC060007D0A07F00F00300022862
:1061B00004D009E00121F1E70420B0E725B12A4627
:1061C00031462046FEF79BFE07AB1A46694630462D
:1061D000FEF7CEFF009800B9FFDF01E014020020B7
:1061E00000990C20487006F59A70C1F82480486127
:1061F00000200881A07F00F00300012828D0EDB323
:1062000002200871301D8861307840090877707865
:10621000C0F340004877287800F00102887F62F3DD
:1062200001008877E27F62F382008877E27F52087C
:1062300062F3C3008877727862F304108877A878D5
:10624000C87701F1210228462031FEF778FE22E0CE
:1062500001200871287800F00102087E62F3010035
:1062600008762A78520862F3820008762A78920823
:1062700062F3C30008762A78D20800E007E062F3F0
:106280000410087624212046FCF761FF0BE0032070
:1062900008710520087625212046FCF758FFA07FCD
:1062A00020F08000A07701A900980AF0D2FF022810
:1062B00001D000B1FFDF384631E72DE9FF4FF94A41
:1062C0000D4699B09A4607CA14AB002783E8070029
:1062D0001998FCF704FF060006D03078262806D06F
:1062E00008201DB0BDE8F08F43F20200F9E7B07F4F
:1062F00000F00309B9F1010F03D0B9F1020F07D083
:1063000008E03DB91B98FEF7D6FD0028E9D101E071
:106310001B9878BBB07F00F00300012806D0002155
:10632000199809F0C7FB040003D101E00121F7E748
:10633000FFDF852D25D007DCD5B1812D1BD0822D27
:106340001BD0832D08D11AE0862D1CD0882D1CD09F
:10635000892D1CD08A2D1CD00F2020710F281AD017
:1063600001208DF83400201D0E902079A8B158E14D
:106370000020F2E70FE00120EFE70220EDE7032025
:10638000EBE70520E9E70620E7E70820E5E7092035
:10639000E3E70A20E1E70720A3E7B9F1010F17D0EF
:1063A000D4E91E5080460220019001200090A87878
:1063B00098F80210C0F3C000C1F3C00108405FEAC2
:1063C000000B5DD050460CF039FE00286CD12DE05A
:1063D000D4E91E850120019002200090214630461C
:1063E0001B9AFEF78CFD1B98007800F00101A8783D
:1063F00061F30100A870F17F61F38200A870F17F62
:10640000490861F3C300A870617861F30410A870B3
:106410002078400928706078C0F3400068701B98AD
:106420008078E870002068712871C0E7DAF80C0005
:106430000CF004FEC0BBDAF81C000CF0FFFD98BBAA
:10644000DAF80C00A060DAF81C00E06098F80100AF
:10645000617800F0010041EA4000607098F8021095
:10646000C0B2C1F30011891E08406070002084F89A
:106470002000009906F1170002290BD001210AE043
:1064800098F80110607801F00101FD2242EA410113
:106490000840E2E7002104EB810188610199701C4A
:1064A000022902D0012101E028E0002104EB810152
:1064B0008861A87800F00300012849D198F802000B
:1064C00000F00300012843D1B9F1010F04D12A1DC6
:1064D000691D1B98FEF733FD297998F804000140E7
:1064E0008DF82C10687998F8052010408DF8300050
:1064F00001432DD050460CF0A1FD08B11020F0E66C
:106500000AF1100004F5DE7104F190020490B9F173
:10651000020F3CD00090CDE9012100210BAB5A467F
:106520002046FEF786FD0028E9D104F5E07104F16C
:10653000A802B9F1010F30D004980090CDE90121F3
:1065400000210CAB5A462046FEF773FD0028D6D139
:106550006078800740D4A87898F80210C0F38000D3
:10656000C1F38001084337D0297898F8000014AAB5
:10657000B9F1010F17D032F810204B00DA4012F0B9
:10658000030718D0012F1ED0022F12D11DE0CDF825
:1065900000A0CDE901210121C0E7CDF800A0CDE99F
:1065A00001210121CDE732F811204300DA4002F049
:1065B0000307032F07D0BBF1000F0DD0012906D030
:1065C000042904D008E00227F5E70127F3E70128B2
:1065D00001D0042800D10427F07F40F001006BF3C4
:1065E0004100F077607881074FF003000CD5A0716F
:1065F000BBF1000F15D100BF8DF85C0017AA314622
:106600001998FEF7E5FC0CE00221022F18D0012FAB
:1066100018D0042F22D00020A071F07F20F00100BC
:10662000F07725213046FCF792FD0DA904F59A700C
:106630000AF0EFFD10B1022800D0FFDF002050E685
:10664000A171D9E7A1710D2104F124001AF02FF9ED
:10665000207840F0020020700420CDE70120A071D6
:10666000DFE72DE9F04387B09046894604460025D0
:10667000FCF735FD060006D03078272806D0082024
:1066800007B0BDE8F08343F20200F9E7B07F00F005
:106690000300012808D00021204609F00BFA04006D
:1066A00005D103E0680C02000121F5E7FFDFA779BF
:1066B0005FEA090005D0012821D0B9F1020F26D1E7
:1066C00010E0B8F1000F22D1012F05D0022F05D024
:1066D000032F05D0FFDF2DE00C252BE0012529E05D
:1066E000022527E040460CF0A9FCB0B9032F0ED1DB
:1066F0001022414604F121001AF040F81AE0012F5F
:1067000002D0022F03D104E0B8F1000F12D007200D
:10671000B6E740460CF092FC08B11020B0E710211B
:1067200004F121001AF0A1F80621404605F075FF9A
:10673000C4F821002078252140F002002070304666
:10674000FCF705FD2078C10714D020F0010020706F
:1067500002208DF8000004F1210002908DF8045011
:10676000694604F59A700AF054FD022804D018B165
:10677000FFDF01E084F82050002081E730B587B0CA
:106780000D460446FCF7ABFC88B1807F00F00300A7
:1067900001280FD00021204609F08CF904000ED00A
:1067A00028460CF04BFC38B1102007B030BD43F246
:1067B0000200FAE70121EEE72078400701D4082023
:1067C000F3E7294604F141002022054619F0D6FFDF
:1067D000207840F01000207001070FD520F008004D
:1067E000207013208DF80000694604F59A70019519
:1067F0000AF00FFD022801D000B1FFDF0020D4E72E
:1068000070B50D460646FCF76AFC18B101782729D9
:106810001FD102E043F2020070BD807F00F0030050
:10682000012806D00021304609F044F9040003D1C4
:1068300001E00121F7E7FFDFA079022809D16078A4
:10684000C00706D02A4621463046FEF7C4FC10B1E8
:106850000FE0082070BDB4F864000E280BD204F1DC
:10686000660102231022081FFEF70AFB01210170B6
:106870004570002070BD112070BD70B5064686B011
:1068800014460D4608460CF0D9FB18B920460CF00A
:10689000FBFB10B1102006B070BDA6F57F40FF389D
:1068A0000ED03046FCF71BFC38B1417822464B082D
:1068B000811C1846FCF79DFD07E043F20200EAE761
:1068C0002046FDF724FC0028E5D11021E01D0CF046
:1068D0005FF8E21D29466846FEF765FC102204F1C8
:1068E0001700019919F04AFF0020D4E72DE9F04183
:1068F000044686B015468846002708460CF0EBFB98
:1069000018B928460CF0E7FB10B1102006B007E4D8
:106910002046FCF7E4FB060003D03078272818D186
:1069200002E043F20200F1E7B07F00F0030001282B
:1069300006D00021204609F0BDF8040003D101E093
:106940000121F7E7FFDF2078400702D56078800754
:1069500001D40820DAE7B07F00F00300012818D046
:10696000D4E91E01407800B1B5B1487810B1B8F152
:10697000000F11D0C5B1EA1D6846E168FEF713FCAF
:10698000102205F11700019919F0CCFE30B104274F
:106990000AE0D4E91E10E5E70720B7E71022E91D59
:1069A00004F1310019F0EAFEB8F1000F06D0102210
:1069B00008F1070104F1210019F0E0FE20782521FB
:1069C00040F0020020703046FCF7C1FB2078C10780
:1069D00016D020F00100207002208DF8000004F194
:1069E00021000290103003908DF80470694604F580
:1069F0009A700AF00EFC022804D018B1FFDF01E003
:106A000084F82070002081E7F8B515460E46074649
:106A1000FCF765FB040004D02078222804D008206D
:106A2000F8BD43F20200F8BDA07F00F00300022889
:106A300002D043F20500F8BD30460CF0FFFA18B959
:106A400028460CF0FBFA08B11020F8BD00953288FA
:106A5000B31C21463846FEF7E2FB112814D000286B
:106A6000F3D1297C4A08E17F62F30001E1772A7CB7
:106A700062F34101E177297C890884F82010A17F25
:106A800021F08001A177F8BDA17F0907FBD4D6F8DA
:106A90000200C4F83600D6F80600C4F83A00308880
:106AA000A0861022294604F1240019F067FE287CF4
:106AB0004108E07F61F38200E077297C61F3C30045
:106AC000E077287C800884F82100A07F40F008004F
:106AD000A0770020D3E770B59AB00D46064613B1F3
:106AE00007201AB070BDFCF7FAFA040007D020782E
:106AF000222802D3A07F400604D40820F1E743F205
:106B00000200EEE7CDB12D208DF80000ADF8046055
:106B1000102229460DF1060019F030FE287C4108AC
:106B2000E07F61F30000E077297C61F34100E077CA
:106B3000287C800884F8200004E02E208DF80000D6
:106B4000ADF804600BA9684605F018FDA17F21F09F
:106B50004001A177C5E770B50D46FCF7C0FA040007
:106B600005D028460CF090FA20B1102070BD43F2F9
:106B7000020070BD29462046FEF7CBFA002070BD0A
:106B800005E000BF10F8012B0AB100207047491E34
:106B900089B2F7D20120704718B18178012938D124
:106BA00001E010207047018842F60112881A9142D4
:106BB00031D018DC42F60102A1EB020091422AD04A
:106BC0000CDC41B3B1F5C05F25D06FF4C05008189C
:106BD00021D0A0F57060FF381BD11CE001281AD02D
:106BE00002280AD117E0B0F5807F14D008DC012814
:106BF00011D002280FD003280DD0FF2809D10AE0B8
:106C0000B0F5817F07D0A0F58070033803D001284C
:106C100001D0002070470F2070470B2826D008DCD9
:106C20001BD2DFE800F01C2025251A252923252763
:106C30001E0011281CD008DC0C2817D00D281DD0F0
:106C40000F2815D0102808D110E0822809D08428F8
:106C500010D0852810D0872812D00320704700203C
:106C600070470520704743F20300704707207047C4
:106C70000F20704704207047062070470C20704793
:106C800043F20200704708280DD2DFE800F0040646
:106C9000040C0C080A0A00207047112070470720D6
:106CA0007047082070470320704738B50C46050030
:106CB00041D06946FFF7D3F9002819D19DF800109B
:106CC000607861F3020060706946681CFFF7C7F9DD
:106CD00000280DD19DF80010607861F3C500607048
:106CE000A978C1F34101012903D0022905D0072069
:106CF00038BD217821F0200102E0217841F0200107
:106D00002170410704D0A978C90861F3861060702A
:106D1000607810F0380F07D0A978090961F3C7101F
:106D2000607010F0380F02D16078400603D52078EB
:106D300040F040002070002038BD70B504460020AF
:106D4000088015466068FFF7B0FF002816D120893B
:106D5000A189884211D860688078C0070AD0B1F54F
:106D6000007F0AD840F20120B1FBF0F200FB1210C4
:106D7000288007E0B1F5FF7F01D90C2070BD01F23A
:106D800001212980002070BD10B50478137864F3C8
:106D9000000313700478640864F3410313700478EB
:106DA000A40864F3820313700478E40864F3C30353
:106DB00013700478240964F30413137004786409CD
:106DC00064F3451313700078800960F38613137021
:106DD00031B10878C10701D1800701D5012000E059
:106DE000002060F3C713137010BD4278530702D020
:106DF00002F0070306E012F0380F02D0C2F3C2031C
:106E000000E001234A7863F302024A70407810F0F0
:106E1000380F02D0C0F3C20005E0430702D000F0F3
:106E2000070000E0012060F3C5024A7070472DE9B9
:106E3000F04F95B00D00804615D0B8F1000F16D078
:106E40001221284619F011FD4FF6FF7B05AA0121FA
:106E5000584605F0DDF90024264637464FF4205900
:106E60006FF4205A75E0102015B0BDE8F08F0720B0
:106E7000FAE700BF9DF81E0001280AD1BDF81C00EA
:106E800048450BD010EB0A000AD001280CD002288C
:106E90000CD0042C0ED0052C0FD10DE0012400E005
:106EA0000224BDF81A6008E0032406E00424BDF8BB
:106EB0001A7002E0052400E00624BDF81A104145CE
:106EC00047D12C74BEB34FF0000810AA4FF0070A48
:106ED000CDE90282CDE900A80DF13C091023CDF8DF
:106EE000109042463146584605F045FA08BBBDF8B9
:106EF0003C002A46C0B210A90AF04CFAC8B9AE81CB
:106F0000CFB1CDE900A80DF1080C0AAE40468CE8DF
:106F10004102132300223946584605F02CFA40B9A5
:106F2000BDF83C00F11CC01EC0B22A1D0AF032FAA6
:106F300010B1032098E70AE0BDF82900E881062C8B
:106F400005D19DF81E00A872BDF81C002881002004
:106F50008AE705A805F068F900288BD0FFF75DFEE9
:106F600082E72DE9F0471C46DDE90978DDF820903D
:106F700015460E00824600D1FFDF0CB1208818B103
:106F8000D5B11120BDE8F087022D01D0012100E02C
:106F9000002106F1140004F013F8A8F800000246DE
:106FA0003B462946504605F000FCC9F8000008B9E8
:106FB000A41C3C600020E5E71320E3E7F8B50D468C
:106FC00006461446DDE90710069ACAB10346009149
:106FD00004222146304605F0F7FC5CB1022C08D1B2
:106FE000A87CC00705D02146304605F0BDFE002034
:106FF000A874F8BD21463046BDE8F84005F0B4BE9F
:107000001880F8BD2DE9FF4791461A881C468A462C
:1070100080460AB303AB494605F0C7FB05001BD009
:107020004046A61C278808F062FE324607262946FD
:107030003B46009608F0E8FA208803990095CDE9D0
:10704000011023464A4651464046FFF7B7FF00204D
:107050002080012004B095E70020FBE72DE9F047F0
:107060008CB00D46DDE9149882461C461746022670
:10707000142103A819F01BFC012002218DF8101027
:107080008DF80C008DF81180ADF8147064B1A17802
:10709000C90709D08DF81600E088ADF81A00A0885D
:1070A000ADF81800A06807900AAA09A908A88DE8F9
:1070B00007003246294650466B68FFF752FF00280A
:1070C0000ED1DDE9080105F114028DE807000AABD5
:1070D0004A4603A9504604F037FB18B1FFF7D3FD29
:1070E0000CB04FE7DDE90801BDF828208DE8070066
:1070F0003246294650466B68FFF760FF0020EFE7F5
:10710000F0B58BB000240646069407940727089430
:1071100005A80994019400970294CDE903400D4617
:1071200010232246304605F026F978B90AA806A9A8
:10713000019400970294CDE90310BDF814300022A9
:107140002946304604F0EEFE002801D0FFF765FD29
:107150000BB0F0BD04F080BD2DE9FC410C4680462B
:10716000002602F0D2F9054620780D287ED2DFE80D
:1071700000F0B2070BA918B33C5C6C8FA5949A0081
:10718000404602F0F1F9A7E00421404608F092FCE5
:10719000070000D1FFDF07F11401404603F0A4FE11
:1071A0006AE00421404608F085FC070000D1FFDFBB
:1071B000E088ADF800000020B8819DF800000107CC
:1071C00004D5C00602D5A088B88105E09DF801006D
:1071D000400609D5A088F88105B9FFDF2246294677
:1071E000404601F017FD022676E0A088694605F0CA
:1071F000A5F900B1FFDF9DF8020001280BD1BDF811
:10720000000042F6011188420BD0A0F5245102394A
:1072100007D0491E05D0E079000600D5022635BB0F
:1072200001E0042658E0FFDF27E0E079000609D5F9
:107230000421404608F03EFC060000D1FFDFA08894
:10724000F08102269DB9FFDF17E00421404608F0D7
:1072500031FC070000D1FFDF07F1140004F033FD1B
:1072600090F0010F05D1E079000601E033E004E081
:1072700032D50226A7F810802DB122462946404675
:1072800001F0C8FC28E013214046FDF7CEFA23E0C8
:107290000226002DF1D1FFDFEFE702260121404653
:1072A00002F0AEF918E0606800902089ADF80400A3
:1072B00001226946404602F0C4F90DE0002DDCD100
:1072C000FFDFDAE7022600214046FBF790F8002DA9
:1072D000D3D1FFDFD1E7FFDF3046BDE8FC813EB50B
:1072E0000C0009D001466B4601AA002005F0C5F844
:1072F00020B1FFF792FC3EBD10203EBD0020208053
:10730000A0709DF8050002A900F00700FEF7C3FE7B
:1073100050B99DF8080020709DF8050002A9C0F33F
:10732000C200FEF7B8FE08B103203EBD9DF808007C
:1073300060709DF80500C109A07861F30410A07089
:107340009DF80510890961F3C300A0709DF8041031
:10735000890601D5022100E0012161F342009DF878
:10736000001061F30000A07000203EBD70B514460F
:1073700006460D4651EA040005D075B108460BF0EB
:10738000A1FE78B901E0072070BD2946304605F01E
:10739000D5F810B1BDE870403FE454B120460BF081
:1073A00091FE08B1102070BD21463046BDE8704006
:1073B00095E7002070BD2DE9FE4F0C46904605462E
:1073C000002701780822007A3E46B2EB111F7DD1DA
:1073D00004F10A010091891E02910C31821E4FF0C6
:1073E000020B4FF0010A0191092A70D2DFE802F086
:1073F000F5F4056F252579B8F6006888042108F0B2
:1074000059FB060000D1FFDFB08910B152270726D3
:10741000EBE051271026002C7ED06888A08084F8ED
:1074200006A0A88900220099FFF7A0FF002874D1C8
:10743000A8892081288AE081FDE0B5F8129007280C
:1074400025D1E87B000622D5512709F1140086B228
:10745000002CE1D0A88900220099FFF787FF0028BF
:107460007CD16888A08084F806B0A889208184F83F
:107470000EA0288A2082A4F81290A88A009068881A
:107480004B46A969DDF8042001F0A1FBD3E05027A9
:1074900009F1120086B2002C3ED0A8890022029980
:1074A000FFF764FF002859D16888A080A889E08090
:1074B000287A072813D002202073288AE081E87BED
:1074C000C0096073A4F81090A88A01E0B0E0ADE0B4
:1074D000009068884B4604F11202A969D4E70120A4
:1074E000EAE76888042108F0E5FAB5F812A05FEA37
:1074F000000900D1FFDF09F1140004F0E4FB90F073
:10750000010F02D1E87B000627D50AF114005127AC
:1075100086B2002C7FD001E072E01FE06888A08076
:10752000A88900220099FFF721FF002816D184F8CE
:1075300006B0A88920810420A073288A2082A4F89C
:1075400012A0A88A009068885346A969019A01F0A0
:107550003EFBA989A9F80E106DE00320BDE8FE8F5F
:107560006888FBF7BCFD82466888042108F0A2FA0F
:107570008146BAF1000F00D1FFDFB9F1000F00D151
:10758000FFDFB9F81010A1F57F40FF3802D0512776
:10759000142601E05027122694B36888A080502F4B
:1075A00006D084F806B0287B029901F020FB42E067
:1075B000287BA11D01F01BFB00219AF82300CDE9D7
:1075C00000010B46B9F80E2068884946FFF746FDD2
:1075D0000028C3D12FE001E013E01FE0FB49A88998
:1075E000C988814205D1542706264CB16888A080FD
:1075F00021E053270CE06888A080A889E0801AE089
:1076000009E06888042108F055FA00B9FFDF552722
:107610000826002CEFD1A8F8006011E056270726B5
:10762000002CF8D06888A080002012E0FFDF02E084
:10763000012807D0FFDFA8F800600CB12780668022
:1076400000208BE757270726002CE4D06888A0800D
:10765000687AA071EFE7401D20F00300042202EBDE
:10766000400201FB00207047D84B00221A7008B17D
:10767000D74A106007F0C7BB70B50C46064686B007
:1076800015465C21204619F012F905B9FFDFA878EC
:10769000E074AA782988204601F0D2FA0020A0815F
:1076A000E0814FF6FF7020822A8804F114013046F1
:1076B00003F0FFFB6A460121304604F0A9FD19E002
:1076C0009DF80300000715D5BDF806103046FFF7FA
:1076D00017FD9DF80300BDF8061040F010008DF86E
:1076E0000300BDF80300ADF81400FF233046059AEF
:1076F00004F0EFFE684604F097FD0028E0D006B0E5
:1077000070BD70B5064601F114000C46054603F045
:1077100007FC0146E27C204601F0BEFA29463046CD
:10772000BDE8704003F0E7BB70B50546042108F0E2
:10773000C1F9040000D1FFDF04F114012846BDE8BF
:10774000704003F0D1BB2DE9F0418CB00C4680466F
:107750000226FBF7C4FC050014D02878222829D380
:107760000CB1A08898B101208DF8180003208DF885
:107770001C0000208DF81D005CB1A088ADF824002D
:10778000206808E043F202000CB0BDE8F081092057
:10779000FAE7ADF8240008900421404608F08AF981
:1077A000040000D1FFDF04F11400074603F0CFFB13
:1077B000C00601D40820E7E705AA04A903A88DE8BC
:1077C00007003246214640466368FFF7CAFB00B116
:1077D000FFDFDDE903018DE8830095F8232005AB89
:1077E00006A9404603F0B0FF10B1FFF74CFACBE713
:1077F000BDF81420DDE903018DE80700324621467B
:1078000040466368FFF7DAFB4FF6FF7020820020E6
:10781000BAE72DE9F047B2F80290824688B01546E3
:1078200088464846FBF75BFC06460421484608F0BC
:1078300041F904460020059002270690ADF81C008F
:1078400006B9FFDF04B9FFDF3946484605F0A2FA62
:1078500060B907AA06A905A88DE807003A4621469F
:1078600048466368FFF77DFB00B1FFDFDDE90512E5
:1078700004F11400CDF80080CDE9032007ABCDE979
:10788000013196F82320514648466B6803F0A8FB67
:1078900006000AD0022E04D0032E16D0042E00D0EB
:1078A000FFDF08B03046BDE8F087BDF81C000028B7
:1078B000F7D0DDE905120091CDE901203A462146D5
:1078C00048466368FFF77AFBEBE7687840F008000A
:1078D0006870E6E72DE9F04F9BB004464FF00008D2
:1078E0003A48ADF85480ADF83080ADF85080A0F83B
:1078F0000480ADF81480ADF81880ADF82080ADF8A4
:107900001C80007816460D464746012809D00228FB
:1079100007D0032805D0042803D008201BB0BDE8F9
:10792000F08F20460BF08AFBD0BB28460BF086FB7D
:10793000B0BB60680BF0CFFB90BB606848B160895A
:107940002189884202D8B1F5007F01D90C20E5E7F2
:1079500080460BAA06A92846FFF7EFF90028DDD1DB
:1079600068688078C0F34100022808D19DF81900AA
:1079700010F0380F03D028690BF0A4FB80B905A9DB
:107980002069FFF792F90028C8D1206950B16078CA
:1079900080079DF8150000F0380002D5F0B301E033
:1079A00011E0D8BB9DF81400800613D59DF8150092
:1079B00010F0380F03D060680BF084FB18B96068D2
:1079C0000BF089FB30B11020A8E700001003002065
:1079D0001400002007A96069FFF767F900289DD10E
:1079E000606940B19DF81D0000F0070101293BD1FD
:1079F00010F0380F38D008A9A069FFF756F9002811
:107A00008CD19DF81C0080062ED49DF820008006A5
:107A10002AD4A06950B19DF8210000E024E000F0D4
:107A20000701012920D110F0380F1DD0E06818B1EE
:107A30000078C8B11C2817D20EAA611C2046FFF797
:107A4000A3F90120B94660F30F27BA4607468DF81F
:107A50004E0042F60300ADF84C000DF13B0217A9B1
:107A6000286809F0B6FC08B1072057E79DF85C00CC
:107A700016A9CDF80090C01CCDE9019100F0FF0BD4
:107A800000230BF20122514613A804F005FBE8BBCA
:107A9000BDF858000990FE482A8929690092CDE96D
:107AA00001106B89BDF82C202868069904F0F4FABF
:107AB00001007DD120784FF0020AC10601D4800672
:107AC0002BD5ADF80C90606950B907A906A8FFF74F
:107AD0008CF99DF81D0020F00700401C8DF81D005A
:107AE0009DF81C008DF84E7040F0C8008DF81C0009
:107AF00042F60210ADF84C000CA903AACDF800A084
:107B0000CDE90121002340F2032200E01FE013A889
:107B1000079904F0C1FA01004AD1DD484D46001F23
:107B20005B468088ADF839000EA8CDE90290CDF80B
:107B30000490CDF810904FF007090022CDF8009086
:107B4000BDF858104FF6FF7004F0ECF910B1FFF7D4
:107B500064F8E3E69DF83800000625D529460120A3
:107B600060F30F218DF84E704FF42450ADF84C00A7
:107B7000ADF8105062789DF81000002362F3000009
:107B80008DF810006278CDF800A0520862F3410031
:107B90008DF8100004AACDE9012540F2032213A8B4
:107BA00004F07AFA010003D1606888B3206900E02C
:107BB00087E098B905A906A8FFF717F9607880074C
:107BC00006D49DF8150020F038008DF8150005E06A
:107BD0009DF8140040F040008DF814008DF84E70B0
:107BE00042F60110ADF84C00208940F20121B0FBB3
:107BF000F1F201FB1202606814ABCDF80080CDE910
:107C00000103002313A8059904F046FA010058D196
:107C10002078C00729D0ADF80C50A06950B908A948
:107C200006A8FFF7E2F89DF8210020F00700401CAD
:107C30008DF821009DF820008DF84E7040F0400036
:107C40008DF8200042F60310ADF84C0015A903AAE8
:107C5000CDF800A0CDE90121002340F2032213A8B2
:107C6000089904F019FA01002BD1E06868B329469D
:107C7000012060F30F218DF84E7042F60410ADF82C
:107C80004C00E068002302788DF8602040788DF881
:107C90006100E06818AA4088ADF86200E0680079E9
:107CA0008DF86400E068C088ADF86500CDF80090FC
:107CB000CDE901254FF4027213A804F0EDF901009B
:107CC00003D0099801F011F828E671480321001F3C
:107CD000017056B180883080BDF850007080BDF8CA
:107CE0003000B080BDF85400F080002016E670B57A
:107CF00001258AB016460B46012802D0022816D16B
:107D000004E08DF80E504FF4205003E08DF80E5033
:107D100042F60100ADF80C0063B10024601C60F372
:107D20000F2404AA08A9184609F053FB20B1072024
:107D30000AB070BD1020FBE704A99DF8202054482C
:107D4000CDE90021801E02900023214603A802F203
:107D5000012204F0A1F910B1FEF75FFFE8E74C48FB
:107D6000001F0EB14188318005700020E0E7F0B5BA
:107D700093B0074601268DF83E6041F60100ADF84C
:107D80003C0012AA0FA93046FFF7B1FF002848D1E6
:107D90003F4C0025241FE7B31C2102A818F087FDE3
:107DA0009DF808008DF83E6040F020008DF8080036
:107DB00042F60520ADF83C000E959DF83A0011956D
:107DC00020F00600801C8DF83A009DF838006A46C5
:107DD00020F0FF008DF838009DF8390009A920F047
:107DE000FF008DF839000420ADF82C00ADF830000C
:107DF0000EA80A9011A80D900FA80990ADF82E506A
:107E000002A8FFF767FD00280BD1BDF80000E08055
:107E100000E008E0BDF804002081401C608125706E
:107E2000002013B0F0BDE5802581BDF84800F4E7DF
:107E30002DE9F74F1649A0B00024091F17940A78BE
:107E4000A146012A04D0022A02D0082023B066E508
:107E50004A88824201D00620F8E721988A46824269
:107E600001D10720F2E701202146ADF848004FF686
:107E7000FF788DF86E0042F6020B60F30F21ADF82B
:107E80004A80ADF86CB006918DF8724002E00000B7
:107E9000140300201CA9ADF870401391ADF8508078
:107EA00012A804F0E5F900252E462F460DAB072257
:107EB00012A9404604F0DFF978B182285DD195B36C
:107EC0008EB3ADF86450ADF866609DF85E008DF835
:107ED000144019AC012864D06BE09DF83A001FB340
:107EE000012859D1BDF8381059451FD118A809A942
:107EF00001940294CDE9031007200090BDF83610DC
:107F000010230022404604F036FAB0BBBDF86000F2
:107F1000042801D006284AD1BDF8241021988142B6
:107F20003AD10F2092E73AE0012835D1BDF8380068
:107F3000B0F5205F03D042F6010188422CD1BAF897
:107F40000200BDF83610884201D1012700E0002769
:107F500005B19EB1219881421ED118A809AA0194A9
:107F60000294CDE90320072000900D461023002243
:107F7000404604F000FA00B902E02DE04E460BE066
:107F8000BDF86000022801D0102810D1C0B217AA95
:107F900009A909F0FFF950B9BDF8369086E7052028
:107FA00054E705A917A8221D09F013FA08B1032008
:107FB0004CE79DF814000023001DC2B28DF8142078
:107FC00022980092CDE901401BA8069904F064F8BC
:107FD00010B902228AF80020FEF71FFE36E710B51E
:107FE0000B46401E88B084B205AA00211846FEF751
:107FF000CBFE00200DF1080C06AA05A901908CE823
:108000000700072000900123002221464FF6FF7051
:1080100003F088FF0446BDF81800012800D0FFDFF8
:108020002046FEF7FAFD08B010BDF0B5FF4F04463C
:1080300087B038780E46032804D0042802D00820E0
:1080400007B0F0BD04AA03A92046FEF776FE05009E
:10805000F6D160688078C0F3410002280AD19DF80B
:108060000D0010F0380F05D020690BF02BF808B187
:108070001020E5E7208905AA21698DE807006389BA
:10808000BDF810202068039904F006F810B1FEF73F
:10809000C4FDD5E716B1BDF8140030800420387057
:1080A0002846CDE7F8B50C0006460CD001464FF641
:1080B000FF7500236A46284604F0DFF928B100BFA7
:1080C000FEF7ABFDF8BD1020F8BD69462046FEF76F
:1080D000ECFD0028F8D1A078314600F001032846D5
:1080E000009A04F0F6F9EBE730B587B014460022A9
:1080F0000DF1080C05AD01928CE82C0007220092CE
:108100000A46014623884FF6FF7003F00BFFBDF8C7
:1081100014102180FEF781FD07B030BD70B50D460B
:10812000042107F0C7FC040000D1FFDF294604F159
:108130001400BDE8704002F003BF70B50D46042185
:1081400007F0B8FC040000D1FFDF294604F1140059
:10815000BDE8704002F017BF70B50D46042107F06E
:10816000A9FC040000D1FFDF294604F11400BDE89A
:10817000704002F02FBF70B50546042107F09AFC4D
:10818000040000D1FFDF214628462368BDE8704087
:108190000122FEF737BF2DE9F0478246042107F0A0
:1081A00089FC040000D1FFDF04F1140002F0B8FEE6
:1081B000401D20F0030626E0011D00880022431820
:1081C00021465046FEF71EFF002820D0E07CA5681F
:1081D00070431FFA80F82888B7B2814610FA86F0FB
:1081E00080B22880404502D3A0EB08002880688830
:1081F000B84200D2FFDF09EB0701414500D9FFDF9C
:108200006888C01B6880A06841880029D4D1BDE877
:10821000F08770B50546042107F04CFC040000D13E
:10822000FFDF214628466368BDE870400222FEF762
:10823000E9BE70B50E46054601F067F9040000D1AD
:10824000FFDF0120207266726580207820F00F0029
:10825000001D20F0F00040302070BDE8704001F0BB
:1082600057B910B50446012900D0FFDF2046BDE80C
:1082700010400121FAF7BBB82DE9F34F9BB04FF046
:10828000000B0C00ADF81CB05E461BD0E06830B1AE
:10829000A068B8B10188ADF81C10A0F800B01B9818
:1082A000FAF71DFF5FEA000943F2020769D099F867
:1082B0000000222863D304211B9807F0FBFB050074
:1082C00005D103E010201DB0BDE8F08FFFDF05F100
:1082D0001400109002F024FE401D20F00308A07846
:1082E000012803D0022801D00720ECE7208878B1CC
:1082F000401C81B20BAA1B9803F08AFF0BA803F065
:1083000093FF9DF836204FF45051012A0DD102E021
:1083100043F20300D7E7BDF83420A2F52453023B13
:1083200003D1822801D0A0B901E00846CBE7E0687C
:10833000B0B1CDE902B0072007AA0090CDF804B093
:108340000492A2882188BDF81C301B9803F0EAFD36
:1083500010B1FEF762FCB6E7A168BDF81C0008800A
:108360009DF82F00C00602D543F20140ABE70F98FD
:1083700038B1A1780078012905D080072AD40820D7
:10838000A1E738469FE7C007F9D0002003900220FC
:108390008DF84C00A868EA7C418802FB08F28A420A
:1083A0001ED9031D0A93008896B247181FFA88FA4F
:1083B000B74200D3BF1B01EB0A00B04200D9FFDF78
:1083C00007EB0A00B04200D9FFDF0A98C619A6F8E9
:1083D00000B005E00120039003208DF84C002E68CA
:1083E0009DF8300010F0380F00D1FFDF9DF830000D
:1083F0000F49C0F3C200084410F8011C99F823008B
:10840000814201D90F205EE72088ADF8500008AA0C
:1084100006A905A88DE8070033462946039A1B984C
:10842000FEF79FFD002896D104E000001003002015
:10843000FA2F0000DDE90501109A8DE8070008AB6E
:10844000072213A91B9803F07FF910B1FEF71BFC5C
:1084500039E7BDF82020DDE905018DE80700334646
:108460002946039A1B98FEF7A9FD0598D0B9A07874
:10847000012817D1E87CAC6800FB08F086B221889F
:1084800060881FFA88F70D18B54200D3AD1B384439
:10849000B04200D9FFDFE819B04200D9FFDF6088A1
:1084A0003844608000200EE770B5064615460C463D
:1084B0000846FEF771FB002805D12A4621463046C2
:1084C000BDE8704013E470BDB2E470B51E461446BA
:1084D0000D0009D044B1616831B138B1FE49498815
:1084E000814203D0072070BD102070BD2068FEF7C8
:1084F00053FB0028F9D1324621462846BDE870409A
:10850000FFF7E8B970B515460C0006D038B1F2494E
:108510008988814203D0072070BD102070BD20687B
:10852000FEF73AFB0028F9D129462046BDE8704005
:108530007BE570B5064686B00D46144610460AF037
:10854000A3FDD0BB60680AF0C6FDB0BBA6F57F40B6
:10855000FF3803D03046FAF7C2FD80B1284669469D
:10856000FEF765FC00280CD19DF810100F2008299B
:108570003CD2DFE801F008060606060A0A0843F2C4
:10858000020006B070BD0320FBE79DF80210012930
:1085900008D1BDF80010B1F5C05FF2D06FF4C05241
:1085A000D142EED09DF8061001290DD1BDF804107E
:1085B000A1F52851062907D200E028E0DFE801F004
:1085C000030304030303DCE79DF80A1001290ED11D
:1085D000BDF80810B1F5245FD3D0A1F524510239BC
:1085E000CFD00129CDD0022901D1CAE7FFDF6068D1
:1085F00078B9002305AA2946304603F03EFF10B1A2
:10860000FEF70BFBBDE79DF81400800601D4102097
:10861000B7E76188224628466368FFF765FDB0E743
:108620002DE9F043814687B08846144610460AF08B
:108630002BFD18B1102007B0BDE8F083002306AA77
:108640004146484603F019FF18B100BFFEF7E5FAAE
:10865000F1E79DF81800C00602D543F20140EAE7B1
:108660000025072705A8019500970295CDE903503D
:1086700062884FF6FF734146484603F07CFE0600D1
:1086800013D160680AF000FD60B960680195CDE91A
:10869000025000970495238862884146484603F0BB
:1086A0006AFE0646BDF8140020803046CEE739B198
:1086B000894B0A881B899A4202D843F2030070470B
:1086C000DAE510B586B0844C0423ADF81430E388A5
:1086D00043B124898C4201D2914205D943F203006F
:1086E00006B010BD0620FBE7ADF810100021009188
:1086F0000191ADF8003002218DF8021005A9029118
:1087000004A90391ADF812206946FFF7B5FDE7E72C
:108710002DE9FC4781460F4608460AF08FFC88BBCE
:108720004846FAF7DCFC5FEA00080AD098F8000037
:10873000222829D30421484607F0BCF9060005D1B8
:1087400003E043F20200BDE8FC87FFDF06F11400FE
:1087500002F0FDFB05463878012803D0022804D03A
:108760000720F0E7A8070FD502E015F0340F0BD073
:10877000B8793C1DC00709D0E08838B1A0680AF07C
:108780005DFC18B11020DEE70820DCE73A7820888D
:10879000002128B3A0F201130721112B18D20CD20B
:1087A000DFE803F00B090D0B1D0B121D100B0B1D49
:1087B0001D1D1D0B1D00022A11D10846C3E7012A09
:1087C000FBD00CE0EA0600E0AA06002AF5DA06E093
:1087D000A0F5C0721F2A02D97D3A022AEDD8C1B293
:1087E00098F82300CDE90001F28923463146484636
:1087F000FEF734FCA7E72DE9F04F8BB01F46154676
:108800000C4683460026FAF76AFC28B10078222835
:1088100005D208200BB057E543F20200FAE7B8088A
:1088200001D00720F6E7032F00D100274FF6FF798C
:10883000CCB1022D71D320460AF04DFC30B904EBC7
:108840000508A8F101000AF046FC08B11020E1E794
:10885000AD1EAAB22146484603F009FF38F8021CB3
:1088600088425AD1ADB21C49B80702D50889401CCC
:1088700000E001201FFA80F8F80701D00F8900E01E
:108880004F4605AA4146584603F0C2FC4FF0070A7E
:108890004FF00009FCB1204608E0408810283CD881
:1088A000361D304486B2AE4237D2A0190288424506
:1088B000F3D352E09DF8170002074ED57CB304EBCA
:1088C0000608361DB8F80230B6B2102B25D89A1912
:1088D000AA4222D802E040E010030020B8F80020AD
:1088E00091421AD1C0061BD5CDE900A90DF1080CA3
:1088F0000AAAA11948468CE80700B8F8001000221F
:10890000584603F00FFB10B1FEF787F982E7B8F87D
:108910000200BDF82810884202D00B207AE704E05C
:10892000B8F80200304486B206E0C00604D55846C6
:10893000FEF7E6FB00288AD19DF81700BDF81A1053
:1089400020F010008DF81700BDF81700ADF80000FA
:10895000FF235846009A03F0BCFD05A803F064FC11
:1089600018B9BDF81A10B942A4D90421584607F025
:10897000A1F8040000D1FFDFA2895AB1CDE900A916
:108980004D46002321465846FEF768FB0028BDD11E
:10899000A5813FE700203DE72DE9FF4F8BB01E4644
:1089A00017000D464FF0000412D0B00802D0072087
:1089B0000FB089E4032E00D100265DB108460AF00D
:1089C00081FB28B93888691E08440AF07BFB08B18E
:1089D0001020EDE7CA4AB00701D5518900E0012116
:1089E000F0074FF6FF7802D05089401E00E0404665
:1089F00086B206AA0B9803F00BFC4FF000094FF06B
:108A0000070B0DF1140A38E09DF81B00000734D560
:108A1000CDF80490CDF800B0CDF80890CDE9039AD8
:108A2000434600220B9803F0A6FC60BB05B3BDF8DB
:108A300014103A8821442819091D8A4230D3BDF800
:108A40001E2020F8022BBDF8142020F8022BCDE9BF
:108A500000B9CDE90290CDF810A0BDF81E10BDF808
:108A6000143000220B9803F086FC08B103209FE726
:108A7000BDF814002044001D84B206A803F0D4FB06
:108A800020B1822806D0FEF7C8F891E7BDF81E1085
:108A9000B142B9D934B17DB13888A11C884203D222
:108AA0000C2085E7052083E722462946404603F04F
:108AB000DEFD014628190180A41C3C80002077E7D8
:108AC00010B504460AF0E0FA08B1102010BD8C4839
:108AD00040892080002010BD2DE9F0438DB00D4667
:108AE00081464FF00208142106A817F0E0FE012687
:108AF0008DF81C6000208DF81D008DF81860ADF811
:108B000020504846FAF7EBFA48B10078222812D3F1
:108B10000421484606F0CEFF040005D103E043F2ED
:108B200002000DB088E5FFDF04F11400074602F0F3
:108B30000EFA400601D40820F3E705AA04A903A809
:108B40008DE807004246214648466368FEF709FA69
:108B500000B1FFDFDDE903018DE8830005AB0722EB
:108B600006A9484602F0F0FD10B1FEF78CF8D8E7F0
:108B7000A674BDF81420DDE903018DE80700424624
:108B8000214648466368FEF719FA29464846F9F730
:108B90001FFC0BA9384602F0C9F900B1FFDFBDF890
:108BA0002C40172C01D2172000E02046A84201D902
:108BB0002C4602E0172C00D2172421464846FFF726
:108BC000BCFA21464846F9F737F90020A9E7F8B57D
:108BD0001C4615460E46069F07F077F82346FF1DF4
:108BE000BCB231462A46009406F0D5FCF8BD70B5FB
:108BF0000C4605460E21204617F037FE0020208047
:108C00002DB1012D01D0FFDF70BD062000E0052051
:108C1000A07170BD10B548800878144620F00F0090
:108C2000001D20F0F00080300B4608701422214611
:108C300003F1080017F0E7FDBDE8104000F068BC44
:108C40002DE9F0472F4F491D064621F003019146BB
:108C50000C46386806F0EEF8050000D1FFDF4FF053
:108C600000083560A5F800802146386806F0E2F873
:108C7000050000D1FFDF7560A5F8008004FB09F155
:108C8000091D386806F0D6F8040000D1FFDFB46093
:108C9000C4F80080BDE8F0872DE9F041491D21F0BE
:108CA0000304184D1746064601682246286806F058
:108CB000EAF822467168286806F0E5F87C43221D30
:108CC000B168286806F0DFF8042006F09DFE04462F
:108CD000042006F0A1FE201A012804D12868BDE86E
:108CE000F04106F098B8BDE8F08110B50C4603F0ED
:108CF0005CFA00B1FFDF2046BDE81040FDF78DBFF4
:108D00001003002014000020F0B59BB00546592048
:108D10008DF80000281DADF80400ADF806101E46C1
:108D200017460BA9684603F029FC00B1FFDFBDF828
:108D30003040032C01D2204600E00320C1B2284677
:108D400000F07EFF3870022C00D30224E1B22846E6
:108D500000F076FF401C30701BB0F0BD2DE9F04FE5
:108D60000C00FC499DB08246D1E90201FA4ECDE9E2
:108D70000C010AF10300717A327A1144CDB220F06D
:108D800003010091377E07F1010704D1F8B208F022
:108D9000A7FA00B1FFDF00982A4600EB0710C01CBD
:108DA00020F00301F7694FF00009009134B981F810
:108DB0000090B8B203F081F800B1FFDF00982346BD
:108DC00038440090B07A317A2A460844C1B26846E5
:108DD00000F0FEFE0098C01C20F003000090737AA3
:108DE000327AB17A04B1002006F056FD00990844A9
:108DF00000902146684600F02EFF00273D46B3460E
:108E000096F801800CE0284600F0C5FE0646817801
:108E10008088F9F7ABF871786D1C00FB0177EDB233
:108E20004545F0D10098C01C20F00300009004B12B
:108E300000203946F9F7A1F800990027084400906E
:108E40003D469BF801800CE0284600F0A4FE064653
:108E5000C1788088FEF7FFFB71786D1C00FB0177FD
:108E6000EDB24545F0D10098C01C20F00300009001
:108E700004B100203946FEF7F7FB00990844C01DF5
:108E800020F007000090ECBBB54AB4491160111DF9
:108E9000401E086001223C21B24806F08EFCFAF721
:108EA0007EF8B1484178806804F00FF9AE4801249B
:108EB0000C300178012915D144218DF80410C078B7
:108EC0008DF8080010B1012803D004E08DF80840A7
:108ED00001E08DF8089001A805F047FE10B10EA83A
:108EE00004F0B3F900211E22084601F0F7F9FBF760
:108EF000AFF803F018FD98480CAA00210C30F8F7E1
:108F000029FA00E01DE000B1FFDF9BF81900FEF731
:108F10002EFF00B1FFDF90484FF4B871443017F0D6
:108F2000C6FC8D480221443080F8694180F86A11FE
:108F300080F86B1180F86C91062180F86D11052185
:108F4000017100991DB0A1EB0A00BDE8F08F70B56A
:108F5000814D06464435287805EB4014E8780834FE
:108F6000A0B9A81990F86801002810D0A8780B289B
:108F700000D3FFDF207820F0FF002070607866F3D8
:108F8000020020F0080060700120E870204670BDEB
:108F90002DE9F04105460C46002700780521904652
:108FA0003E46B1EB101F00D0FFDF287A50B10128F8
:108FB0000ED0FFDFA8F800600CB12780668000208B
:108FC000BDE8F0810127092674B16888A08008E017
:108FD0000227142644B16888A0802869E060A88A26
:108FE0002082287B2072E5E7A8F80060E7E710B54B
:108FF0005D4C6068C11D21F00701814200D0FFDF98
:10900000554801210022017042700172032343720E
:1090100081720273052282821F22C282417353A28F
:1090200002610A22027641764FF4B061C161616843
:10903000416010BD30B54C4C1568636808339D42E3
:1090400002D20420136030BD434B5D785A6802EBB6
:10905000C502107051700320D0801720908001202D
:10906000D07090705878401C58706068083060600C
:10907000002030BD70B5064637480024457807E02B
:10908000204600F088FD0178B14204D0641CE4B2AF
:10909000AC42F5D1002070BDF7B5064608780C4605
:1090A00050B1FFF7E7FF0546202E07D0232E17D03B
:1090B000212E18D0222E16D00720FEBD00F076FDFE
:1090C0000DB1697800E00021401A81B2A078014416
:1090D000FF29F1D80028EFD0A088022803D2EBE7BF
:1090E00060881728E8D365B9207802AA0121FFF724
:1090F000A1FF0028E1D12078FFF7BCFF050000D1D7
:10910000FFDF202E08D0212E0ED0222E0FD0232EAE
:1091100007D0FFDF0020FEBDA0786870A088E8803F
:10912000F8E76088A880F5E7A078A870F2E7A07853
:10913000E870EFE700B59BB055218DF8001000787E
:109140000BA900F001008DF80400684603F016FA40
:109150001BB000BD740C0200280400200000002099
:1091600000060240DC0500201C0000206E5246353F
:109170007800000000B501789BB001F001018DF886
:109180000410417801F001018DF805100178C1F358
:1091900040018DF806104178C1F340018DF80710A9
:1091A000017889088DF80810417889088DF8091030
:1091B00081788DF80A10C1788DF80B1000798DF840
:1091C0000C004F208DF800000BA9684603F0D6F97B
:1091D000BEE700B59BB058218DF80010ADF8040033
:1091E0000BA9684603F0CAF900B1FFDF9DF8300013
:1091F00000F00100ACE72DE9F84FDFF8F483FD4CF7
:1092000000271BE0022000F066FD0120FFF79FFE13
:109210000546F94806F0FAFA686000B9FFDF6868A9
:1092200003F0F9F9A0B12846FAF7C7F9284600F08B
:1092300058FD18B9F048696806F0F1FA94F8690128
:109240000028DFD1022006F0DFFB064600259AE069
:10925000E948696806F0E3FAF4E7B8F80210404616
:10926000491C89B2A8F80210B14201D30021418003
:109270000221B8F8020006F01DFC00285DD0B8F805
:109280000200FFF7A6FF78B1B8F8020006F02FFD44
:109290005FEA000900D1FFDF484605F0E2FF18B1A0
:1092A000B8F8020003F04FFDB8F8020006F00DFD1B
:1092B0005FEA000900D1FFDF484605F0CBFFE0BBC5
:1092C0000321B8F8020006F0F5FB5FEA000B47D176
:1092D000FFDF45E0DBF8040010B10078FF2848D03C
:1092E000042000F0F8FC0320FFF731FE82464846D8
:1092F00006F0E2F8CAF8040000B9FFDFDAF804006B
:1093000006F0BCF9002100900170B8F80210504638
:10931000AAF8021003F094FB484606F0B1F900B930
:10932000FFDF504600F0DDFC18B99AF80100000795
:1093300004D50099CBF8041012E022E0DBF8040019
:1093400038B10178491C11F0FF01017008D1FFDF2D
:1093500006E000221146484600F01BFC00B9FFDF82
:1093600094F86B0128B1B8F8020003F044FB002820
:10937000B0D194F8690120B1484606F0F7F900B180
:1093800001276D1CEDB2B54204D294F86B010028A0
:109390007FF463AF002F7FF433AFBDE8F84F0520B3
:1093A00000F099BC10B5924CA0600868E060AFF284
:1093B000B91000F006FF607010BD8E4800214438DF
:1093C00001708B4801708D494160704730B505468A
:1093D0004FF080500C46D0F8A4109BB0491C05D12A
:1093E000D0F8A810C9430904090C08D050F8A01FF0
:1093F00001F0010129704168216080680EE02B2096
:109400008DF800000BA9684603F0B8F800B1FFDF43
:10941000012028700C982060BDF83400A0802878C6
:10942000002803D0607940F0C00060711BB030BDEF
:10943000F0B54FF080540746D4F880009BB00D463D
:109440002B26401C0BD1D4F88400401C07D1D4F843
:109450008800401C03D1D4F88C00401C0BD0D4F8F9
:1094600080003860D4F884007860D4F88800B86050
:10947000D4F88C0016E08DF83C6069460FA803F024
:109480007DF800B1FFDF01983860029878608DF8B0
:109490003C6069460FA803F071F800B1FFDF019846
:1094A000B8600298F860D4F89000401C0BD1D4F852
:1094B0009400401C07D1D4F89800401C03D1D4F884
:1094C0009C00401C08D054F8900F286060686860C9
:1094D000A068A860E06816E08DF800600BA96846F7
:1094E00003F04CF800B1FFDF0C9828600D9868601D
:1094F0008DF800600BA9684603F040F800B1FFDF6B
:109500000C98A8600D98E86026E43A4800791EE5BA
:1095100070B5384CE07828B3207804EB4010407ADE
:1095200000F00700204490F8680100B9FFDF2078C0
:10953000002504EB4010407A00F00700011991F873
:109540006801401E81F868012078401CC0B220707C
:109550000B2800D12570A078401CA07009F007F9F5
:10956000E57070BDFFDF70BD3EB50546032106F016
:10957000A1FA0446284606F0A8FB054604B9FFDF19
:10958000606818B10078FF2800D1FFDF01AA6946A2
:10959000284600F0FEFA60B9FFDF0AE0002202A9C7
:1095A000284600F0F6FA00B9FFDF9DF8080000B188
:1095B000FFDF9DF80000411E8DF80010EED26068BC
:1095C0000199884201D1002060600A4C94F86B0137
:1095D000022800D3FFDF94F86B0118B904484078E3
:1095E00000F00EFE94F86B01401C84F86B013EBD48
:1095F0001C0000206C040020DC050020101300205B
:1096000070B50546A0F57F400C46FF3800D1FFDF5E
:10961000012C01D0FFDF70BDFFF777FF040000D100
:10962000FFDF207820F00F00401D20F0F0005030C8
:10963000207065800020207201202073BDE87040FA
:1096400066E770B515460C460646FFF75EFF90B11B
:10965000017821F00F01491D21F0F0015031017016
:1096600046800121017221680161A1888182057310
:10967000BDE870404CE73046BDE870401321FBF771
:10968000D4B830B59DB0FFF7F5FC040000D1FFDF82
:10969000A588E1880BAB0CAA2846FFF735FB5420C0
:1096A0008DF800009DF830008DF804009DF82C0026
:1096B0002D1D8DF80500ADF80650ADF80850E08876
:1096C000ADF80A000DA9684602F058FF002800D046
:1096D000FFDF1DB030BD2DE9F84FF94E05464FF0C4
:1096E000000A307810B10820BDE8F88F284609F04C
:1096F000CBFC08B11020F7E7F24C207808B9FFF74F
:1097000076FC617A207A0844C4B200F04FFAA04295
:1097100008D2201AC1B22A460020FFF78BFC5FEA6C
:10972000000AE1D1E6484FF00009C84641684F46BB
:10973000C91C21F003014160E248CDF800904E467B
:109740004C4690F801B00EE0204600F024FA417833
:10975000827809F10109884412FB0177C07810FB77
:109760000166641CE4B25C45EED10098D54C00EB78
:10977000890000EBC80000EB8700217A00EB86002F
:1097800000EBC100617ADFF8388300EBC100A17AF9
:1097900000EBC100D8F80410471801213846FFF744
:1097A000DDFA064629683844884202D8B6F5803F7B
:1097B00013D328600020FFF75DFC60B1D8F80410D7
:1097C00045460839814200D0FFDF6078401E607056
:1097D000686808386860042086E700213846FFF78B
:1097E000BDFA0446A64200D0FFDFE119C8F8041014
:1097F00029604FF6FF71A8F80210012188F80010C7
:10980000504671E72DE9F0410446AD4817460D4634
:10981000007810B10820BDE8F081084609F00EFC80
:1098200008B11020F7E7A74E307808B9FFF7DFFB43
:10983000601E1E2807D8012C3FD12878FE283CD86E
:1098400030760020E7E7A4F120001F2805D8E0B219
:109850003A462946BDE8F0411EE4A4F140004FF02D
:1098600000081F2821D8402C02D0412C25D117E018
:10987000687829784418A97881421ED8FF2C08D826
:1098800007F012FF074608F031FF381A801EA04289
:1098900001DA1220BFE728883081A878B07224E06E
:1098A0002846BDE8F04100F042BAA4F1A0001F280C
:1098B00003D8A02C03D0A12C06D00720ABE7287832
:1098C00000F00100707610E029680920F829A2D381
:1098D0008A07A0D1727B02F00302012A04D1F28A26
:1098E000D73293B28B4296D8F161404693E72DE987
:1098F000F04707460C46084609F0C6FB40B9384613
:1099000009F0E0FB20B9F81C20F00300B84202D0B7
:109910001020BDE8F0876B484FF000084430817894
:1099200089B14178824600EB4115B4F8009015F8F2
:10993000080F234600F00F000022294600F0DFF94F
:10994000060004D013E0A4F800800520E1E797B1F9
:109950002188494501D90C260DE02878234600F0DE
:109960000F003A46294600F0CAF9060005D00C2E31
:1099700001D0A4F800803046CBE79AF801005446A5
:10998000401CC0B28AF801000B2801D184F8018084
:10999000A078401EA070697801F00700062827D241
:1099A000DFE800F026091E031E1E0807E3D46888BE
:1099B000FFF7DAFDDFE74448696805F030FF94F807
:1099C000690130B93E48407800F01AFC94F869010A
:1099D00000B1FFDF94F86901401C84F86901CAE70F
:1099E00000EB0A0191F86801401C81F86801C2E7A8
:1099F000FFDFC0E770B50D46044609F01FFB18B93C
:109A0000284609F041FB08B1102070BD29462046C8
:109A1000BDE8704007F09BBC70B5044615460E4685
:109A2000084609F00BFB18B9284609F02DFB08B1D0
:109A3000102070BD022C03D0102C01D0092070BD65
:109A40002A463146204607F0A5FC0028F7D005201D
:109A500070BD70B514460D46064609F0EFFA38B9E8
:109A6000284609F011FB18B9204609F02BFB08B174
:109A7000102070BD22462946304607F0AAFC002877
:109A8000F7D0072070BD10B59AB0044609F0FCFA73
:109A900010B110201AB010BD0F208DF800000BA9D6
:109AA000684602F06BFD0028F4D19DF83400207068
:109AB000BDF836006080BDF83800A0800020E9E7DE
:109AC0001C00002028040020DC05002070B505469D
:109AD0000C46084609F0F6FA20B93CB1206809F0B6
:109AE000D3FA08B1102070BDA08828B121462846BD
:109AF000BDE87040FDF727BE092070BD70B5044673
:109B00000D46084609F09AFA30B9601E1E2814D88E
:109B1000284609F093FA08B1102070BD022C01D933
:109B2000072070BD04B9FFDFA64800EB840050F8A1
:109B3000041C2846BDE870400847A4F120001F28F7
:109B4000EED829462046BDE87040FAF79BB970B5BB
:109B500004460D46084609F097FA30B9601E1E28E3
:109B60000DD8284609F06AFA08B1102070BD012C02
:109B700001D0022C01D1062070BD072070BDA4F1D8
:109B800020001F28F9D829462046BDE87040FAF782
:109B900022BA05F01ABB30B58B4D04466878A04256
:109BA00000D8FFDF686800EBC40030BD70B58648A0
:109BB00000252C46467807E02046FFF7ECFF40786A
:109BC000641C2844C5B2E4B2B442F5D1284670BD45
:109BD0002DE9F0410646022012B101EB4200401D82
:109BE000C7B23068C01C20F0030232601BBB76484D
:109BF0003B460921203009F00DF9002408E0092C2A
:109C000011D2DFE804F005070509090B0B05050073
:109C10006E4804E06E4802E06E4800E06E4809F0CD
:109C200019F9054600E0FFDFA54200D0FFDF641C04
:109C3000E4B2092CE3D3306800EB07103060EAE5AA
:109C4000001D4143452900D24521491EB1FBF0F0DA
:109C5000401CC0B270472DE9FC5F06465A484FF0E1
:109C600000088B464746454690F801901FE028467D
:109C7000FFF791FF040000D1FFDFB4F804A0E188F2
:109C800001AB6A465046FFF73FF860789DF8043014
:109C90003844C7B20AF1040081B280B29DF80020B6
:109CA00005F05EFF62786D1C00FB0288EDB24D4549
:109CB000DDD13068C01C20F003003060BBF1000F24
:109CC00000D000204246394605F058FF316808446C
:109CD0003060BDE8FC9F3C49443108710020C870E9
:109CE000704739494431CA782AB10A7801EB4211E8
:109CF0000831814201D001207047002070472DE9D2
:109D0000F041044600201880601E1D4616460F468E
:109D1000052800D3FFDF2B482A46103000EB8400D3
:109D2000314650F8043C3846BDE8F041184738B594
:109D30000446407800F00300012803D002280BD02D
:109D4000072038BD606858B109F0C5F9D0B960681E
:109D500009F0B8F920B915E0606809F06FF988B921
:109D600069462046FCF77BF90028EAD1607800F0CC
:109D70000300022808D19DF8000028B1606809F0AE
:109D8000A1F908B1102038BD6189F8290DD82089C2
:109D900088420AD8607800F003020B48012A06D1F5
:109DA000D731C26989B28A4201D2092038BD94E80C
:109DB0000E0000F10C0585E80E000AB90021818231
:109DC000002038BD740C020028040020F13C000083
:109DD0006DC90000892F00009310010010B5EFF34A
:109DE000108000F0010472B6E9484178491C4170C6
:109DF0004078012801D108F0D9FC002C00D162B6CE
:109E000010BD70B5E24CE07848B90125E570FFF768
:109E1000E5FF08F0D3FC20B1002008F0AFFC0020E3
:109E200070BD4FF080406571C0F80453F7E770B51E
:109E3000EFF3108000F0010572B6D54C607800B9E0
:109E4000FFDF6078401E6070607808B908F0B2FCEF
:109E5000002D00D162B670BDCD4810B5C17821B1DA
:109E600000214171C170FFF7E2FF002010BD10B565
:109E7000044608F0A3FCC649C978084000D0012078
:109E80002060002010BD2DE9F05FDFF804934278D8
:109E9000817889F80620002689F80710074689F896
:109EA00008600078354620B101280FD002280FD075
:109EB000FFDF08F090FC98B108F094FCB0420FD19D
:109EC000304608F093FC0028FAD047E00126F0E77E
:109ED000FFF784FF08F072FC0028FBD00226E8E7B9
:109EE00001208407E060C4F80451AA490E6001070C
:109EF000D1F84412A74AC1F3423124321160A54976
:109F00004FF0020B34310860C4F804B3A060DFF8EE
:109F100088A2DAF80010C94341F3001101F10108E9
:109F2000DAF8001041F01001CAF8001000E020BF7C
:109F3000D4F804010028FAD0304608F057FC002875
:109F4000FAD0B8F1000F05D1DAF8001021F01001B5
:109F5000CAF80010C4F808B3C4F8045199F807000F
:109F60004C4670B1387860B908F028FC074608F014
:109F700019FE6FF0004117B1C4E9031001E0C4E914
:109F8000030116B12571BDE8F09F0127BE072771B7
:109F90004FF01908C6F80883B761C6F80051C6F833
:109FA0000C51C6F8105108F009FC10B1A7703761C8
:109FB00000E02770FFF712FF7649A0792031086092
:109FC000C6F80483DFE770B5050000D1FFDF4FF06E
:109FD00080424FF0FF30C2F808030021C2F80011A0
:109FE000C2F80411C2F80C11C2F81011684C61706B
:109FF00008F0EAFB10B10120E07060702846BDE86F
:10A00000704040E72DE9F041614C4FF08047012559
:10A01000E079F0B1012803D0217A401E814218DA9C
:10A0200008F0CCFB064608F0BDFDE179012902D914
:10A03000217A491C21720EB1216900E0E168411AC0
:10A04000022902DA11F1020F0BDC0EB1206100E0EF
:10A05000E060FFF7C3FE08F0B1FB28B13D61A570D9
:10A0600003E07D61BDE8F081257000202072F9E7F2
:10A070002DE9F05F4948D0F800B0484A4849083215
:10A0800011608406D4F8080110B14FF0010801E016
:10A090004FF00008D4F8000100B101208146D4F847
:10A0A000040108B1012600E00026D4F80C0100B13B
:10A0B00001208246D4F8100108B1012700E00027F2
:10A0C00048EA090126EA010020EA0A00B84300D064
:10A0D000FFDF0025B8F1000F04D0C4F808510120BB
:10A0E00008F04CFB5FEA0900DFF8A4804FF001099B
:10A0F00013D0C4F8005198F8050020B188F8055035
:10A10000002008F03BFB98F8000030B108F056FB47
:10A1100018B188F80290C4F810900EB1C4F8045138
:10A12000BAF1000F0CD0C4F80C5198F80200464662
:10A1300000B9FFDFB5703570C4F81490FFF777FEF3
:10A1400037B1C4F8105198F8040008B1FFF75AFF6E
:10A150001249091DC1F800B015E770B50C4DE8783B
:10A1600008B908F027FB01208407A061A87850B146
:10A17000D4F80C0120B9002008F038FB0028F7D1F2
:10A180000020C4F80C014FF0FF30C4F8080370BD84
:10A19000300000201805004010ED00E010050240DE
:10A1A000010000014FF0E0214FF00070C1F8800184
:10A1B000C1F88002384B802283F80024C1F80001E6
:10A1C000704700B502460420344903E001EBC003A8
:10A1D0001B792BB1401EC0B2F8D2FFDFFF2000BDBB
:10A1E00041F8302001EBC00100224A718A7101223E
:10A1F0000A7100BD294A002102EBC00001717047BD
:10A2000010B50446042800D3FFDF244800EBC40443
:10A210002079012800D0FFDF6079A179401CC0B20D
:10A22000814200D060714FF0E0214FF00070C1F822
:10A23000000210BD2DE9F041194805681849194878
:10A24000083108601448042690F80004134F4009B0
:10A25000154C042818D0FFDF16E0217807EBC10069
:10A260000279012A08D1427983799A4204D042794D
:10A27000827157F8310080472078401CC0B22070AE
:10A28000042801D300202070761EF6B2E5D20448DF
:10A29000001D0560BDE8F08119E000E01C0600200B
:10A2A000100502400100000144000020F8B51D46E1
:10A2B000DDE906470E000AD005F019FD2346FF1D13
:10A2C000BCB231462A46009405F09EF9F8BDD0197B
:10A2D0002246194616F052FA2046F8BDF84B58604F
:10A2E00019721A80C90016F0E2BA70B50D4604461C
:10A2F000102116F0BAFA258117206081A07B40F06A
:10A300000A00A07370BD4FF6FF720A800146032059
:10A3100008F050BE704700897047827BD30701D197
:10A32000920703D480890880002070470520704779
:10A33000827B920700D58181704701460020098801
:10A3400047F2FE12114200D00120DD49497A00296E
:10A3500001D040F00800704700B50346807BC0077D
:10A3600001D0052000BD59811846FFF7E6FFC00760
:10A3700003D0987B40F004009873987B40F0010074
:10A380009873002000BD827B520700D509B1408937
:10A39000704717207047827B61F3C3028273704756
:10A3A0002DE9F04F0E46017804464FF0010B0BFAF1
:10A3B00001F047F2FF1100EA010961684FF6FF78EA
:10A3C00087B008881D469646404506D0B9F1000F73
:10A3D00007D047F2FE12104203D0012007B0BDE8BB
:10A3E000F08F40EA090008804FF0000A95B185F827
:10A3F00000A022780027052003210223102A6FD213
:10A40000DFE802F06E0D2C35546F768054CBC79C7C
:10A41000CFFEFDFC20780B28EBD00420DEE762683D
:10A420002089937B9B077DD5172851D313898342BD
:10A43000FBD39289172A01D3824249D12A7822F08C
:10A440003F02921C2A70A5F8010031806168888162
:10A450006068817B21F00201817342E1042129704F
:10A460002189A5F801106189A5F803108FE0208AE1
:10A470003188C01D1FFA80F84145D6D306202870C8
:10A480002089A5F801006089A5F80300A089A5F836
:10A4900005000721208ACDE9000160882A4671461F
:10A4A0006369FFF703FFA6F800801AE1082A10D0BD
:10A4B000082129702189A5F801106189A5F80310E8
:10A4C00030806A1D694604F10C0006F082FF10B16D
:10A4D000CCE01021EDE730889DF80010084456E0EC
:10A4E0000EE10A2028702089A5F801003180B2E031
:10A4F0000C2129702189A5F801106189A5F80310A4
:10A500003080A8E0218933880BEB41021FFA82FAE0
:10A51000534576D3BAF1050F73D30E222A7008EA99
:10A52000410100E07FE0CDE9001B60882A467146CA
:10A53000E368FFF7BBFEA6F800A0D2E06048417ACE
:10A54000002970D0491E41724068217AE26800EB10
:10A55000C105D046A9882868D2F800C00844A0F1F7
:10A56000080140F808CC506848608DF800308DF83C
:10A5700001A028680290A888ADF8040060886946A8
:10A58000F7F769FCA5F80480002E01D04046308022
:10A59000A7E0287840F080022A70287840F0400236
:10A5A0002A7060893288C01C1FFA80F842455DD34A
:10A5B000287820F03F00123028702289A5F8012069
:10A5C0006089CDE9000160882A467146E368FFF79B
:10A5D0006DFEA6F80080287841063CD500065ED5C1
:10A5E0008DF800B08DF801A03188CDE9025A091D1F
:10A5F000ADF804100420DFF8C88003E059E04FE014
:10A600002DE033E0049098F808008DF8140060887D
:10A610006946F7F720FC074630880C303080022F5F
:10A6200002D0E7B36FE048E09DF81420D8F804109A
:10A6300098F80830404601EBC2019A4216D28A8847
:10A64000A2B9427A521C88F809200D6030888880AF
:10A65000A6F800A057E061682089888041E0A189C0
:10A660003288491D1FFA81F8424501D204274AE089
:10A6700029782A4621F03F01163129702189A5F851
:10A6800001106189A5F80310A189CDE90010608847
:10A6900071462369FFF70AFEA6F80080DBE720E099
:10A6A000287820F03F0018302870207A68703380B6
:10A6B00017E060680188090404D4052723E000003E
:10A6C0003C060020C0882189884201D006271AE074
:10A6D0001E202870A6F800B06068018821F40041AF
:10A6E0000180B9F1000F0ED0DF4861880022008898
:10A6F0008300032008F0BEFB61682078887007E0C3
:10A70000A6F800A003276068018821EA09010180FA
:10A71000384663E62DE9F04F87B01746109C0D00D0
:10A7200083461E461AD03078C10703D000F03F00A0
:10A73000192801D9012100E000212046FFF723FE5E
:10A74000A8420BD32088A0F57F41FF3906D030788E
:10A75000410601D4000603D508203FE607203DE668
:10A7600000208DF800008DF8010030786B1E00F09D
:10A770003F0C0122A81E4FF0050A4FF0020999B2C2
:10A78000BCF1200F76D2DFE80CF08C10755F756994
:10A79000758D759E75B875BD75CB75D775E4757576
:10A7A00075F475F275F175F0758C052D79D104206D
:10A7B0008DF80000A0788DF804007088ADF80600D0
:10A7C00030798DF80100707800F03F000C2829D016
:10A7D0000ADCA0F10200092863D2DFE800F012626F
:10A7E00015621A621D622000122824D004DC0E2893
:10A7F0001BD01028DAD11BE016281FD01828D5D17D
:10A800001FE02078800701E020784007002848DA20
:10A81000F1E020780007F9E72078C006F6E7207815
:10A820008006F3E720784006F0E720780006EDE7A1
:10A830002088C005EAE72088C004E7E72088800474
:10A84000E4E720884004E1E72078800729D5032D3C
:10A8500027D18DF800A0B6F8010083E021784907E0
:10A860001FD5062D1DD381B27078012803D0022890
:10A8700017D102E0CCE0022000E0102006228DF883
:10A88000002072788DF80420801CB1FBF0F2ADF846
:10A89000062092B242438A4203D10397ADF8089052
:10A8A000A9E07BE02078000778D5072198B28DF8E1
:10A8B00000108108ADF80410B0EB810F6ED1029743
:10A8C000ADF8062097E02178C90667D5022D65D33B
:10A8D00081B208208DF80000707802285ED300BF96
:10A8E000B1FBF0F28DF80400ADF8062092B24243BD
:10A8F0008A4253D1ADF808907CE0207880064DD58F
:10A90000092003E02078400648D50A208DF8000091
:10A91000A088ADF80400ADF80610ADF8082069E095
:10A920002078000672D50B20ADF804108DF80000D9
:10A93000ADF8062002975EE02188C90566D5022D94
:10A9400064D381B20C208DF80000707804285DD3A8
:10A95000C6E72088C00459D5012D57D10D208DF8A8
:10A960000000A088ADF8040045E021E026E016E0F4
:10A97000FFE72088800449D5052D47D30E208DF8A8
:10A980000000A088ADF80400B6F803006D1FADF814
:10A990000850ADF80600ADF80AA02BE036E020889C
:10A9A000400433D5012D31D10F208DF8000022E075
:10A9B000208800042AD4B6F80100E080A07B0007BC
:10A9C00024D5032D22D3307800F03F001B2819D066
:10A9D00011208DF80000208840F40040A4F8000009
:10A9E000B6F80100ADF80400ED1E0320ADF80650E6
:10A9F000ADF80800039769465846F7F72CFA0500AA
:10AA000008D016E010208DF80000E9E7072510E0D7
:10AA100008250EE0307800F03F001B2809D01D28E3
:10AA200007D05946032008F0C5FA208800F40040FA
:10AA30002080A07B400708D52046FFF77EFCC0079A
:10AA400003D1A07B20F00400A0732846C6E400B523
:10AA500087B0032805D18DF8000088B26946F7F762
:10AA6000FAF907B000BD00003C060020F8B51D460D
:10AA7000DDE906470E000AD005F039F92346FF1D2F
:10AA8000BCB231462A46009404F0BEFDF8BDD01990
:10AA90002246194615F072FE2046F8BD2DE9FF4FFB
:10AAA0008DB09B46DDE91B57DDF87CA00C46082BDA
:10AAB00005D0E06901F00CF950B11020D2E02888EF
:10AAC000092140F0100028808AF80010022617E0C3
:10AAD000E16901208871E2694FF420519180E169B8
:10AAE0008872E06942F601010181E0690021817309
:10AAF0002888112140F0200028808AF800100426C0
:10AB000038780A900A2038704FF0020904F11800D2
:10AB10004D460C9001F0ACFBB04681E0BBF1100F4C
:10AB20000ED1022D0CD0A9EB0800801C80B20221AE
:10AB3000CDE9001005AB52461E990D98FFF796FF20
:10AB4000BDF816101A98814203D9F74800790F9082
:10AB500004E003D10A9808B138702FE04FF00201E9
:10AB6000CDE900190DF1160352461E990D98FFF715
:10AB70007DFF1D980088401B801B83B2C6F1FF003B
:10AB8000984200D203461E990BA8D9B15FF000028B
:10AB9000DDF878C0CDE9032009EB060189B2CDE9E3
:10ABA00001C10F980090BDF8161000220D9801F019
:10ABB000E2FB387070B1C0B2832807D0BDF8160030
:10ABC00020833AE00AEB09018A19E1E7022011B07B
:10ABD000BDE8F08FBDF82C00811901F0FF08022DAF
:10ABE0000DD09AF80120424506D1BDF820108142CF
:10ABF00007D0B8F1FF0F04D09AF801801FE08AF85F
:10AC00000180C94800680178052902D1BDF81610F5
:10AC1000818009EB08001FFA80F905EB080085B276
:10AC2000DDE90C1005AB0F9A01F025FB28B91D9842
:10AC30000088411B4145BFF671AF022D13D0BBF117
:10AC4000100F0CD1A9EB0800801C81B20220CDE9C5
:10AC5000000105AB52461E990D98FFF707FF1D989E
:10AC60000580002038700020B1E72DE9F8439C46AC
:10AC7000089E13460027B26B9AB3491F8CB2F18F1E
:10AC8000A1F57F45FF3D05D05518AD882944891DA4
:10AC90008DB200E000252919B6F83C800831414505
:10ACA00020D82A44BCF8011022F8021BBCF803107B
:10ACB00022F8021B984622F8024B914605F005F84F
:10ACC0004FF00C0C41464A462346CDF800C004F034
:10ACD00062FCF587B16B00202944A41D2144088043
:10ACE00003E001E0092700E083273846BDE8F88348
:10ACF00010B50B88848F9C420CD9846BE0180488B3
:10AD000044B1848824F40044A41D23440B801060C3
:10AD1000002010BD822010BD2DE9F0478AB000252B
:10AD2000904689468246ADF8185007274BE00598B3
:10AD300006888088000446D4A8F8006007A801951A
:10AD400000970295CDE903504FF40073002231467D
:10AD5000504601F010FB04003CD1BDF81800ADF8DE
:10AD60002000059804888188B44216D10A0414D4BE
:10AD700001950295039521F400410097049541F453
:10AD8000804342882146504601F0CCF804000BD1A4
:10AD90000598818841F40041818005AA08A94846A8
:10ADA000FFF7A6FF0400DCD00097059802950195F7
:10ADB000039504950188BDF81C300022504601F02F
:10ADC000B1F8822C06D105AA06A94846FFF790FFE4
:10ADD0000400ACD0ADF8185004E00598818821F447
:10ADE0000041818005AA06A94846FFF781FF002897
:10ADF000F3D0822C03D020460AB0BDE8F0870020B3
:10AE0000FAE710B50C46896B86B051B10C218DF86C
:10AE10000010A18FADF80810A16B01916946FCF7F5
:10AE20009BF900204FF6FF71A063E187A08706B071
:10AE300010BD2DE9F0410D460746896B0020069EA6
:10AE40001446002911D0012B0FD13246294638462D
:10AE5000FFF762FF002808D1002C06D032462946B1
:10AE60003846BDE8F04100F042BFBDE8F0812DE971
:10AE7000FC411446DDE9087C0E46DDE90A15521D49
:10AE8000BCF800E092B2964502D20720BDE8FC81F2
:10AE9000ACF8002017222A70A5F80160A5F803304D
:10AEA0000522CDE900423B462A46FFF7DFFD0020A0
:10AEB000ECE770B50C4615464821204615F0F7FC26
:10AEC00004F1080044F81C0F00204FF6FF71E06108
:10AED00061842084A5841720E08494F82A0040F03F
:10AEE0000A0084F82A0070BD4FF6FF720A800146FE
:10AEF000042008F05FB830B585B00C460546FFF772
:10AF000080FFA18E284629B101218DF800106946E5
:10AF1000FCF722F90020E0622063606305B030BDD9
:10AF2000B0F84000704700004800002090F846202C
:10AF3000920703D4408808800020F3E70620F1E759
:10AF400090F846209207EDD5A0F84410EAE70146B4
:10AF5000002009880A0700D5012011F0F00F01D068
:10AF600040F00200CA0501D540F004008A0501D571
:10AF700040F010004A0501D540F020000905D1D568
:10AF800040F04000CEE700B5034690F84600C00709
:10AF900001D0062000BDA3F842101846FFF7D7FFE6
:10AFA00010F0760F05D093F8460040F0040083F8C7
:10AFB000460013F8460F40F001001870002000BD55
:10AFC00090F84620520700D511B1B0F84200A9E729
:10AFD0001720A7E710F8462F61F3C3020270A1E71C
:10AFE0002DE9FF4F9BB00E00DDE92B34DDE9297818
:10AFF000289D25D02878C10703D000F03F001928EC
:10B0000001D9012100E000212046FFF7D9FFB0421D
:10B0100016D3287841060FD400F03F011E2909D02D
:10B02000218811F47F6F0BD13A884AB1A1F57F4294
:10B03000FF3A05D0010606D500F03F00122802D0E5
:10B0400004201FB0C4E5FC491D984FF0000A0871A8
:10B050008DF818A08DF830A00CAA0A60ADF81CA0DD
:10B06000ADF824A02978994601F03F02701F5B1CBF
:10B0700004F1180CD3464FF0030ECDF828C01F2A58
:10B080007ED2DFE802F07D7D107D227DAE7DF77DF2
:10B09000F67DF57DF47DF77DF37D7D7DF27DF17D9F
:10B0A0007D7D7D7DF00094F84610B5F8010089079C
:10B0B00067D5032E65D14FF40061ADF82410608090
:10B0C0008DF830E0ADF83400E9E2052EF2D1B5F8A4
:10B0D00001002083ADF81C00B5F80310618300283F
:10B0E00070D088426ED884F80AB0A4F808B04FF641
:10B0F000FF7020840A9801F0BBF8052089F8000051
:10B1000002208346029011AB1D9A0A991B9801F008
:10B11000B2F820B15EE000BF8DF81800FEE29DF8A5
:10B120004A00012804D0022089F80100102003E021
:10B13000012089F8010002200390002204A912A82E
:10B1400006F047F9E8BB9DF81010039888423ED1FD
:10B150003A88891CA2EB0B00884238DB0299022056
:10B16000CDE900010DF146034A4641461B98FFF721
:10B170007DFC02980BF1020B801C81B217AA01E042
:10B18000ACE2B1E0029104A912A806F022F90299FA
:10B190009DF81000CDE9000117AB4A4641461B98C7
:10B1A000FFF764FC9DF8100011AB0BEB00011FFAD8
:10B1B00081FB02991D9A084480B202900A991B985B
:10B1C00001E004E091E001F056F80028B5D0BBF1B1
:10B1D000020F03D10A208DF818005DE2A7F800B035
:10B1E0005AE2CDF80CB0072E7ED3B5F801002083CB
:10B1F000ADF81C00B5F803206283002875D090429A
:10B2000073D84FF0010B84F80AB0B5F8050020811F
:10B210000020A073E06900F05BFD80B9E16942F6AF
:10B22000010081F806B0E2694FF420519180E16994
:10B2300081F80AB0E1690881E16900208873F01F94
:10B2400020841E984FF0070B6062A4F822B00A9881
:10B2500001F00EF889F800B0012083460490002028
:10B26000ADF846002AE026E2B0E147E1EDE01FE25A
:10B27000B0E088E04FE000BFBBF1010F15D0E069FE
:10B280008079012803D1BDF84400ADF80E0004997F
:10B290000420CDE9000103AB4A4641461B98FFF765
:10B2A000E5FB0498001D80B20490BDF84600ADF89F
:10B2B0000C00ADF80E0005981FFA80FB11AB1D9A2B
:10B2C0000A991B9800F0D7FF28B939880BF10400C0
:10B2D00005908142D0D2BBF1010F3FF41BAFE06972
:10B2E0008079012808D001E098E023E0BDF84410FF
:10B2F000A1F57F40FF3803D1BDF84400ADF80E0042
:10B3000004990420CDE9000103AB4A4641461B984D
:10B31000FFF7ACFB62E7072E01D0152E7ED1B5F802
:10B3200001102183ADF81C10B5F80320628309B128
:10B33000914201D90120EFE60121A172A4F808B0E1
:10B3400084F80EB0052E07D0C0B2691DE26906F080
:10B3500021F800287FF4DEAE4FF6FF70208401A8AC
:10B3600006AA09A9CDF800B080E88603287821460E
:10B3700000F03F031D9A1B98FFF790FB8246208B3D
:10B38000ADF81C0088E10120032EC7D14021ADF8A3
:10B390002410B5F801102183ADF81C100AAAB8F1E9
:10B3A000000F00D00023CDE9020304921D98CDF8D0
:10B3B0000480009038880022401E83B21B9800F061
:10B3C000DAFF8DF8180050BB0B2189F80010BDF88A
:10B3D000280038E04FF0010C052E9FD18020ADF8F9
:10B3E0002400B5F801102183B5F803002084ADF8DE
:10B3F0001C10B0F5007F01D907208DE640F47C4297
:10B40000228412A8B8F1000F00D00023CDE9033048
:10B41000CDE9018C1D980090388801E09CE007E0A0
:10B42000401E83B21B9800F0A6FF8DF8180028B1CB
:10B430008328A7D10220C7E0480000200D2189F809
:10B440000010BDF84800401C25E1C80900EB40028F
:10B450000EEB8200B04203D948067DD558461AE16A
:10B46000B5F80110ADF81C102A78520608D506224E
:10B470008DF830202A78120605D58DF830B02FE1EE
:10B4800007228DF830200323CDE9023BDDF878C098
:10B49000CDF810B01D9AA6EB00080092CDF804C0BC
:10B4A0001FFA88F300221B9800F03CFD8DF818006D
:10B4B0008DF830B0297849060DD52088C00506D50D
:10B4C000208BBDF81C10884201D1C4F824B0584626
:10B4D0008DF818B0DFE0832801D14FF0020A4FF455
:10B4E0008070ADF82400BDF81C002083A4F82080F3
:10B4F0001E986062032060841321C9E0052E2BD3BF
:10B50000B5F80110ADF81C10A28F32B3A2F57F433D
:10B51000FE3B29D008228DF830200523CDE9023BDF
:10B52000DDF878C0CDF810B01D9A80B2CDF804C017
:10B5300040F400430092B5F803201B9800F0F2FCA1
:10B540004FF400718DF818008DF830B0ADF824106C
:10B55000832813D010B301E0DBE005E0A08FA0F555
:10B560007F41FE3907D0D9E00B228DF830204FF60D
:10B57000FE72A287D1E7A4F83CB0CFE000942B463E
:10B5800031461E9A1B98FFF770FB8DF8180008B122
:10B5900083284BD1BDF81C0020834BE700942B4639
:10B5A00031461E9A1B98FFF760FB8DF81800E8BB28
:10B5B000E18FA06B0844831D8DE88803438882884F
:10B5C00001881B98FFF753FC824665E095F80180DF
:10B5D000022E6FD15FEA080002D0B8F1010F7FD1CF
:10B5E00009208DF8300007A800908DF8348043467C
:10B5F000002221461B98FFF71CFC8DF835008DF8C2
:10B6000036B050B9B8F1010F11D0B8F1000F04D124
:10B61000A08FA0F57F41FF3909D0A08F38B14FF43A
:10B6200080608DF830B0ADF824000EE034E00CA955
:10B630001B98FBF791FD82464FF480608DF830B087
:10B64000ADF82400BAF1020F06D0FB4800688079FB
:10B6500028B18DF8180027E0A4F8188042E0BAF16C
:10B66000000F03D081208DF818003BE007A8009060
:10B670004346012221461B98FFF7DBFB8DF818009B
:10B6800021461B98FFF7BDFB9DF8180020B9192132
:10B6900089F80010012038809DF8300020B10CA9F5
:10B6A0001B98FBF759FD8246BAF1000F33D019E021
:10B6B000062031E514E02078000711D5012E0FD1C6
:10B6C0000A208DF83000E088ADF8340004201B9982
:10B6D00007F070FC0820ADF824007FE5480618D577
:10B6E0004FF0040A2088BDF8241008432080BDF8DC
:10B6F000240080050BD5A18FA1F57F40FE3806D12F
:10B700001E98E06228982063A6864FF0030A5046F0
:10B7100097E4042000E59DF8180078B1012089F82D
:10B720000000297889F80110BDF81C10A9F8021052
:10B730009DF8180089F80400052038802088BDF89D
:10B74000241088432080E2E72DE9FF4F88460878DF
:10B7500095B0012181404FF20900249C0140ADF8D1
:10B7600020102088DDF88890A0F57F424FF0000A75
:10B77000FF3A02D029B1000703D5012019B0BDE876
:10B78000F08F239E4FF0000B0EA886F800B018999A
:10B790005D460988ADF83410A7498DF81CB0179A9A
:10B7A0000A718DF838B0086098F8000001283BD085
:10B7B000022809D003286FD1307820F03F001D30D7
:10B7C0003070B8F80400E08098F8001003200229D7
:10B7D00004D1317821F03F011B31317094F84610CB
:10B7E000090759D505ABB9F1000F13D0002102AA02
:10B7F00082E80B000720CDE90009BDF83400B8F855
:10B800000410C01E83B20022159800F0B4FD002879
:10B81000D1D101E0F11CEAE7B8F80400A6F8010074
:10B82000BDF81400C01C04E198F805108DF81C1038
:10B8300098F80400012806D04FF4007A02282CD092
:10B840000328B8D16BE12188B8F8080011F4006131
:10B85000ADF8201020D017281CD3B4F84010814236
:10B8600018D3B4F84410172901D3814212D131788A
:10B8700021F03F01C91C3170A6F801000321ADF889
:10B880003410A4F8440094F8460020F0020084F834
:10B89000460064E105257DE176E1208808F108078E
:10B8A00000F4FE60ADF8200010F0F00F1BD010F097
:10B8B000C00F03D03888228B9042EBD199B9B87869
:10B8C000C00710D0B9680720CDE902B1CDF804B0A7
:10B8D0000090CDF810B0FB88BA883988159800F030
:10B8E00021FB0028D6D12398BDF82010401C8029C8
:10B8F0004ED006DC10290DD020290BD0402987D14D
:10B9000024E0B1F5807F70D051456DD0B1F5806FE6
:10B9100097D1DDE0C80601D5082000E0102082465E
:10B920000DA907AA0520CDE902218DF83800ADF850
:10B930003CB0CDE9049608A93888CDE9000153460A
:10B94000072221461598FFF7A9F8A7E09DF81C20CB
:10B9500001214FF00A0A002A9BD105ABB9F1000F73
:10B9600000D00020CDE902100720CDE90009BDF884
:10B9700034000493401E83B2218B0022159800F0FE
:10B98000FAFC8DF81C000B203070BDF8140020E08C
:10B990009DF81C2001214FF00C0A002A22D113AB84
:10B9A000B9F1000F00D00020CDE902100720CDE949
:10B9B00000090493BDF83400228C401E83B2218B11
:10B9C000159800F0D8FC8DF81C000D203070BDF8E3
:10B9D0004C00401CADF8340005208DF83800208B59
:10B9E000ADF83C00BBE000E028E03888218B8842BD
:10B9F0007FF450AF9DF81C004FF0120A00281AD1B6
:10BA0000606A98B1B878C0073FF444AFBA680720BD
:10BA1000CDE902B2CDF804B00090CDF810B0FB88AB
:10BA2000BA88159800F07EFA8DF81C00132030704B
:10BA30000120ADF8340092E0480000203988208BC6
:10BA40008142D5D19DF81C004FF0160A0028A06B4A
:10BA500008D0E0B34FF6FF7000215F46ADF808B0A4
:10BA6000019027E068B1B978C907C1D1E18F0DAB6A
:10BA70000844821D03968DE80C0243888288018861
:10BA800009E0B878C007BFD0BA680DAB03968DE85F
:10BA90000C02BB88FA881598FFF7E9F905005ED01B
:10BAA000072D72D076E0019005AA02A92046FFF783
:10BAB0001FF90146E28FBDF80800824201D000293B
:10BAC000F1D0E08FA16B084407800198E08746E041
:10BAD0009DF81C004FF0180A40B1208BC8B138887F
:10BAE000208321461598FFF78CF938E004F11800FF
:10BAF0000090237E012221461598FFF79AF98DF8D0
:10BB00001C000028EDD1192030700120ADF8340060
:10BB1000E7E7052521461598FFF773F93AE02088F5
:10BB200000F40070ADF8200050452DD1A08FA0F595
:10BB30007F41FE3901D006252CE0D8F808004FF0EF
:10BB4000160A48B1A063B8F80C10A1874FF6FF7130
:10BB5000E187A0F800B002E04FF6FF70A087BDF8C3
:10BB6000200030F47F611AD0782300220420159938
:10BB700007F080F998F8000020712088BDF82010A7
:10BB8000084320800EE000E007252088BDF8201043
:10BB900088432080208810F47F6F1CD03AE02188F1
:10BBA000814321809DF8380020B10EA91598FBF73C
:10BBB000D3FA05469DF81C000028EBD086F801A0BA
:10BBC00001203070208B70809DF81C0030710520A2
:10BBD000ADF83400DEE7A18EE1B118980DAB008816
:10BBE000ADF834002398CDE90304CDE90139206B89
:10BBF0000090E36A179A1598FFF7F2F905460120BD
:10BC00008DF838000EA91598FBF7A6FA00B1054685
:10BC1000A4F834B094F8460040070AD52046FFF750
:10BC200096F910F0760F04D114F8460F20F00400B6
:10BC300020701898BDF83410018028469EE500B5A4
:10BC400085B0042806D102208DF8000088B269462C
:10BC5000FBF782FA05B000BD10B5384C0B782268AE
:10BC6000012B02D0022B2AD111E013780BB1052B46
:10BC700001D10423137023688A889A802268CB88B4
:10BC8000D38022680B891381498951810DE08B880B
:10BC900093802268CB88D38022680B8913814B89DB
:10BCA00053818B899381096911612168FBF754FAEB
:10BCB000226800210228117003D0002800D08120C2
:10BCC00010BD832010BD806B002800D0012070477C
:10BCD0008178012909D10088B0F5205F03D042F6B0
:10BCE0000101884201D10020704707207047F0B55C
:10BCF00087B0002415460E460746ADF8144010E004
:10BD0000069801882980811DCDE90241072101940F
:10BD100004940091838842880188384600F002F933
:10BD200030B906AA05A93046FEF7E2FF0028E7D0A1
:10BD3000822800D1002007B0F0BD0000480000209C
:10BD400010B58B7883B102789A4205D10B885BB12C
:10BD500002E08B79091D4BB18B789A42F9D1B0F88A
:10BD600001300C88A342F4D1002010BD812010BD09
:10BD7000072826D012B1012A27D103E0497801F023
:10BD8000070102E04978C1F3C20105291DD2DFE8AD
:10BD900001F00318080C12000AB1032070470220BA
:10BDA000704704280DD250B10DE0052809D2801E3D
:10BDB000022808D303E0062803D0032803D0052077
:10BDC0007047002070470F20704781207047C0B235
:10BDD000820610D400060CD5FA48807A421ED3178A
:10BDE00002EB5372012303EBE20201FB002080B25D
:10BDF0007047084670470020704770B513880B8065
:10BE00000D782B062AD5EF4B9B7A834204D845F058
:10BE100010000870002070BD946800F0070604EB65
:10BE2000D0042478F44064F304150D701478D178AC
:10BE300004F0030441EA042140F20124B1FBF4F5CB
:10BE400004FB151192685B1E00FB0120D91703EB60
:10BE50005171012202EBE101084470BD906870BD90
:10BE600037B51446BDF8041011809DF804100A0679
:10BE700022D5C1F30013D3490122A568897A8142F2
:10BE80000CD8FE2814D1491EC81701EB507002EBE4
:10BE9000E0015A422846F7F7A4F809E005EBD00183
:10BEA00000F007050878AA409043AB40184308709B
:10BEB000207820F0100020703EBD2DE9F0410746AB
:10BEC000C81C0E4620F00300B04202D08620BDE818
:10BED000F081BC4D002034462E60AF802881AA72CC
:10BEE000E8801AE0E988491CE980810614D4E178E9
:10BEF00000F0030041EA002040F20121B0FBF1F222
:10BF000001FB12012068FFF762FF2989084480B213
:10BF10002881381A3044A0600C3420784107E1D4DD
:10BF20000020D4E72DE9FF4F89B01646DDE9168AD7
:10BF30000F46994623F44045084600F00CFB0400E8
:10BF40000FD0099803F07EFD0290207800060AD5F4
:10BF50009C48817A0298814205D887200DB0BDE8BF
:10BF6000F08F0120FAE7224601A90298FFF745FF6A
:10BF7000834600208DF80C004046B8F1070F1AD018
:10BF800001222146FFF7F4FE0028E7D12078400681
:10BF900011D502208DF80C00ADF81070BDF804002A
:10BFA000ADF81200ADF814601898ADF81650CDF841
:10BFB0001CA0ADF818005FEA094004D500252E4604
:10BFC000A84601270CE02178E07801F0030140EA5F
:10BFD000012040F20121B0FBF1F2804601FB128703
:10BFE0005FEA494009D5B84507D1A178207901F029
:10BFF000030140EA0120B04201D3BE4201D907202B
:10C00000ACE7A8191FFA80F9B94501D90D20A5E7B9
:10C010009DF80C0028B103A90998FBF79BF80028AC
:10C020009CD1B84507D1A0784FEA192161F30100EE
:10C03000A07084F804901A9800B10580199850EA0D
:10C040000A0027D0199830B10BEB06002A4619993F
:10C0500014F094FB0EE00BEB06085746189E099867
:10C0600003F033FE2B46F61DB5B239464246009525
:10C0700003F091FA224601A90298FFF7BEFE9DF84F
:10C080000400224620F010008DF80400DDE90110C4
:10C09000FFF7E6FE002061E72DE9FF4FDFF824916E
:10C0A00082461746B9F80610D9F8000001EB4101A5
:10C0B00000EB810440F20120B2FBF0F185B000FBFF
:10C0C00011764D46DDF84C8031460698FFF77FFE2D
:10C0D00029682A898B46611A0C3101441144AB88C6
:10C0E00089B28B4202D8842009B038E70699CDB2D4
:10C0F000290603D5A90601D58520F5E7B9F806C0BC
:10C100000CF1010C1FFA8CFCA9F806C0149909B1B6
:10C11000A1F800C0A90602D5C4F8088007E01044C1
:10C1200080B2A9F80800191A01EB0B00A0602246A2
:10C13000FE200699FFF794FEE77026712078390AF1
:10C1400061F30100320AA17840F0040062F30101BA
:10C15000A17020709AF802006071BAF80000E080C7
:10C1600000262673280602D599F80A7000E00127F8
:10C17000A80601D54FF000084D4600244FF00709EE
:10C180000FE0CDE902680196CDF800900496E988A9
:10C190002046129B089AFFF7C5FE0028A4D1641C14
:10C1A000E4B2BC42EDD300209EE72DE9F047804683
:10C1B00000F0D1F9070007D000264446014D40F2B7
:10C1C000012918E0480600200120BDE8F08720463C
:10C1D00000F0C1F90278C17802F0030241EA0222BC
:10C1E000B2FBF9F309FB13210068FFF7F0FD3044BF
:10C1F000641C86B2A4B2E988601E8142E7DCA8F123
:10C200000100E8802889801B288100203870DCE745
:10C2100010B5144631B1491E218003F013FCA07003
:10C22000002010BD012010BD10B5D3490446008880
:10C23000CA88904201D3822010BD096800EB4000FB
:10C2400001EB80025079A072D0882081917810791A
:10C2500001F0030140EA0120A081A078E11CFFF772
:10C26000CCFD20612088401C2080E080002010BD93
:10C270000121018270472DE9FF4F85B04FF6FF780D
:10C280008246A3F8008048681F460D4680788DF8E6
:10C29000060048680088ADF8040000208DF80A0008
:10C2A000088A0C88A04200D304462C8241E0288AE8
:10C2B000401C2882701D6968FFF742FDB8BB3988B1
:10C2C000414501D1601E38806888A04236D3B178DC
:10C2D000307901F0030140EA012901A9701DFFF73F
:10C2E0002FFD20BB298941452CD0002231460798DB
:10C2F000FFF73EFDD8B92989494518D1E96803916E
:10C30000B5F80AC0D6F808B05046CDF800C003F022
:10C31000DCFCDDF800C05A460CF1070C1FFA8CFC5F
:10C320004B460399CDF800C003F0F8F850B1641CF7
:10C33000A4B2204600F00FF90600B8D1641E2C828A
:10C340008220D1E67C807079B871F088B88031782D
:10C35000F07801F0030140EA01207881A7F80C9001
:10C36000504603F06FFB324607F10801FFF745FD29
:10C3700038610020B8E62DE9FF4F87B081461C46A2
:10C380009246DDF860B0DDF85480089800F0E3F8DC
:10C3900005000CD0484603F055FB2978090608D55E
:10C3A0007549897A814204D887200BB0D7E50120EE
:10C3B000FBE7CAF309062A4601A9FFF71EFD074657
:10C3C000149807281CD000222946FFF7D1FC00282A
:10C3D000EBD12878400613D501208DF80800089885
:10C3E000ADF80C00BDF80400ADF80E00ADF810601B
:10C3F000ADF8124002A94846FAF7ACFE0028D4D1A5
:10C400002978E87801F0030140EA0121AA78287927
:10C4100002F0030240EA0220564507D0B1F5007F42
:10C4200004D9611E814201DD0B20BEE7864201D99D
:10C430000720BAE7801B85B2A54200D92546BBF18B
:10C44000000F01D0ABF80050179818B1B9192A465F
:10C4500014F094F9B8F1000F0DD03E44484644461C
:10C46000169F03F044FC2146FF1DBCB232462B460A
:10C47000009403F0C9F8002097E72DE9F041074642
:10C480001D461646084600F066F804000BD03846F4
:10C4900003F0D8FA2178090607D53749897A81420D
:10C4A00003D8872013E5012011E522463146FFF726
:10C4B000A4FC65B12178E07801F0030140EA012095
:10C4C000B0F5007F01D8012000E000202870002096
:10C4D000FDE42DE9F04107461D461646084600F0EA
:10C4E0003AF804000BD0384603F0ACFA217809067C
:10C4F00007D52149897A814203D88720E7E40120C2
:10C50000E5E422463146FFF7ABFCFF2D14D021783D
:10C51000E07801F0030240EA022040F20122B0FB81
:10C52000F2F302FB130015B900F2012080B2E070B3
:10C53000000A60F3010121700020C8E410B50C4628
:10C5400000F009F828B1C18821804079A07000204E
:10C5500010BD012010BD0849CA88824209D340B1EC
:10C56000096800EB40006FF00B0202EB800008440A
:10C5700070470020704700004806002010B50C46A8
:10C5800002F0F3FA78B3204600F05FFE60B3227841
:10C59000102A09D0112A07D0022A05D0032A03D075
:10C5A000162A2DD0FFDF1CE0A0781A2817D00DDC4A
:10C5B000132814D2DFE800F0151319131320201CE0
:10C5C0001E28131322131313131326002A2806DD23
:10C5D0003C280FD003DC302814D03A2810D0032098
:10C5E00010BD002010BD14E011E043F20200F9E795
:10C5F0000420F7E70D20F5E70F20F3E70820F1E727
:10C600001120EFE70720EDE743F20600EAE7FFDF3E
:10C61000E7E7FFDFE5E700F018BE70B5034600204E
:10C6200002466FF02F050EE09C5CA4F130060A2E46
:10C6300002D34FF0FF3070BD00EB800005EB4000EF
:10C64000521C2044D2B28A42EED370BD30B50A24C7
:10C650000AE0B0FBF4F304FB13008D18303005F84A
:10C66000010C521E1846D2B2002AF2D130BD30B5AC
:10C6700000234FF6FF7510E0040A44EA002084B25C
:10C68000C85C6040C0F30314604005EA00344440D5
:10C69000E0B25B1C84EA40109BB29342ECD330BD05
:10C6A000F0B516460B880122B240134215D1134350
:10C6B0000B800446051D018840880F18092F00D300
:10C6C000093F401C092800D9FFDF781C092800D940
:10C6D000FFDF6088401C6080EE55F0BDF0B5068835
:10C6E0000446051D0F46701C81B22180092901D323
:10C6F000093921806088012800D2FFDF701C0928D9
:10C7000000D9FFDF60880122401E6080A85D398863
:10C71000824091433980F0BD2DE9F0410E468046BC
:10C72000DDE9065089781746090612D420F8045D21
:10C730004380404603F0DBFA040000D1FFDF2D1DEB
:10C740002046A9B202F038FC00B9FFDF404600F0F5
:10C750001AFC06EB4701087C401C0874BDE8F08118
:10C760007CB505461220187048780C46801C58701D
:10C7700008205880108898805088D8809088188128
:10C78000D08858810C20CDE90003052306222146DC
:10C790002846FFF7C1FFF02300222946012006F0BA
:10C7A00069FB6078801C60707CBD2DE9F84F0F46F6
:10C7B0009A4691460546032103F07CF90446808C95
:10C7C000DFF86085002618B198F80000B84221D142
:10C7D000284603F08CFA050000D1FFDF09F10401BF
:10C7E000284689B202F098FB060013D002F046FFFB
:10C7F0000770284631466A4602F07FFE0098002105
:10C800000A460180817000F084FC0098C01DCAF8BF
:10C81000000030E098F80000B84225D104F122056C
:10C8200034F8301F012000FA07F911EA090F00D08F
:10C83000FFDF208840EA090020802C8805F10409E8
:10C84000641E092C00D309342C806888401C0928F8
:10C8500000D9FFDF601C092800D9FFDF6888401C71
:10C86000688009F8047006E03A4604F1300104F1EA
:10C870002200FFF715FF092188F800103046BDE8B7
:10C88000F88F38B50546032103F014F90446807883
:10C8900000F07F00012814D002226B4606212846B2
:10C8A000121DFFF782FF00280AD0A07800F07F0059
:10C8B000012808D0228921462846009B00F084FAEE
:10C8C00038BD0822E9E704F1080221462846009B0A
:10C8D000FFF746FF38BDFEB514460D46064602ABCF
:10C8E00006220721FFF761FF80B1029B012007228A
:10C8F00018705C700220588000249C800620CDE9CE
:10C900000003052329463046FFF706FFEC70FEBD05
:10C9100010B50446032103F0CDF80146C278204645
:10C92000BDE81040D7E7FF4909200870704770B58F
:10C930000C4615463421204613F0B9FF01206070E3
:10C940002078122120F00F00207004F1100013F065
:10C95000AEFF05B9FFDF2978A07861F30600A0706B
:10C9600070BD70470146012006F024BB3EB58DB274
:10C970000321284603F09EF8040000D1FFDF207851
:10C98000002220F00F00207002208DF800004FF6EA
:10C99000FF70ADF80200ADF8040069462846F7F7CD
:10C9A00019FA3EBDF0B50C46002600780121174665
:10C9B0003546B1EB101F00D0FFDFFFDF3D800CB12B
:10C9C000268065800020F0BD2DE9FC4788461D4685
:10C9D0001746814603210A9E03F06CF8040000D13B
:10C9E000FFDFCDE900563B46424621464846FFF769
:10C9F00093FEBDE8FC8738B50546A0F57F40FF38BB
:10CA00001CD0284603F061F9040000D1FFDF204666
:10CA100002F052FD002810D001466A46204602F07E
:10CA20006CFD0098B0F80500052807D103212846C1
:10CA300003F040F8C07808B1002038BD012038BDAF
:10CA40002DE9FF410546408803F03FF9040000D17D
:10CA5000FFDF03AA2046696800F0ADF9039C001FC0
:10CA600034F8032F618882420AD104290AD00529AB
:10CA700017D0062904D16888211D6B68F8F74DFF8F
:10CA8000BDE8FF811646241D2A4621463046F5F7AB
:10CA900089FC0828F4D12A4621463046FAF7B9FE27
:10CAA000EEE716466888032103F004F801460020EB
:10CAB0008DF80000042EE3D36279002AE0D02379B8
:10CAC00043F30000401C05D14F789742D8D10F782E
:10CAD0003F07D5D0142B3CDA4FF002074FF6FF7812
:10CAE000012B34D0122B02D0132B32D11DE00C2E8F
:10CAF0002FD18B7803F07F03012B2AD0087820F008
:10CB00000F00401C08706079487001208DF800000B
:10CB10002089ADF802006089ADF80400A089ADF865
:10CB20000600E089ADF8080028E0062E11D108784B
:10CB300020F00F0008706988012006F03BFA8DF89C
:10CB40000070ADF802802089ADF8040016E0062ED2
:10CB500005D0002894D06888FFF7BDFE90E70878DC
:10CB600020F00F0008706988012006F023FA8DF884
:10CB700000702089ADF80200ADF8048068882A466C
:10CB80006946F7F727F97BE7F8B50D460646032116
:10CB900002F090FF040012D0207800F00F0001286E
:10CBA00010D06B460C2206213046FFF7FEFD58B12F
:10CBB0002A4621463046009BFFF7D2FD08E043F2AB
:10CBC0000200F8BD1120F8BD2868A0606868E06028
:10CBD000207820F00F00401C20700020F8BDF8B530
:10CBE0000D460646032102F065FF040006D02078BA
:10CBF00000F00F00012804D00820F8BD43F2020025
:10CC0000F8BD06226B4611463046FFF7CEFD30B127
:10CC10002A4621463046009B00F0D6F800E02581E8
:10CC2000207820F00F0020700020F8BD2DE9F04F93
:10CC30000F4691B08046032102F03CFF0446404677
:10CC400003F055F84FF00009CDF82090CDF824906E
:10CC5000ADF834900546CDF82890CDF82C90CDF85D
:10CC60000890CDF80C90CDF8109004B9FFDF02AE1B
:10CC700005B9FFDFB2467F1EFFB219D328460CA9C3
:10CC8000002202F0A2FA9DF83060092E00D3FFDFE7
:10CC900004EB46013246087C401E08740DA908A822
:10CCA000FFF7FEFC1AF80610491C0AF80610E2E726
:10CCB00004F1300006900E381A4FDFF86CB0051DF5
:10CCC000059010E0DDE90501FFF708FD0646387024
:10CCD000092800D3FFDF5BF8261040468847608CA8
:10CCE000405DB04202D0A08C0028EBD109200E4E4E
:10CCF0003870243620E00DA908A8FFF7EFFC0546A0
:10CD000004EB4507787CC00716D02946204600F082
:10CD100054F808B987F811901AF8057056F82500EC
:10CD200028B903E0500000209C0C0200FFDF56F8F9
:10CD30002520394640469047BDF822000028DAD128
:10CD400011B0BDE8F08F10B5032102F0B3FE04006E
:10CD500000D1FFDF122104F1100013F0A8FDA0782C
:10CD600040F08000A07010BD70B50D46032102F0A8
:10CD7000A1FE040000D1FFDF092D00D3FFDF29460B
:10CD8000204600F01AF8002803D004EB45020121E8
:10CD9000517470BD70B50D46032102F08BFE044640
:10CDA000294600F00AF820B9208E0121A940084048
:10CDB00000D0012070BD02F0A0BB00EB4100007C60
:10CDC000002800D0012070471CB513241C704C783B
:10CDD0005C7002245C809A800622CDE90023052342
:10CDE000FFF79AFC1CBD000010B50AF047FB0428B1
:10CDF00003D00AF043FB052802D108F0F9FC28B95A
:10CE00000BF008FD20B107F0FEFB08B1012010BDBA
:10CE1000002010BD0178406819B190F8711059B91F
:10CE200001E001F02EBF90F80C1129B190F80C012F
:10CE3000042801D0012070470020704770B50C46CF
:10CE40000546062102F036FE606008B1002006E0CB
:10CE50000721284602F02EFE606018B101202070E4
:10CE6000002070BD022070BD2DE9FC470C4606462F
:10CE70006946FFF7E3FF00287DD19DF8000050B11F
:10CE800007F060FBB0427CD0214630460EF06BF9D3
:10CE9000002873D12DE008F0ABF9B04271D02146E3
:10CEA00030460CF0BFFD002868D1019D95F8D000F8
:10CEB00022E0012000E00020804695F835004FF088
:10CEC000010A4FF00009F0B195F8360080071AD535
:10CED00084F8019084F800A084F80290A68095F868
:10CEE0003710A171298F2181698F618185F8359073
:10CEF00044E0019D95F80C0158350028DBD1687E8F
:10CF00000028D8D0D5E7304602F0F1FE070000D166
:10CF1000FFDF384602F00DF940B184F801900E2190
:10CF20002170A680E08084F802A027E0304602F05D
:10CF3000CCFE070000D1FFDFB8F1000F21D038464A
:10CF400002F088F9B8B19DF8000038B90198D0F81E
:10CF5000F8004188B14201D180F80090304607F0D6
:10CF6000A7F984F801900B21217084F80290A68023
:10CF7000A97EA17100E004E085F819900120BDE8C8
:10CF8000FC870020FBE71CB56946FFF757FF00B19F
:10CF9000FFDF684601F083FEFB4900208968A1F8A5
:10CFA000D2001CBD2DE9FC4104460E46062002F0CD
:10CFB0002BFD0546072002F027FD2844C7B20025B7
:10CFC000A8463E4417E02088401C80B22080B04232
:10CFD00002D34046A4F8008080B2B84204D3B042E5
:10CFE00002D20020BDE8FC816946FFF727FF002838
:10CFF000F8D06D1CEDB2AE42E5D84FF6FF70208040
:10D000001220EFE738B54FF6FF70ADF800000DE0E5
:10D010000621BDF8000002F05FFD04460721BDF8BF
:10D02000000002F059FD0CB100B1FFDF002168469D
:10D03000FFF7B8FF0028EBD038BD2DE9F047D3A1AA
:10D040000F79D1F8008007F0A1F910F0B3F9D14CB5
:10D050004FF004091020A4F84690A4F848004FF6B9
:10D06000FF76A4F86460A4F86660002584F8415057
:10D0700004F83E5BC7492570A57142312573C1F89C
:10D0800009804F730931481E0CF095FEA5741B20D2
:10D09000A0824FF4A471E182208361830121217772
:10D0A00061770321A17784F81F9020846084B948B8
:10D0B000A1843E3805704680B3480C300570B548F1
:10D0C000103805704680BDE8F08770B5AE4C0D464F
:10D0D0006060217007F0D4F8FFF794FFFFF7ADFF11
:10D0E000207809F02AFE08F0C7F9217860680CF072
:10D0F00079FD20780FF094F928460BF048F807F0F6
:10D100002CFA217860680EF021F9BDE8704010F02B
:10D1100051B910B501240AB1002010BD21B1012977
:10D1200003D00024204610BD022111F03BFDF9E799
:10D130002DE9F047040000D1FFDF964D002695F859
:10D14000410058B166701620207095F84200A0701A
:10D1500095F84300E07085F8416069E0287840B1B7
:10D160003C22A91C204613F009FB102020702E70D1
:10D170005EE095F83E0060B10120E07095F83F0058
:10D18000A07095F8400060701120207085F83E6016
:10D190004EE08048022166308246FFF703FF00B16F
:10D1A000FFDFB5F86690062002F02EFC0746072048
:10D1B00002F02AFC3844C7B2781C00F0FF0800BF18
:10D1C000B5F86600B84212D1204607F09DFF50BB6B
:10D1D00095F8440070B36670132020702021A01CC5
:10D1E00013F043FB0220A07085F8446020E0404526
:10D1F0001AD1204607F070F9E0B12078132817D132
:10D20000A0783C2814D1A088072102F053FC050027
:10D2100000D1FFDF288807F04BF8A088072102F033
:10D220005BFC00B1FFDF03E02146FFF71DFE08B104
:10D23000012048E702215046FFF7B4FE18B9B5F8BF
:10D2400066104945BCD100203DE771E710B5514C4F
:10D25000207828B10A21BDE81040102001F0B3BCAD
:10D26000FFF7C2FD08B10C2002E010F0E9F8002041
:10D270002071012060710A21E170207010BD70B52D
:10D28000444D0446287828B1BDE870403221102072
:10D2900001F099BC207818B1012801D0122010E0CB
:10D2A00001F09EFC20B110F016FA08B10C2008E045
:10D2B000207801F068FC04F11703E21D611C10F0F6
:10D2C00017F92871012068713221E970287070BD4A
:10D2D00070B5304C0546207828B1BDE870400B2170
:10D2E000102001F070BC287818B1012801D012205C
:10D2F0000EE0FFF779FD08B10C2009E0287801F075
:10D3000042FC691C10F063F808B1002000E007201F
:10D310002071012060710B21E170207070BD10B58B
:10D320001C4C217829B13021BDE81040102001F0BB
:10D330004ABC008810F0D2F9302110B100202071D1
:10D3400000E0217101206071E170207010BD70B5A6
:10D35000104C0546207828B1BDE8704031211020DE
:10D3600001F031BC01F03CFC08B10C2005E028784C
:10D3700000F0010010F0ACF9002020710120607174
:10D380003121E170207070BD54000020FFFFFFFFCD
:10D390001F0000009206002010B5F74C207828B13D
:10D3A0003421BDE81040102001F00DBC01F018FC44
:10D3B00020B110F090F908B10C2002E010F0EFF865
:10D3C00000202071012060713421E170207010BDB7
:10D3D000E948017819B10F21102001F0F4BB0021B8
:10D3E0000171102181700F21C170FF2181714FF6F1
:10D3F000FF710181E14949680A7882728A888281D5
:10D400004988C181012141710170704710B5DA4C22
:10D41000207828B12B21BDE81040102001F0D3BBAB
:10D420000821A01D05F0B4FA0020207101206071D0
:10D430002B21E170207010BD70B5CF4C217829B13F
:10D44000BDE870404521102001F0BDBB90F90000FF
:10D45000042822D0092820D008281ED007281CD054
:10D4600006281AD0052818D0022816D0032814D070
:10D4700098B1011D11D010F1080F0ED010F10C0F52
:10D480000BD010F1100F08D010F1140F05D010F1CF
:10D49000280F02D01220207103E0002506F0B3F817
:10D4A00025714520E0700120607120706BE710B598
:10D4B000B14C217829B12A21BDE81040102001F09B
:10D4C00082BBA31D012200F1100110F0E0FE00203C
:10D4D00020711020A0702A20E0700120607120705F
:10D4E00010BD70B5A44C0546207828B1BDE8704049
:10D4F0004821102001F067BB09F0C0FF052804D0C7
:10D50000284609F0F8FB002000E00C2020710120E3
:10D5100060714821E170207035E770B5964C054682
:10D52000207828B1BDE870405721102001F04BBB96
:10D5300009F0C6FC80B10BF060F968B128780128C9
:10D5400000D000200EF077FF0020207101206071D4
:10D550005721E170207016E70C20F6E770B5864C75
:10D560000546207828B1BDE870404621102001F022
:10D570002ABB01F035FB38B10C202071012060710D
:10D580004621E1702070FEE62946002006F0FFFEED
:10D590000020F2E770B5784C0546207828B1BDE848
:10D5A00070404421102001F00EBB09F089FC50B1FD
:10D5B0000BF023F938B128780AF00DFE287808F02E
:10D5C00052F9002000E00C202071012060714421FC
:10D5D000E1702070D7E670B5674C0546207828B119
:10D5E000BDE870401721102001F0EDBA01F0F8FA03
:10D5F00038B10C202071012060711721E17020707A
:10D60000C1E62946012006F0C2FE0020F2E738B547
:10D61000594D0446287828B1BDE838404F211020E4
:10D6200001F0D1BAA079E179884213D021791F297C
:10D6300010D861791F290DD80022114612F0B0FBD5
:10D6400040B90022E079114612F0AAFB10B9207A05
:10D65000072801D9122012E04FF6FF70ADF8000044
:10D660000BF0D8F890B909F009FF78B900216846A5
:10D67000FFF798FC50B1204605F0EAFE0020287123
:10D68000012068714F21E970287038BD0C20F6E741
:10D690002DE9FC47384C054694F83E0020B128217E
:10D6A000112001F090FA6AE4282084F8400001215A
:10D6B00084F83E10A8784FF000091A2825D00EDC17
:10D6C000162831D2DFE800F03030303030213030F1
:10D6D00030303030303030303030302121212A2885
:10D6E00022D00BDCA0F11E000C281DD2DFE800F0D8
:10D6F0001C1C1C1C1C1C1C1C1C1C1C0D3A3804284B
:10D7000012D2DFE800F0110211022888B0F5706F24
:10D710000AD21F20884684F83F0028886946FFF710
:10D720008DFB18B1022019E0122017E09DF80000CF
:10D73000019F002806D007F5B777019E05D106F1B5
:10D74000F10604E007F1F007F7E706F26F16684606
:10D75000FFF760FB08B1387818B10C2084F83F005F
:10D760000DE487F80080A878307084F83F90684610
:10D7700001F095FA03E40000920600205400002016
:10D780007CB5F84C0546207820B12521102001F009
:10D790001AFA7CBD28886946FFF750FB0200F14861
:10D7A0004FF00001A0F13E000DD00222227140F89E
:10D7B000461F0171E1801020A0702520E07001203B
:10D7C000607120707CBD019A1346583282F83F1078
:10D7D0009E68C0F846601E7B80F84A6092F83F6001
:10D7E000002EF3D12888E080E5E710B540B1047839
:10D7F000406813B1B0F8480003E0B0F84A0000E018
:10D80000FB201B2908D3814206D8B2F5A47F03D39D
:10D8100040F64800824201D9122010BD002010BD00
:10D820002DE9FC41CF4D0446287828B1BDE8FC41E4
:10D830005221102001F0C7B94FF0010885F805808A
:10D840001F2129711021A9705221E9702188E980D6
:10D8500085F8008020886946FFF7F0FA08B10220B9
:10D860000DE02289E18801236846FFF7BEFF30B949
:10D87000A288618800236846FFF7B7FF10B12871BE
:10D88000BDE8FC819DF800103A20019E002749B1B7
:10D8900086F89181019991F8D21106F5C876C1B147
:10D8A000287114E086F80981019991F82C1106F588
:10D8B00084760029F4D12F71E08870802089B080AF
:10D8C0006088F080A0883081012201990CE0777097
:10D8D000D6E72F71E08870802089B0806088F08062
:10D8E000A088308101990022304610F085FE86F82C
:10D8F0000080ECE770B59B4D044686B0287830B1C7
:10D9000006B05321BDE87040102001F05CB9012041
:10D91000687100262E711021A9705321E9702870BA
:10D92000208803A9FFF78AFA18B10220287106B0EF
:10D9300029E59DF80C0040B100220499E088B1F877
:10D940004830984203D9C01A02E00122F5E70020CE
:10D95000E8806388B1F84A00834201D9181A00E0D0
:10D9600000202881009601960296E088ADF802001A
:10D970002089ADF804006088ADF80600A088ADF8F5
:10D980000800684610F038FE2089BDF80410401ADF
:10D990006881A088BDF80810401AA881E088BDF809
:10D9A0000210401AE988884200DC0846E880608856
:10D9B000BDF80610401A2989884200DC08462881F3
:10D9C000B5E7034600200AB1012200E002221A4214
:10D9D00002D1490700D1122070477CB5614D044641
:10D9E000287820B13F21102001F0EDF87CBD012006
:10D9F00068711F2129711021A9703F21E9702870D9
:10DA0000617820780122FFF7DCFF28B9A17820781F
:10DA10000022FFF7D6FF08B128717CBD617820781D
:10DA20006B46012201F04AF9A178207801AB00226F
:10DA300001F044F99DF8000085F85A009DF80400B3
:10DA400085F85B000020E7E770B5464D86B00446D8
:10DA50001F200E4685F83F00208803A9FFF7EEF946
:10DA600008B102200BE0E178A0780122FFF7A9FFBE
:10DA700028B92179A0780022FFF7A3FF10B185F81B
:10DA80003F0054E7E178A07802AB012201F016F9DB
:10DA90002179A0786B46002201F010F99DF808006A
:10DAA0009DF800100843400719D59DF80C00092483
:10DAB00038B90020049910F01BFD0499496A884286
:10DAC0000AD89DF80C00012809D1049910F010FD26
:10DAD0000499496A884202D985F83F4027E79DF8B2
:10DAE0000C3001203A220021002B049B93F898303F
:10DAF0001BD0012B32D0049A82F89C01049A82F840
:10DB00009A01049880F89B61049A9DF8080082F8B5
:10DB10009D01049A9DF8000082F89E01049880F807
:10DB20009C1100BF85F83F1001E7012B16D0049A25
:10DB300082F81401049A82F81201049880F81361A3
:10DB4000049A9DF8080082F81501049A9DF80000D7
:10DB500082F81601049880F81411E3E785F83F2055
:10DB6000E5E60000920600201CB5FE4991F83E2033
:10DB70002AB1BDE81C405621112001F024B85622DC
:10DB800081F84020012281F83E200188ADF8001084
:10DB900081788DF80210C1788DF8031001798DF825
:10DBA0000410C088ADF8060000216846FFF74CFF5E
:10DBB0001CBD2DE9F041EB4C0546207828B1BDE8AD
:10DBC000F0411D21102000F0FEBF1F27277101200A
:10DBD00060711D21E170207009F050FC0C260428B2
:10DBE00045D0052843D0A9791220012904D019B1C4
:10DBF000022901D003292BD1297809B1012927D184
:10DC0000E97929B1012903D0022901D003291FD1C3
:10DC1000698843F6FD720B1F3020934218D2AB88FF
:10DC20001B1F934214D2A4F84610A888A4F84800F9
:10DC30004FF00008A87907F03EFDC0B1E87907F081
:10DC400095FD012007F031FD20B12771BDE8F0817D
:10DC50002071FBE72878012801D018B109E00021E4
:10DC6000022001E00021012007F0B2FD08B1267179
:10DC7000ECE784F80480E9E770B5BA4C217829B163
:10DC8000BDE870401E21102000F09DBF1F212171B2
:10DC9000012161711E22E270217002781221012A95
:10DCA00000D01AB9407818B1012801D0217133E4AD
:10DCB00000260C25012A08D009F0E0FB052802D037
:10DCC00008F076FF78B1257126E407F00DFD0120FC
:10DCD00007F088FD00B1FFDFB4F84810B4F8460043
:10DCE00009F0FBF8EEE7267116E42DE9F0479D4CAC
:10DCF00007469246B4F85200B7F84A200E469042C2
:10DD000000D31046804697F85210104600F04BFFA3
:10DD1000B4F85410814200D208460546A146B4F832
:10DD20005640B7F84800844200D3044697F8511093
:10DD300000F039FFB9F85810814200D208464FF47C
:10DD4000A4721B2C01D0904204D1B8F11B0F0DD04E
:10DD500095420BD0A6F8068035817480B08052467B
:10DD60003946304610F048FC01203070BDE8F0879D
:10DD70002DE9F04F85B00546AFF6F011794ED1E9A7
:10DD8000009196F83E00884630B12121112000F024
:10DD90001AFF05B0BDE8F08F1F2086F83F00212054
:10DDA00086F840004FF0010B86F83EB0284600F0A0
:10DDB00091FF002811D109F061FB05280CD009F072
:10DDC0005DFB042808D096F8440028B907F010FA43
:10DDD000A0F57F41FF3901D00C20D5E0614801AAB0
:10DDE0003E380190604802905E480621103803904A
:10DDF00004A801F02FFE04007ED0032110F069F882
:10DE0000B6F85E00A4F84800B6F86000A4F84A002E
:10DE100096F85A0084F84F0096F85B0084F850009A
:10DE200096F85D00009096F85C30B6F86020B6F881
:10DE30005E10208801F0D2FE00B1FFDF208806F0DE
:10DE400036FA218804F10D0000F0D9FE47A004F154
:10DE50001107006800900321684604F024FD0020AB
:10DE600069460A5C3A54401CC0B20328F9D3288A98
:10DE70006080688AA080A88AE08094F8522094F894
:10DE80005110B6F8620009F0A5F80146A0622046DC
:10DE900009F0E4F84FF0000A84F85EA084F85FA06F
:10DEA0005746687900F06FFE6076D5F80600C4F832
:10DEB0001A006889E083C4F8089084F80C8084F81C
:10DEC00000B1012204F584712046FFF70EFF8DF8A2
:10DED00000700121684604F0E6FC9DF8000000F0A7
:10DEE0000701C0F3C1021144C0F3401008448DF88B
:10DEF0000000401D207600E015E0092801D208301E
:10DF00002076002120460FF0E4FF287B07F0D3FBAA
:10DF100058B107F0E9FB69792879AA1D07F032FCAE
:10DF200007000ED01AE009202EE0208806F0C0F984
:10DF30002088062101F0D0FD00283FF44DAFFFDF1F
:10DF40004AE72146032007F043FC070006D16A8810
:10DF50002988204608F01DFF070012D0208806F00F
:10DF6000A7F905E09206002060000020112233008E
:10DF70002088062101F0B0FD00B1FFDF86F83F7078
:10DF800007E7504684F8F4A086F83F0001E738B56B
:10DF9000FE4C207820B12221102000F014FE38BD64
:10DFA0001F202071012565712220E070257094F8F2
:10DFB000440010BB09F062FA052805D007F018F9F3
:10DFC000A0F57F41FF3918D000202071684608F085
:10DFD000D3FF0028E3D10098008806F069F9009883
:10DFE0000621008801F078FD00B1FFDFE84884F8E1
:10DFF00044500078FCF704F938BD0C20207138BD7E
:10E000002DE9F041E14D044695F83E0028B1BDE808
:10E01000F0412321112000F0D6BD1F2085F83F00DC
:10E02000232085F84000012085F83E00618840F6F5
:10E030007B438A1F30209A4251D2A288961F9E426B
:10E040004DD291424BD8E188B1F5FA7F47D2218970
:10E0500040F67746A1F10A03B34240D2B1EBD20FAA
:10E060003DD96189A289914239D84FF000082088B2
:10E07000062101F01FFD06004FF0020707D000F057
:10E0800000FE20B1D6F8F800017839B902E085F831
:10E090003F70DBE5D6F84011097809B13A201EE05F
:10E0A00005218171D6F8F8004146A0F80880D6F81D
:10E0B000F820A0885081D6F8F820E0889081D6F822
:10E0C000F8202089D081D6F8F800028943899A4245
:10E0D00004D88279082A01D89A4203D3122085F8FD
:10E0E0003F00B3E522884280D6F8F800077085F833
:10E0F0003F10ABE5FEB5A54C0646207820B12421A3
:10E10000102000F060FDFEBD012565712420E07047
:10E110002570304610F04BF808B1002000E01220C6
:10E1200020710028EFD1994884F84A504230316874
:10E13000C0F8091031794173002684F84A606946B5
:10E14000062001F042FC00B1FFDF684601F01BFC35
:10E1500060B9BDF80470029880F80051684601F07B
:10E1600012FC18B9BDF80400B842F4D12671FEBD06
:10E170002DE9F041854D064695F83E0028B1BDE8F1
:10E18000F0412C21112000F01EBD1F2085F83F001A
:10E190002C2085F84000012085F83E0030880621BB
:10E1A00001F088FC040007D000F06BFD20B1D4F82A
:10E1B000F810087830B901E0022026E0D4F84001D8
:10E1C000007808B13A2020E094200027005D10F08C
:10E1D000010F19D0D6F802004860D6F80600886012
:10E1E00054F8F80F718910228181206806F10C0122
:10E1F0000E3012F0C3FA21680320087021683088BD
:10E20000488085F83F7021E50C2085F83F001DE52A
:10E2100010B586B004464088ADF81000049800F0B0
:10E220009FFD8DF80400A088ADF800002089ADF8AE
:10E230000200607B8DF80500A07B8DF80600D4F805
:10E240000F00CDF80700B4F81300ADF80B00207BE9
:10E250008DF80D00607D8DF80E00684606F037FAE7
:10E2600006B010BD70B5044680780C25800603D436
:10E27000607B06F0D0F918B12046FFF7C9FF0546CC
:10E28000284614E5F0B5414E044689B030780C2795
:10E2900030B109B01821BDE8F040102000F093BC67
:10E2A0000AF0B8FA012500287AD1607900270328FE
:10E2B0002ED8A07901282BD8A07B032828D8607BF2
:10E2C00030B3072824D821792020052920D2DFE87F
:10E2D00001F0040D03030400A0202188814217D31C
:10E2E0006088814214D8B0F5804F11D8FF208DF896
:10E2F000040021790097BDF80000052940F01000C6
:10E30000ADF8000015D2DFE801F0050A07150D0091
:10E31000122745E040F0010040F0020006E040F026
:10E32000090001E040F0010040F00400ADF80000F9
:10E3300000E0FFDFBDF800000090BDF80000ADF880
:10E3400006002088029060880390607B8DF81000A2
:10E3500060798DF81100A0798DF81200D4F80700CB
:10E36000CDF81300B4F80B00ADF81700A07B8DF8C2
:10E3700019007F208DF81C708DF81A008DF81D5043
:10E380008DF81B508DF81E7004E0000092060020EE
:10E39000540000208DF81F7001A8FFF763FF0746A7
:10E3A000377175711820F070357009B0F0BD38B54F
:10E3B00004460078EF283ED8D4E90101884202D90A
:10E3C000A078000737D56088ADF80000009800F00D
:10E3D000FFFC80B36188C806E07D02D501282AD100
:10E3E00003E0012801D0032825D1607E012803D055
:10E3F000022801D003281ED1207BE0B107281AD8BB
:10E40000607B28B1012803D0022801D0032812D153
:10E41000A07B08B101280ED1607D28B1012803D06E
:10E42000022801D0032806D1E07E08B1012802D1DC
:10E43000A07E0F2801D9122038BDA068B0F1807FDE
:10E4400002D26068202803D2080701D4112038BD09
:10E45000002038BD70B5FB4D0646287828B1BDE8D0
:10E4600070404121102000F0AEBB0C240AF0D2F91C
:10E4700050B93046FFF79BFF040005D13046FFF747
:10E48000F1FE040000D1A87101202C7168714121B6
:10E49000E97028700BE400781F2801D9122070471A
:10E4A00000207047F0B5E74C014689B0207830B1C4
:10E4B00009B01A21BDE8F040102000F084BB0846E6
:10E4C000FFF7E9FF30B120711A20E0700120607180
:10E4D00020706AE7FF208DF8000003208DF801000E
:10E4E00000278DF8027011F8016B8DF803601F2270
:10E4F0006D4601A812F042F92771291D304606F039
:10E500003DF9E1E7C1781F2907D84078042803D0F6
:10E51000032806D009B102E009B11220704711208A
:10E5200070470020704710B5C64C0246207828B1CD
:10E530004221BDE81040102000F045BB1046FFF717
:10E54000E1FF30B120714220E07001206071207045
:10E5500010BD00202071D078111D06F00FF9F2E7F0
:10E5600010B5B84C217829B12021BDE81040102009
:10E5700000F029BB01781F2902D91220207106E082
:10E58000002121710278411C104606F0E5F81020A8
:10E59000A070012060712021E170207010BD7CB559
:10E5A000A84D04460C20287162781220012A16D842
:10E5B00021780026012901D049B110E07AB105F097
:10E5C000F1FF002876D00AF025F950B172E008F08A
:10E5D00067FF044609F03AFD002860D06AE0287120
:10E5E00068E006F02DF8A07806F0DFF850B10128B9
:10E5F00008D0042806D0002009F0F0FD00B1FFDFAC
:10E600002E7157E005F09EFFA0F57F41FF3951D1F3
:10E610000022072101A801F01DFA04004AD08A480F
:10E620000321846020460FF019FB204606F04DFAC6
:10E63000B5F85E0024F8480FB5F86000608015F862
:10E640005A0FE07168782072A17A288909F086FE55
:10E6500044F8200C28890121483C09F07FFE01463E
:10E660000022204608F068FFE8780090AB78EA883E
:10E67000A98820885A3D01F0B1FA00B1FFDF208857
:10E6800005F015FE204609F0A9FD00B1FFDF2E714F
:10E69000002204F5C8712046FFF727FB0AE02E711F
:10E6A00044B1208805F004FE2088072101F014FA07
:10E6B00000B1FFDF1020A8700120687128707CBDB8
:10E6C00060490A781AB14321102000F07CBA432235
:10E6D000CA70012163E71CB55A4C217829B1BDE805
:10E6E0001C401B21102000F06EBA00788DF800004D
:10E6F00001208DF80100FF208DF802000020ADF808
:10E7000004008DF8060001466846FFF748FF1B200D
:10E71000E0701CBD2DE9F0414A4C0646207828B136
:10E72000BDE8F0412D21102000F04DBA30880721BE
:10E7300001F0C0F905004FF0010720D095F87101F4
:10E7400040B995F86400112801D0122802D195F83B
:10E75000B40150B10C2020711020A0702D20E07069
:10E760003088E0806771277093E41022B11C05F5B2
:10E77000B97012F003F885F871710020EBE7022000
:10E78000E9E770B52F4C0546207828B1BDE8704008
:10E790002E21102000F017BA2888072101F08AF9ED
:10E7A000022178B190F871212AB990F86420112AD9
:10E7B00004D0122A02D00C20207104E080F87111DC
:10E7C0000020F9E721711020A0702E20E070288829
:10E7D000E08001206071207053E52DE9FC47194C61
:10E7E0000646207828B13821102000F0ECF9BDE869
:10E7F000FC8770884BF68032122190420AD848B1CB
:10E800004FF0000830886946FEF718FB20B102205F
:10E81000207110E021710EE0019800F15809851C6B
:10E820002F887288394648460FF0E6F92888B842A2
:10E83000F6D184F80480012060713821E1702070E5
:10E84000D5E7000092060020540000207CB5FF4C64
:10E850000546207820B14B21102000F0B4F97CBD92
:10E8600028886946FEF7EAFA38B1022020710120B3
:10E8700060714B21E17020707CBD01987F220146C0
:10E8800080F8602080F86120002280F86220A8785B
:10E8900001F82C0FE8784870287988702271E6E733
:10E8A0001CB5EA4C217821B15821102000F08BF9D9
:10E8B0001CBD00886946FEF7C1FA48B102202071EC
:10E8C000012060715821E1701021A17020701CBDE1
:10E8D000019890F8710000B1012000212171A07110
:10E8E000EEE71CB5D94C217821B11321102000F09E
:10E8F0006AF91CBD00886946FEF7A0FA08B102203B
:10E9000005E0019890F82C10012902D00C2020710C
:10E9100006E0602100222271095C21720088E080FB
:10E92000012060711321E1701021A17020701CBDC5
:10E930002DE9F041C54C0546207828B1BDE8F041ED
:10E940004C21102000F03FB92888072101F0B2F8CF
:10E95000012358B382886D88C688418803EB42073B
:10E96000BD4217D342F210777E43BF107943B6FB06
:10E97000F1F1491E89B24FF4FA76B14200D931461D
:10E980008D4200D22946491C521CB1FBF2F1514381
:10E99000491E8AB290F8A01101B90284E2800020D9
:10E9A000207163714C20E07023702CE40220F7E7A3
:10E9B00070B5A64C0546207828B1BDE870404E21C0
:10E9C000102000F000B92888072101F073F890B1F9
:10E9D000A97811F0010180F8DF1004D090F8DD1063
:10E9E00009B109F0EBFC00202071012060714E217B
:10E9F000E170207045E40220F6E794490A781AB1E4
:10EA00005421102000F0DFB802789AB142788AB120
:10EA100042881B2A0ED382881B2A0BD3C288022A63
:10EA200008D38A4A0368423242F81A3F406850606D
:10EA3000002000E012200871012048715422CA70A1
:10EA40000870704770B5814C0546207828B1BDE844
:10EA500070405521102000F0B6B8287800F0010071
:10EA600008F0B5FA287800F0010009F043FC002016
:10EA70002071012060715521E17020700AE570B5A8
:10EA8000724D0646287828B1BDE870405921102003
:10EA900000F099B801227088114608F09BFA0446EC
:10EAA0007088012109F05AFC844200D20446308863
:10EAB000012100F06FF806460121002000F06AF8FD
:10EAC000304401219630844206D900F19601201A83
:10EAD000B0FBF1F0401C81B2E980002028710120D8
:10EAE00068715921E9702870D4E470B5574D044617
:10EAF000287828B1BDE870405021102000F063B89C
:10EB000000F06EF808B10C200DE0601C0EF01EFF46
:10EB1000207800F0010005F08EFD207800F0010063
:10EB200006F0DDFD00202871012068715021E97098
:10EB30002870AFE470B5454C0546207828B1BDE893
:10EB400070404D21102000F03EB809F063FE08B17E
:10EB50000C2003E0287805F023FE0020207101201E
:10EB600060714D21E170207094E410B501785A294C
:10EB700007D2374A52F8211019B1001D88470120E9
:10EB800010BD002010BD18B1022801D0012070472F
:10EB900000207047012903D080002C3080B27047DC
:10EBA000C0005030FAE7032904D0022907D0C00082
:10EBB000703006E04FF4747101EB801001E08000CA
:10EBC0003C3080B27047214A92F84130002B06D188
:10EBD00082F8420082F84310012082F84100704719
:10EBE00010B508F04BFC042807D008F047FC0528B6
:10EBF00003D009F00FFE002800D0012010BD2DE940
:10EC0000FE4300250F4680460A260421404603F0B5
:10EC1000BFFE40460FF0A7FA062000F0F5FE0446BE
:10EC20001AE06946062000F0D0FE0AE0BDF80400B4
:10EC3000B84206D00298042241460D3011F072FD10
:10EC400078B1684600F09FFE050003E092060020C0
:10EC5000E40C0200EAD0641E002C06DD002DE0D09A
:10EC600005E040460FF088FAF5E705B9FFDFD8F870
:10EC700000000EF0CBFF761E01D00028C5D0BDE805
:10EC8000FE8390F8711041B990F8D01029B190F836
:10EC9000D000042801D0012070470020704701787F
:10ECA00001290AD1416891F8DD20002A05D000220F
:10ECB00081F8DD20406809F081BB70470AB101226C
:10ECC00000E00222024201D0072001E001F007002B
:10ECD0001870704710B5038843F6FD711A1F8A42F9
:10ECE00023D24288141F8C421FD29A421DD8C28957
:10ECF00040F67B43911F994217D2018A8C1F9C4298
:10ED000013D28A4211D8428AB2F5FA7F0DD2828A92
:10ED100040F67744A2F10A03A34206D2B2EBD10F28
:10ED200003D9C18A028B914201D9302010BD0179EB
:10ED300011B1012910D107E0417929B1012903D08E
:10ED4000022901D0032907D1007B38B1012805D061
:10ED5000022803D0032801D0122010BD002010BDCE
:10ED600080B200B5C1074FEA807112D000294FEA86
:10ED7000007104DA002926DB410727D523E00029AA
:10ED80004FEA407119DA00291DDAC0061ED50120AC
:10ED900000BD00294FEA007107DA002913DB4107A3
:10EDA00011D4C00612D5022000BD00290BDB41079B
:10EDB00009D4C0060AD5032000BD002903DAC00625
:10EDC00004D5042000BDC00600D5FFDF002000BD33
:10EDD00080B2C10605D4010713D4C1070FD0800744
:10EDE0000BE0C1074FEA807104D0002902DB400725
:10EDF00005D406E0010704D44007002801DB012008
:10EE000070470020704720B100234360021D01813C
:10EE10000260081D7047026800212AB193881268B9
:10EE2000194489B2002AF9D100234360021D0181EF
:10EE30000260704730B4026800230AB30268938806
:10EE40008B421EBF1368002B1046F7D1B2F804C0E6
:10EE500013468C4508BF116811D001F10804A5B212
:10EE60000024AC4538BF00230AD3ACEB010C11449D
:10EE70000C60A1F804C00268126802600A600160B8
:10EE800030BC1846704700230B608A8002680A6015
:10EE90000160704708440830424301F14A001044C1
:10EEA00080B27047F0B51D460446A818059B08308F
:10EEB00000FB03F205F14A00104486B2B14238BFAC
:10EEC000FFDF002727606760A760E7602761676151
:10EED000A761E76127624FF6FF706762A082A6F123
:10EEE000280080B265776080B0F5004F88BFFFDFF3
:10EEF000608805F13C01884238BFFFDF6088401B15
:10EF00003C3880B220801B2838BF1B202080A77788
:10EF1000F0BD8161886170472DE9F04F0D46C188D1
:10EF2000044600F12808008921F4004320F400423F
:10EF300021F4004620F400474FF0010A4FF0000989
:10EF40009A4208D100F4004001F4004188421CBFFD
:10EF50000020BDE8F08FB7420BD9617FB81B401A83
:10EF6000083885421BDC08EB060000210580418043
:10EF70001EE06088617F801B401AB0F1080B0ED440
:10EF8000BBF11B0FB8BFFFDF5D45D4BF29461FFA99
:10EF90008BF1681A0204120C18BFBA4204DD84F81F
:10EFA00017900020BDE8F08F08EB0600018042803A
:10EFB00084F817A0BDE8F08F2DE9F041044600F178
:10EFC0002802C08820F40043E07D002808BFBDE887
:10EFD000F081D0180288438813448B423CBF002044
:10EFE000BDE8F081002791429CBF0180478013D982
:10EFF000891A0D042D0C45800ED0E088A61D20F442
:10F000000040854288BFFFDF30884FF4004121EA8D
:10F010000000284330800AE0627F008802F1080384
:10F020001044083081B26288A01D00F0A8FBE7758B
:10F030000120BDE8F08130B4B0F804C0C4880346B4
:10F0400000F128052CF400402844A44503D10020F9
:10F05000188230BC7047B3F80CC00488A44509D3AB
:10F060004088ACEB040CA0EB0C0084B20CEB050068
:10F07000C01E06E0A4EB0C045D7FA4B2AC44604467
:10F08000401DB1F800C0A44588BF0C80B3F80CC087
:10F09000BCF1000F0CBF4FF0010C4FF0000C82F8D8
:10F0A00000C00988198230BC70472DE9F041044640
:10F0B00000F12801808820F400404518208A0028AB
:10F0C00008BFBDE8F081A08910B9A069807F2871D0
:10F0D000A089218A084480B2A08129886A881144C5
:10F0E000814238BFFFDF28886D88A2894119002737
:10F0F00091421AD175B1A088261D20F40040A84283
:10F1000038BFFFDF30884FF4004121EA0000284378
:10F11000308009E0627F1044083081B202F10803B8
:10F120006288201D00F02BFBA78127820120BDE80B
:10F13000F0812DE9F0474189B0F8048000270446AA
:10F1400000F1280A414518BF4FF400493AD000BFEA
:10F1500021F40040504446886EB1608904F10A05EC
:10F1600020F40040B04238BFFFDF288829EA0000C1
:10F170003043288021E0637F008803F1080C1844A5
:10F180006389083023F400456288284480B204F182
:10F190000A0190420BD2121A92B20CF11B0C62457A
:10F1A0002CBF03F4004229EA030004D204E0801AD1
:10F1B00080B229EA030210430880781C618987B273
:10F1C0004145C5D13846BDE8F0872DE9F047B0F894
:10F1D00008800B46044600F12801B0F80A908088A8
:10F1E00028F4004C01EB0C05804504BF0020BDE86D
:10F1F000F087002A1CBF681D106023B1627F691D63
:10F20000184611F0BBFA2F886D888DB1E81987B2C6
:10F21000208904F1080620F40040A84238BFFFDF2F
:10F2200030884FF4004121EA0000284330800AE092
:10F23000607F6288C119083100F1080389B204F1C6
:10F24000080000F09CFAC84504BF20896081384658
:10F25000BDE8F0878188C08881420CBF0120002072
:10F2600070470189808881420CBF012000207047CF
:10F2700030B48488C28800F1280324F4004C22F4BE
:10F280000041634494421BD08289048A15191C886A
:10F290005A88A3189D4216D312B18A4210D212E0A6
:10F2A000437F0CF1080C1A196244408892B2801A0C
:10F2B00080B22333984201D211B104E08A4202D1D4
:10F2C00030BC0020704730BC012070472DE9F007AA
:10F2D000B0F806C0048900F1280702462CF4004566
:10F2E0007E1924F400492CF4004A002024F4004341
:10F2F0004FF00108D1450AD104F400440CF4004C4D
:10F30000644504D05082BDE8F00700207047AB424E
:10F3100008D992F81DC05B1BA3EB0C03A3F10804F2
:10F32000002308E0B2F802C0547FACEB050CACEB54
:10F33000040CACF10804002CE4DBB2F80EC0BCF104
:10F34000000F0DD0B6F800C075884DB15B1B10776B
:10F350008B42D7DBD0893844A0EB0C00C01E09E0FB
:10F36000A4EB0C0410778C4208DB507FD38918443F
:10F370003044401D5182BDE8F00770478B42A8BF62
:10F3800082F81C80E6DABDE72DE9F05F044600F163
:10F39000280AC088934620F400400AEB0005608AE2
:10F3A000894608B1484502D20020BDE8F09FE089B7
:10F3B00080B1B5F800806E8808EB0601884218BF5E
:10F3C000FFDF207F4FF0000750EA060108D0002839
:10F3D00040D04AE04FF00008A17F46462971F0E78F
:10F3E000E08948B1617F01444819B4F81F10A0F8C2
:10F3F000051094F82110C171E18908EB0900494416
:10F40000E18128806F80BBF1000F19D0607F2988CF
:10F4100000F108030144083189B26288A01D00F0A0
:10F42000AEF9E781A07F401CA077A07D00281CBF1B
:10F43000E088A082A7756782E7750120BDE8F09F8C
:10F44000607FE18908442844B0F80510A4F81F1033
:10F45000C0792EE0E089B4F81F105044A0EB0800FA
:10F4600020F8031D94F82110817006EB090086B284
:10F47000E089BBF1000F4844E081A5F800806E8070
:10F480000ED0E088A51D20F40040B04238BFFFDF59
:10F4900028884FF4004121EA000030432880C0E76B
:10F4A000E0895044A0EB080030F8031DA4F81F10B9
:10F4B000807884F82100BEE7818800F1280221F4D9
:10F4C000004C6244B0F814C0C388614518BF99422B
:10F4D0000FD0818969B9806968B1018983889942AF
:10F4E00009D021F40041283008441179007988427C
:10F4F00001D1002070471046704700F12803407F7B
:10F5000001F1050C604410600888002804BFD81E73
:10F51000106008884988084480B270472DE9F0419E
:10F5200015460A4600F128061C46407F531D034439
:10F5300010885788069900281CBFC01C80B226D0AE
:10F5400088429CBF081A80B213D9401AA042A8BFB3
:10F5500020461FFA80F858184246294611F0E2F872
:10F56000002818BFBDE8F0814544A4EB080084B230
:10F57000002001198F423CBF4FF0FF30BDE8F08101
:10F58000304422462946BDE8F04111F0CBB8FA1CC0
:10F5900097B2F61ED4E72DE9F04100F128071D4689
:10F5A000407F4B1D0344164608880024B1F80280B2
:10F5B000069A00281CBFC01C80B21FD090429CBF7E
:10F5C000101A80B20DD9801AA842A8BF284684B26A
:10F5D00099182246304611F0D1F8281B85B22644EE
:10F5E00000204119414506D839182A46304611F005
:10F5F000C5F8601984B22046BDE8F08108F1030126
:10F600001FFA81F8FF1ED9E72DE9F04116460A4698
:10F6100000F128071D46407F531D03441088002435
:10F62000B2F80280069900281CBFC01C80B21FD00F
:10F6300088429CBF081A80B20DD9401AA842A8BFC0
:10F64000284684B258182246314611F097F8281BF4
:10F6500085B2264400204119414506D838442A463F
:10F66000314611F08BF8601984B22046BDE8F08174
:10F6700008F103021FFA82F8FF1ED9E7401D704708
:10F6800070B5044600F12801C288808820F4004348
:10F690001944904208D0A289002A04BF228A002A75
:10F6A00002D1A28A904201D1002070BDB1F800C001
:10F6B0004D8885B1261D20F40040A84238BFFFDFE9
:10F6C00030884FF4004121EA0000284330800020B8
:10F6D0002082012070BD607F0CF1080100F1080359
:10F6E000084481B26288201D00F049F8EFE700214C
:10F6F000C18101774182C17581757047038813808C
:10F70000C289002A04BF00207047C28800F1280384
:10F7100022F400421A440A60C089704710B50446BA
:10F72000808AA0F57F41FF3918BFFFDFE088A08203
:10F73000E089002818BF0120A07510BD4FF6FF71A9
:10F74000818200218175704710B50446808AA0F53A
:10F750007F41FF3908BFFFDFA07D28B9A088A18ABB
:10F76000884204BF002010BD012010BD8188828A1C
:10F77000914205BF807D002800200120704710B411
:10F78000B0F800C02CF40044214489B24FF4004486
:10F7900091420AD2521A92B21B339A422CBF0CF4F5
:10F7A000004224EA0C0104D204E0891A89B224EA56
:10F7B0000C021143018010BC704770B516464FF61D
:10F7C000FC72C91C01EA0205D8B10446C01C20F035
:10F7D0000301A14200D0FFDF201D012108E0024605
:10F7E000284401D2034600E00023491CC9B213603B
:10F7F000B142F4D916B104F1040001E04FF0000069
:10F80000206005FB06F000F1040070BD02460020F8
:10F810001168002902D00846096811607047026823
:10F820000A60016070474FF6FC73C91C1940101A3A
:10F83000001F90FBF1F0C0B270474FF6FC73C91C7B
:10F840001940001D01FB0200704700002DE9F04146
:10F85000C14D04469046A8780E46A04200D8FFDF6E
:10F8600005EB8607B86A50F8240000B1FFDFB868DE
:10F87000FFF7CCFF05000CD0B86A082E40F82450E2
:10F8800000D3FFDFB5484246294650F826302046CF
:10F8900098472846BDE8F0812DE9F0471E46040050
:10F8A000074602EB060091468A46C5B227D00021E2
:10F8B0008846FF2800D9FFDFE01C20F00300A042AB
:10F8C00000D0FFDFB24500D9FFDFA34880F800A0D9
:10F8D00080F801908570C570057145718671DFF8FB
:10F8E0007CA280F8079000260AF1400A8146FF1C9E
:10F8F00027F003000746B8F1000F03D005E04FF0F2
:10F900000101D5E709EB860188603AF8161019F86D
:10F91000062001D04FF00000FFF74FFF761CF6B233
:10F920000744082EE3D3FF1C27F003002A460646AF
:10F93000B8F1000F0DD000200221FFF73EFF434633
:10F94000002130440F46C846C01C20F003021BB102
:10F9500010E0C9F84800EFE708EB81060020B2622A
:10F9600006E000BFD6F828C04CF82070401CC0B29A
:10F97000A842F7D3491CC9B202EB85000829E3D39A
:10F98000001BBDE8F08710B5044603F07DFB08B10D
:10F99000102010BD2078704A618802EB80009278B8
:10F9A0000EE0836A53F8213043B14A1C6280A18083
:10F9B000806A50F82100A060002010BD491C89B267
:10F9C0008A42EED86180052010BD70B505460C4610
:10F9D000084603F059FB08B1102070BD082D01D373
:10F9E000072070BD25700020608070BD0EB569468F
:10F9F000FFF7EBFF00B1FFDF6846FFF7C4FF08B178
:10FA000000200EBD01200EBD10B50446082800D30D
:10FA1000FFDF5148005D10BD3EB505460024694634
:10FA2000FFF7D3FF18B1FFDF01E0641CE4B26846C2
:10FA3000FFF7A9FF0028F8D02846FFF7E5FF001BD5
:10FA4000C0B23EBD44498978814201D9C0B27047F5
:10FA5000FF2070472DE9F04190460C4605460629E7
:10FA600001D0072C10D13C4FB86CFFF7CFFE02003D
:10FA70004FF6FF7604D00221B86CFFF7D4FE00E009
:10FA800030462880B04201D1002003E7424621469B
:10FA9000FFF7DCFE040002D1288800F04FF8204672
:10FAA000F8E6A0F57F43FF3B01D0082901D30020F1
:10FAB0007047CBE6A0F57F42FF3A0BD0082909D268
:10FAC000254A9378834205D902EB8101896A51F86E
:10FAD00020007047002070472DE9F04105460C4694
:10FAE000A5F57F4143F20200FF3902D0082C01D373
:10FAF0000720CFE618494FF000088A78AA42F8D9C3
:10FB000001EB8406B26A52F82570002FF1D0134839
:10FB10003946203050F8242028469047B16A062CF8
:10FB200041F8258001D0072C02D1284600F006F8C4
:10FB30003946B068FFF773FE0020ABE610B5064CFF
:10FB4000C2B20221A06CFFF778FE0146A06CBDE8AE
:10FB50001040FFF764BE0000FC0600204C0E0200BF
:10FB600070B50E461D46114600F0D5F804462946EC
:10FB7000304600F0D9F82044001D70BD2DE9F04159
:10FB800090460D4604004FF0000610D00027E01C00
:10FB900020F00300A04200D0FFDFE5B14146002085
:10FBA000FFF731F90C3000EB850617B113E00127A0
:10FBB000EDE7624F04F10C00A9003C602572606023
:10FBC00000EB85002060606810F071FE38684146E7
:10FBD0000068FFF718F93046BDE8F0812DE9FF4FC6
:10FBE000564C804681B020689A46934600B9FFDFA4
:10FBF0002068027A424503D9416851F8280020B1B3
:10FC000043F2020005B0BDE8F08F5146029800F0C3
:10FC100082F886B258460E9900F086F885B27019BF
:10FC2000001D87B22068A14639460068FFF702F937
:10FC300004001FD0678025802946201D0E9D0746A1
:10FC40005A4601230095FFF72DF9208831463844A4
:10FC50000123029ACDF800A0FFF724F92088C119EA
:10FC60003846FFF756F9D9F800004168002041F8FE
:10FC70002840C7E70420C5E770B5304C054620682A
:10FC800000B9FFDF2068017AA9420ED9426852F814
:10FC9000251051B1002342F825304A880068FFF74B
:10FCA000F2F8216800200A7A08E043F2020070BDF1
:10FCB0004B6853F8203033B9401CC0B28242F7D8A9
:10FCC0000868FFF7A8F8002070BD70B51B4E054608
:10FCD0000024306800B9FFDF3068017AA94204D9F6
:10FCE000406850F8250000B1041D204670BD70B575
:10FCF000124E05460024306800B9FFDF3068017AF3
:10FD0000A94206D9406850F8251011B131F8040B0A
:10FD10004418204670BD10B50A460121FFF7BAF815
:10FD2000C01C20F0030010BD10B50A460121FFF7EA
:10FD3000B1F8C01C20F0030010BD000068000020D6
:10FD400070B5044600780E4601281AD0072802D064
:10FD50000C281AD115E0A068216905780B2D0CD06C
:10FD6000052003F027F9052D0FD078230022052068
:10FD7000D4F8101003F07EF807E078230022062064
:10FD8000F8E70520216903F015F931462046BDE862
:10FD9000704001F0ADB910B500F13902C379947823
:10FDA000411D64F003042340C371DB070DD04B7980
:10FDB000547923404B710B79127913400B7182787F
:10FDC000C9788A4200D9817010BD00224A710A7137
:10FDD000F5E74178012900D00C21017070472DE929
:10FDE000F74F86B000208C690D468DF80400097825
:10FDF0000127FA4816464FF0070A4FF011094FF055
:10FE00000A0B2A2978D2DFE811F02A0011035203E5
:10FE10006903A803B303CC03FA030F043B04620491
:10FE200081049A04D504E60405051005300554053F
:10FE300077059C05C605E005EE050F06270630068A
:10FE400063068506D6060D071B074B076A07790769
:10FE50008A07C407FB072708E407E807ED0714B182
:10FE600020781D2829D0D5F808805FEA080043D003
:10FE700001208DF80400686A059003208DF80800C1
:10FE80008DF809B0286A0390A8880028EFD098F868
:10FE9000001091B10F2910D27ED2DFE801F07D145D
:10FEA0004CDCFDFCFBFAF9F8F7089FF6F500022898
:10FEB00022D124B120780C2801D0002770E3022041
:10FEC0008DF80400ACE10620696A03F073F8A88895
:10FED0000728EDD1204601F006F9022809D0204676
:10FEE00001F001F9032808D9204601F0FCF80728A1
:10FEF00003D20120207005E011E2002CB7D0207859
:10FF00000128D5D198F80400C11F0A2903D300BFE6
:10FF100085F81CB089E2A070D8F80010A163B8F889
:10FF20000410A18798F8060084F83E00012028708C
:10FF30000320207046E00728BAD1002C97D0207803
:10FF40000D28B5D198F8031094F83B20C1F3C000F8
:10FF5000C2F3C002104201D00E2000E00F2089073A
:10FF600007D198F805100142D2D198F80610014245
:10FF7000CED194F83D2098F8051020EA02021142F3
:10FF8000C6D194F83E2098F8061090430142BFD1A4
:10FF900098F80400C11F00E045E20A29B8D2617F49
:10FFA000814201D90620C2E3D8F800106160B8F898
:10FFB0000410218198F80600A072012028700E20FC
:10FFC000207003208DF80400686A059004F1390060
:10FFD0000290601D03901730049067E2412890D191
:10FFE000204601F080F8042802D1E078C00704D14F
:10FFF000204601F078F80F289ED1A88CEF6880B2D7
:020000040001F9
:100000004FF0400AD4F82480FFF75FFE39460827F6
:10001000424653460097FFF7BEFA0E208DF80400C3
:10002000686A0590606A0290002101A8FFF788FEC7
:100030002078042806D0A07F38B1012805D00328F5
:1000400006D0AEE3052020700BE284F8009034E780
:100050001220207066E01128C1D1204601F043F83B
:10006000042802D1E078C00719D0204601F03BF8FF
:10007000062805D1E078C00711D1A07F02280ED054
:10008000204601F030F808E0AFE07DE09AE16EE153
:100090004EE106E1E5E0CBE01CE011289FD1102203
:1000A00008F1010104F1480010F068FB60780128B4
:1000B0000DD012202070E078C00703D0A07F88B355
:1000C00001282FD085F800B08DF804B0F0E384F853
:1000D00000A027E011288FD1204601F004F808285D
:1000E00004D0204600F0FFFF132885D12869D8B13D
:1000F0006869C8B104F17800102208F101010746CF
:1001000010F03CFB2078082812D014202070E078F2
:10011000C0070FD0A07F022818D06178022912D022
:100120000328CFD10420FDE300208DF80400F6E081
:100130000920EBE70B202870296901204870206C0A
:10014000C1E9010792E208B1012870D10B202870A3
:10015000296981F801A0606A4860206AC1E9020744
:1001600078E2206CE2780068C2F34402521ED0406C
:1001700000F0010040F0800000E000200874E06A18
:1001800048617CE20746F9E31128D0D1204600F00F
:10019000AAFF0A2802D1E078C00704D1204600F067
:1001A000A2FF1528C3D1102208F1010104F1480073
:1001B00010F0E4FA20780A2812D0162020701220BD
:1001C000287029690920487004F1580048602030DF
:1001D00088601038C860206C0861ACE3C40F02006E
:1001E0000B202070E4E22870D9E102289FD120463C
:1001F00000F079FF042804D3204600F074FF08289B
:1002000009D3204600F06FFF0E2890D3204600F05F
:100210006AFF12288BD2A07F022888D18DF8049023
:10022000686A059098F801008DF80800FBE36CE21D
:100230000228AAD1204600F056FF00286FD02046A1
:1002400000F051FF0128F9D0204600F04CFF0C28A7
:10025000F4D005208DF8080098F801008DF8090009
:1002600065E71128FCD1002CFAD020781728F7D1A7
:100270006178E06A022912D05FF0000101EB4101D0
:10028000182606EBC1011022405808F1010110F0B8
:1002900075FA0520696A00F019FF26700DE6012144
:1002A000ECE70B28DCD1002CDAD020781828D7D145
:1002B0006178E06A02292CD05FF0000101EB410176
:1002C000102202EBC1014158B8F8010008806078A3
:1002D000E16A022820D0002000EB4002142000EB4D
:1002E000C2000958404650F8032F0A604068486031
:1002F0000520696A00F0EAFE6078022810D04FF00D
:1003000000002044407A20F001000CD14FF00101A0
:100310000BE04FF00101D1E74FF00100DCE77FE295
:100320004FF00100EDE74FF000012144487279E3FE
:10033000112895D1002C93D02078192890D160787D
:10034000E16A022811D0002000EB40021C2000EBE3
:10035000C2001022085808F1010110F00FFA052020
:10036000696A00F0B3FE1A20F5E00120ECE70828E6
:1003700098D1002C98D020781A2893D1E06A98F868
:100380000120017862F347010170E16AD8F8022088
:1003900041F8012FB8F8060088800520696A00F04E
:1003A00095FE6078022807D04FF000002044407A84
:1003B00020F002012BD033E04FF00100F6E720449B
:1003C00041722FE31128B4D1002CB4D020781B281F
:1003D000AFD16178E06A02291CD0002101EB410114
:1003E000202202EBC1011022405808F1010110F057
:1003F000C5F90520696A00F069FE607802280CD012
:100400004FF000002044407A20F0040108D14FF062
:100410000100D4E74FF00101E0E74FF00100F1E700
:100420004FF00000CBE785F81CA0FAE330780128F4
:1004300084D11C2204F11C00716810F0E4F9E07909
:10044000C10894F83B0001EAD001E07861F30000B4
:10045000E070217FF1BB217803290AD0C0073FF467
:10046000F9AD032028708DF804B0686A059041202A
:100470009EE3607FA17888423FF694AD0227277102
:10048000E179204621F0E001E171617A21F0F0018B
:100490006172A17A21F0F001A172FFF77CFC2F704C
:1004A0008DF804B0686A05908DF808A0F2E3307802
:1004B000112888D18DF804A0696A0591B16803916B
:1004C000ADF808A008466168016021898180A17AA1
:1004D000817100E06AE004202070A4E230781128E5
:1004E000A6D18DF804A0686A0590301D02AB07C83C
:1004F00083E807004120ADF8080008460C21017090
:10050000A88CD6F80C8080B24027D4F82090FFF752
:10051000EEFB41464FF008084A463B46CDF80080C6
:10052000FFF772F8002101A8FFF70AFCE07820F03D
:100530003E00801CE0702078052801D00F200AE0E2
:10054000A07F00283FF4C3AD0128FBD003287DD154
:1005500084F80080B1E42070AFE430780328A8D19B
:1005600070680168A1664068E0660520287035E281
:10057000317803299DD171680A68226749686167EB
:10058000216C51B9A17F19B1012901D0062029E1BF
:1005900085F800A02064606401E085F800A00327CE
:1005A000F3E33178022984D1317909B1297737E130
:1005B000A17F022910D00329EFD16178012910D041
:1005C000A17994F83A2001290FD02064E178C90775
:1005D00013D0012A0ED010E0B0680028E7D02064C4
:1005E0000BE0A27994F83A10EDE7B1680029DED06B
:1005F0002164EBE7F0680028D9D06064CDE78DF87E
:1006000004B0696A0591E1785846C90709D0617854
:10061000022903D1A17F29B1012903D0A17F032998
:1006200000D00820287012E230781128BFD1B068BD
:10063000286209202870E0782969C0070FD081F866
:1006400001A0206A4860606A886000E0ABE004F1C5
:100650006800C860A07F02287FF48FAD81E501208B
:100660004870206C486004F16800886004F138002C
:10067000C860201D0861206B4861606B88611FE2C3
:10068000E1783078C90701D0062100E00A218842CC
:100690008DD12078072817D084F800908DF804A019
:1006A000686A0590286A0390ADF80890032100F865
:1006B000011B1022716810F061F8002101A8FFF7FA
:1006C0003FFB00202862C2E408202070E6E7307873
:1006D0001128ABD18DF804A0686A0590B06803902A
:1006E000ADF80890042100F8011B102204F1680104
:1006F00010F044F8002101A8FFF722FB2078092818
:1007000001D0132027E784F800B016E0E1783078B4
:10071000C90701D0062100E00A21884286D11022B3
:1007200004F1480071680FF0FDFF10B10420287734
:10073000A2E3207809283FF4C5AC0C2053E5E0780B
:10074000C10735D0A17F012902D002291BD02CE09E
:100750000D202870296981F801B06078012809D03E
:10076000206A4860606A886004F16800C8601030E0
:10077000086104E5606A4860206A886004F17800D6
:10078000C8601038F4E7C0F3440114290DD24FF0CB
:10079000006101EBB0104FEAB060E07060780128B2
:1007A00001D0102055E40620D5E6607801288AD0D3
:1007B0000E2018E5307809288BD185F800B010207C
:1007C0008DF80400686A059070680290002101A805
:1007D000FFF7B6FAE9E7E078C00706D0A07F012866
:1007E0001FD10F2028700420F8E0152028702969F7
:1007F00002204870206C48606078012805D004F120
:10080000780088601038C8605AE104F16800886098
:100810001030F8E730780228CED1307908B1287747
:1008200028E3102028700F20D8E030781328F7D163
:1008300085F80090296908204870706848606078E1
:1008400001280DD004F1680088601030C860206B6A
:100850000861606B486104F158008861A06A21E07A
:1008600004F1780088601038F0E730780728D7D195
:10087000607801281AD1A078A16A0A18C0F1100185
:1008800010460FF0F2FF12202870296909204870E5
:1008900004F158004860203088601038C860206C2F
:1008A000086141E0C861E06A086209E11320C9E01B
:1008B000CBE030780828B3D1102204F148007168E9
:1008C0000FF030FF08B10B2031E720780B28EDD076
:1008D0002046FFF760FAA078A16A0A18C0F110015B
:1008E00010460FF0C2FF1620287008208DF8040073
:1008F000686A0590002049E03078112890D1B068EE
:1009000028621420287029690920487004F15800D1
:100910004860103088601030C860606C0861607892
:10092000012800E09EE006D004F139004861206B08
:100930008861606BB6E7601D4861606B8861206B01
:10094000B0E73078082892D18DF804A0686A059045
:10095000286A0390ADF808900D2100F8011B1022C1
:1009600071680FF00BFF002101A8FFF7E9F90020E3
:1009700028626178012902D01520ECE569E2162190
:10098000297008218DF80410696A05910290A078F9
:100990008DF80C007EE130780B288CD11620287061
:1009A0006078022802D12046FFF7F5F9A078716837
:1009B0000A18C0F1100110460FF057FF08208DF8FB
:1009C0000400686A05907068E0E730780F2895D1D8
:1009D000E079C0077BD01720287009208DF804002B
:1009E000686A059056E13078102887D11422311DAD
:1009F00004F11C000FF007FFE16A208DA1F8090047
:100A0000E16AA078C871E179E26A01F0030111722C
:100A1000E16A627A0A73E16AA07A81F82400607858
:100A2000012876D0B3E13EE26078022801D00120AF
:100A300000E000202044407AC0070BD0E078C007D7
:100A400008D1192028708DF804B0686A05908DF8D7
:100A500008901FE11E2071E63078112874D1B0682B
:100A600028621A2028700520B8E7307803286BD157
:100A70006078E26A022801D0012000E0002000EB4B
:100A80004001142000EBC1015158726813680B60DB
:100A900052684A601B212970D5E9041205234B7066
:100AA000636A4B606778E36A022F01D0012700E098
:100AB000002707EB470700EBC7001858C1E90202FF
:100AC000686A4862069800F02AFBFFF75BBB87E183
:100AD00030780E2838D16078E26A022801D00120EF
:100AE00000E0002000EB4000102101EBC0000223D9
:100AF0001058093271680EF055FA1C2028702969C7
:100B000004204870206A4860E06A09308860FA482A
:100B100079E65AE130780D2816D16178E06A022929
:100B200001D0012100E0002101EB4101182707EB72
:100B3000C101A278405871680FF020FE6178E06A28
:100B4000022902D0012101E0A9E0002101EB4101CD
:100B500007EBC1014058A1780844C1F110010FF022
:100B600084FE8DF804A0686A0590286A0390ADF8A9
:100B70000890062101706278E16A022A01D0012200
:100B800000E0002202EB420207EBC202401C89583F
:100B900010220FF0F3FD002101A8FFF7D1F800208B
:100BA00028621D2028708DF804B0686A05900B201B
:100BB0008DF808006EE03078112870D18DF804A00F
:100BC000686A0590B06803900B20ADF808000398A0
:100BD00080F800A06278E16A022A01D0012200E0D8
:100BE000002202EB4202102303EBC202895809885B
:100BF000A0F801106178E26A022901D0012100E029
:100C0000002101EB4103142101EBC30151580A6893
:100C100040F8032F49684160002101A8FFF790F8D0
:100C200018E729E16078022801D0012000E00020C7
:100C30002044407A800701D51F2003E721207DE56D
:100C4000307811282BD18DF804A0686A0590B0681F
:100C50000390ADF80890082707706178E26A0229CE
:100C600001D0012100E0002101EB41031C2101EB37
:100C7000C301401C515810220FF080FD002101A833
:100C8000FFF75EF8202028708DF804B0686A0590A0
:100C90008DF80870314601A8FFF752F815E775E0A6
:100CA0003078112872D18DF804A0686A0590B06878
:100CB00003900820ADF80800039809210170E1694C
:100CC000097849084170E16951F8012FC0F8022004
:100CD0008988C180002101A8FFF732F8AEE760786B
:100CE000022801D0012100E000212144497A49076E
:100CF00001D52220A6E6012849D068E030781128E5
:100D000044D1B068286223202870296904204870E3
:100D1000206A4860E06A09308860784873E5307876
:100D20000D2833D16178E06A022901D0012100E069
:100D3000002101EB4101202707EBC101102240589F
:100D400071680FF01BFD8DF804A0686A0590286A91
:100D50000390ADF8089080F800B06278E16A022A4A
:100D600001D0012200E0002202EB420207EBC202A6
:100D7000401C895810220FF001FD002101A8FEF748
:100D8000DFFF002028626078B5E791E037E024209B
:100D9000D4E4607802280BD000202044407AC107B8
:100DA00002D0E178C90705D0810705D51920A9E44B
:100DB0000120F2E71720A5E4400701D51B20A1E49C
:100DC0001C2020706078012801D01820B6E427206C
:100DD000B4E4282028700B2000E63078122849D18E
:100DE0002920ABE42078012844D00C2842D02046AA
:100DF000FEF7EFFF0C208DF80400686A059039E0DB
:100E000030784FF02608112805D0122030700327C3
:100E100085F800804CE08DF804A0686A0590B06801
:100E200003900220ADF80800039805210170297F86
:100E30004170002101A8FEF783FF0B208DF804000C
:100E4000686A0590314601A8FEF77AFF074685F8E3
:100E50000080012F0ED02BE001208DF80400686A7D
:100E6000059004208DF80800287F8DF809000020E7
:100E7000287712E0287F80B11D202070252028705F
:100E80008DF804B0686A059002208DF8080031469C
:100E900001A8FEF755FF07460AE00CB1FE202070BE
:100EA0009DF8040020B1002101A8FEF749FF0AE4E3
:100EB00009B03846BDE8F08F2DE9F04F85B00C46FB
:100EC0004E69002190468DF8041001272278BA4619
:100ED0004FF00209072022B1012A51D0022A20D165
:100EE000CAE0217901290BD0022916D0032911D09B
:100EF000042916D11CE00000BC0F0200FE2F0000E8
:100F0000707801280CD10620616A02F029F80028C7
:100F100007D11CE01D20307019E07178022901D042
:100F2000052798E031780C2929D18DF8040010E0CC
:100F3000B07F022823D13078011F042904D30A3955
:100F4000032901D31D281AD12089022817D38DF82F
:100F5000049084F800A020899DF80410884203D2F0
:100F60000A208DF800003FE01121083488F80010B5
:100F700094E80E00C8E901120327C8F80C306AE0B3
:100F800098F80020112A66D18DF80000626A049258
:100F9000D8F80850029522794FF00B0B012A06D0A1
:100FA000022A29D0032A11D0042A54D159E0ADF8DD
:100FB000049085F800B0207E4F4600F01F00687056
:100FC00000216846FEF7BCFE377043E0ADF80490A0
:100FD00005202870207E68704E4600216846FEF786
:100FE000AFFE26708DF800B0606A049041466846F6
:100FF000FEF7A6FE07462EE0ADF8040085F800A037
:10100000207F6870607F00F00100A870A07F00F072
:101010001F00E870E27F2A71C0071FD094F82000FB
:1010200000F00F00687194F8210000F00F00A87123
:1010300000216846FEF784FE2868B063A888B08760
:10104000A87986F83E00A069407870772879B0705A
:101050000D2030700027384605B02BE7A971697163
:10106000E6E7ADF804900E202870207E687000211D
:101070006846FEF765FEEDE7FE2030708DF800A0B3
:10108000606A049004208DF80400207E8DF805002D
:10109000EDE700B50023012285B0052810D0062811
:1010A0000CD102208DF8002004918DF8040000BFBF
:1010B0008DF8053000216846FEF742FE05B000BD00
:1010C0008DF8002004918DF80420F1E770B50C46EE
:1010D000054601F06FFF21462846BDE870407823A1
:1010E000002201F0C7BE08B1007870470C2070479D
:1010F00070B50C0005784FF000010CD0217021462E
:10110000F4F7B4F874482178405D884201D1032097
:1011100070BD022070BDF4F7A9F8002070BD027BFD
:10112000032A05D000220A704B780B2B02D003E073
:10113000042070470A770A62027B9300521C0273F4
:10114000C15003207047F0B585B00F460546012415
:10115000287B05EB800050F8046C7078411E0C2948
:101160000AD25D493A46123101EB8000314650F80F
:10117000043C2846984704460CB1012C11D1287B29
:10118000401E10F0FF00287301D00324E0E70D207B
:101190008DF80000706A0490002101966846FFF700
:1011A000A7FF032CD4D005B02046F0BD70B515467E
:1011B0000A46044629461046FFF7C5FF064674B1A5
:1011C0002078FE280BD1207E30B1002028702946DF
:1011D00004F10C00FFF7B7FF2046FEF7FAFD30469A
:1011E00070BD704770B50E46044688210FF05FFB56
:1011F0000225012E03D0022E04D0052070BD01204F
:10120000607000E065702046FEF7E3FDA5770020E2
:1012100070BD28B1027E1AB10A4600F10C01C5E783
:101220000120704730B5044687B00D46062001F016
:10123000C1FE2946052001F0BDFE2078FE2806D01B
:1012400000208DF8000069462046FFF7E2FF07B056
:1012500030BD7FB50E4600218DF80C1041780B296A
:1012600003D00C2903D0002405E0846900E0446920
:101270000CB1217E91B16D4601462846FFF74FFF24
:10128000032809D1324629462046FFF78FFF9DF8F3
:101290000C10002900D0042004B070BD04F10C052E
:1012A000EAE710B590B00C4607900B480421801E69
:1012B00008900A488DF8191009900F92694606A8FF
:1012C000FFF7C7FF002805D11022204601990FF033
:1012D00055FA002010B010BD9E0E0200BC0F020097
:1012E00070B50D46040011D085B1210128460FF0DC
:1012F000BCFA10224E4928460FF040FA4C48012112
:101300000838018044804560002070BD012070BD18
:1013100070B5474E00240546083E10E07068AA7B71
:1013200000EB0410817B914208D1C17BEA7B9142A2
:1013300004D10C2229460FF0F5F930B1641C308835
:101340008442EBDB4FF0FF3070BD204670BD70B5BE
:101350000D46060006D02DB1FFF7DAFF002803DBAB
:10136000401C14E0102070BD314C083C208862887D
:10137000411C914201D9042070BD6168102201EB2B
:10138000001031460FF0FAF92088401C20802870A8
:10139000002070BD70B514460D0018D0BCB10021FE
:1013A000A170022802D0102811D105E0288870B160
:1013B0000121A170108008E02846FFF7A9FF00284E
:1013C00005DB401CA070A8892080002070BD012092
:1013D00070BD70B5054614460E000BD0002030706D
:1013E000A878012808D005D91149A1F108010A8877
:1013F00090420AD9012070BD24B128782070288835
:10140000000A5070022008700FE064B14968102291
:1014100001EB0011204610390FF0B0F92878207345
:101420002888000A607310203070002070BD000012
:10143000740000202DE9F04190460C460746002537
:10144000FE48072F00EB881607D2DFE807F00707F2
:10145000070704040400012500E0FFDF06F814700C
:10146000002D13D0F548803000EB880191F827005B
:10147000202803D006EB4000447001E081F82640AC
:1014800006EB44022020507081F82740BDE8F0812F
:10149000F0B51F4614460E460546202A00D1FFDF50
:1014A000E649E648803100EB871C0CEB440001EB79
:1014B0008702202E07D00CEB460140784B7848700D
:1014C000184620210AE092F82530407882F825005D
:1014D000F6E701460CEB410005704078A142F8D1D7
:1014E00092F82740202C03D00CEB4404637001E0F9
:1014F00082F826300CEB41042023637082F8271019
:10150000F0BD30B50D46CE4B44190022181A72EBCF
:10151000020100D2FFDFCB48854200DDFFDFC94872
:101520004042854200DAFFDFC548401C844207DAAA
:10153000002C01DB204630BDC148401C201830BDC6
:10154000BF48C043FAE710B504460168407ABE4A76
:1015500052F82020114450B10220084420F07F406E
:10156000F1F72BFB94F90810BDE81040C9E70420FF
:10157000F3E72DE9F047B14E803696F82D50DFF8AD
:10158000BC9206EB850090F8264038E009EB851701
:101590004FF0070817F81400012806D0042816D0C9
:1015A000052816D0062800D0FFDF00F056FF07EB15
:1015B00044014A7806EB850181F8262091F827201E
:1015C000A24202D1202281F8272028B105E0022082
:1015D00000E003208046E8E762B62A462146012063
:1015E000FFF728FF9948414600EB041002682046A7
:1015F000904796F82D5006EB850090F82640202C59
:10160000C4D1BDE8F08710B58C4C2021803484F81B
:10161000251084F8261084F82710002084F828006C
:1016200084F82D0084F82E10411EA16044F8100BA0
:101630002074607420736073A0738549E07720750F
:101640000870487000217D4AB4F1100402F81100BE
:10165000491CC9B22029F9D30120F1F79CF90020D7
:10166000F1F799F9012084F82200F8F79BFD7948F9
:10167000F8F7A7FD764CA41E20707748F8F7A1FD77
:101680006070BDE81040F1F713B910B5F1F735F906
:101690006F4CA41E2078F8F7ADFD6078F8F7AAFD2E
:1016A000BDE8104000F003BF202070472DE9F34F44
:1016B000624E0025803606EB810A89B09AF8250033
:1016C000202822D0691E02916049009501EB00108C
:1016D0008146D0E90112C0680391CDE90420B08BA6
:1016E000ADF81C00B07F8DF81E009DF81500C8B144
:1016F0000227554951F820400399E219114421F07D
:101700007F41019184B102210FE00120F1F743F9FB
:101710000020F1F740F9F1F70EF900F0C8FE86F865
:101720002F508AE00427E4E700218DF818100228E2
:1017300001D001281BD10398391901440998081ACE
:1017400020F07F4033280BD903208DF81500039833
:10175000C4F13201401A20F07F40322403900CE0A3
:1017600096F8240018B901F029F800284DD0322C41
:1017700003D214B100F08FFE01E000F098FE344A6D
:10178000107820B393465278039B121B00219DF8DA
:101790001840984601281BD0032819D05FF000009C
:1017A0008DF81E00002A04DD981A039001208DF8A0
:1017B00018009DF81C0000B102210398274A20F070
:1017C0007F40039003AB099800F07DFE10B110E05C
:1017D0000120E5E79DF81D0018B99BF800000328DB
:1017E00012D08DF81C50CDF80C808DF818408DF873
:1017F0001E509DF8180058B103980123C11900220A
:101800001846F1F71BF906E000200BB0BDE8F08F99
:101810000120F1F7C0F899F90C200123002001996B
:10182000F1F70CF9012086F82F008AF828500348B8
:101830002022694680300EF0E6FF11E048090020C2
:10184000FF7F841E0020A107E00E02004807002051
:1018500086000020232D010073150100FFFF3F00CB
:101860000120D2E72DE9F05FDFF88C84064608EB13
:10187000860090F82550202D1FD0A8F180002C461E
:1018800000EB8617A0F50079DFF870B405E0A246FA
:1018900007EB4A004478202C0AD0F1F71BF909EB3A
:1018A00004135A4601211B1D00F00DFE0028EED046
:1018B000AC4202D0334652461AE0F1F70BF998F8E1
:1018C0002F206AB1D8F80C20411C891A0902CA17C6
:1018D00001EB12610912002902DD0020BDE8F09F32
:1018E0003146FFF7E3FE08B10120F7E733462A4609
:1018F00020210420FFF7CCFDEFE72DE9F041FE4C5D
:101900002569F1F7E7F8401B0002C11700EB1160F1
:10191000001200D4FFDF94F8220000B1FFDF01279E
:1019200084F8227094F82E00202800D1FFDF94F86C
:101930002E60202084F82E00002584F82F5084F893
:10194000205084F82150EE4825600078022833D0DA
:10195000032831D000202077A068401C05D04FF02C
:10196000FF30A0600120F1F716F80020F1F713F81E
:10197000F1F711F9F1F709F9F0F7DDFF0EF0ACFA24
:10198000E048056005604FF0E0214FF40040B846A4
:10199000C1F88002F1F799F994F82D703846FFF7F5
:1019A00061FF0028FAD0D448803800EB871010F887
:1019B0001600022802D006E00120CCE73A46314664
:1019C0000620FFF737FD84F8238004EB870090F8AA
:1019D0002600202804D0CA48801E4078F8F710FC62
:1019E000207F002803D0F1F7C6F8257765774DE50D
:1019F0000146C14810B590F82D200024803800EB36
:101A0000821000BF10F814302BB1641CE4B2202CFB
:101A1000F8D3202010BDBC4800EB04100160214623
:101A20000120FFF707FD204610BD10B5012801D0A9
:101A3000032800D171B3B04A92F82D30AE4C002289
:101A4000803C04EB831300BF13F812400CB1082054
:101A500010BD521CD2B2202AF6D3A94A48B102289E
:101A600007D0072916D2DFE801F01506080A0C0E88
:101A7000100000210AE01B2108E03A2106E058216D
:101A800004E0772102E0962100E0B521517010704A
:101A9000002010BD072010BD994810B54078F1F71F
:101AA0008CF880B210BD10B5202811D2924991F85F
:101AB0002D30A1F1800202EB831414F810303BB1F9
:101AC00091F82D3002EB831212F81020012A01D078
:101AD000002010BD91F82D2001460020FFF7AAFC40
:101AE000012010BD10B5F0F7F5FFBDE81040F1F78B
:101AF00064B8F0B5804F04782025803F264607EB78
:101B0000831303E0254603EB45046478944202D036
:101B1000202CF7D108E0202C06D0A64206D103EBFA
:101B200046025278027007E00020F0BD03EB44004B
:101B300003EB45024078507019B10878A04200D1FB
:101B40000D700120F0BD10B542680B689A1A1202A0
:101B5000D41702EB1462121216D4497A91B1427A68
:101B600082B96A4A006852F8211012681944104478
:101B7000001D891C081A0002C11700EB1160001239
:101B8000322801DB012010BD002010BD2DE9F047F7
:101B9000814659485C4E00EB8100984690F82540FC
:101BA0002020107006F50070154600EB81170AE042
:101BB00006EB04104946001DFFF7C5FF28B107EBEF
:101BC00044002C704478202CF2D1297888F8001039
:101BD00013E000BF06EB0415291D4846FFF7B3FFCD
:101BE00068B988F80040A97B99F80A00814201D8B9
:101BF000002006E507EB44004478202CEAD10120C0
:101C0000FFE42DE9FC410E46074600243E4D08E066
:101C10009DF8000005EB00108168384600F067FC75
:101C200001246B4601AA31463846FFF7AFFF002872
:101C3000EED02046BDE8FC8170B504462E48012553
:101C40008038A54300EB841100EB851040220EF094
:101C500095FD294800EB850100EB8400D0F82500B4
:101C6000C1F82500284670BD2DE9FC418446224874
:101C700015468038089C00EB85170E4617F81400AF
:101C8000012803D0022801D00020D3E70B461B4ACD
:101C90000121604600F017FCA0B101AB6A4629465D
:101CA0003046FFF773FF68B19DF804209DF80010DF
:101CB00011488A4200EB850608D02B460520FFF725
:101CC000E7FB0BE02A462146042014E0202903D03C
:101CD00007EB4100407801E096F8250007EB44014E
:101CE00048709DF80000202816D007EB4000447093
:101CF0002A46214603200BE0C8090020FFFF3F00D1
:101D00008600002000F5004048070020E00E020099
:101D1000FFF790FB01208DE706F8254F0120F070BA
:101D2000E6E7FA4901EB0010001D0CE47CB51D4606
:101D3000134604460E4600F1080221461846F0F705
:101D400049FF94F908000F2804DD1F38207220682D
:101D5000401C206096B10220ED4951F8261046182B
:101D600020686946801B20F07F40206094F90800BD
:101D70002844C01C1F2803DA012009E00420EBE7F7
:101D800001AAF0F727FF9DF8040010B10098401C4D
:101D900000900099206831440844C01C20F07F4026
:101DA00060607CBD2DE9FE430C46074609786079EA
:101DB0009072207998461546507241B1781D20F0F6
:101DC0007F46D44890F82E00202808D00AE0D4E9B5
:101DD0000223217903B02846BDE8F043A6E7CE48A8
:101DE00040780644217900222846A368FFF79EFF29
:101DF0003146284600F07BFBD4E90232217968465F
:101E0000FFF794FF41462846019CFFF7FAFE2B4658
:101E100022460021384600F056FB002803D13946FF
:101E2000284600F064FBBDE8FE832DE9FE438046B2
:101E300000F019FB28B1002798F8000018B1002025
:101E4000F1E70127F8E7B34C4FF0000994F82D6053
:101E500084F8239000251FB93046FFF7EDFE0646B3
:101E6000F0F738FE33466A464146FFF79BFF94F889
:101E70002E0020280CD021690098401A0002C217B9
:101E800000EB1260001203D5684600F030FB01251C
:101E900094F823000028D9D1F0F71CFE6B469F4A26
:101EA000002100F010FB0028BDD027B9314668465C
:101EB000FFF7A7FE054325B16846FFF744FBC8F8C6
:101EC00008000120AFE72DE9FF5F8A46814600F058
:101ED000CAFA904C48B19AF80000002710B10128C6
:101EE00000D0FFDF4FF0010810E094F82E0001272A
:101EF000202800D1FFDF9AF800000028F2D0FFDF91
:101F0000F0E700BFB8F1000F00D162B694F82D5091
:101F1000002084F823003FB92846FFF78DFE0546D0
:101F200094F823000028EDD1F0F7D4FD06462B46A7
:101F300001AA5146FFF736FF3B462A4601A9304623
:101F4000CDF80090FFF790FE064604EB850090F870
:101F500028B000F082FA804694F823000028D1D1FE
:101F60006A490DF1040C01EB09109CE80E0000F128
:101F7000040080E80E00D6B13BEA07000CD094F8CC
:101F80002E00202808D12846FFF76CFC20B99AF8CB
:101F9000000028B10128B5D0284600F057FA05E026
:101FA00094F82D2049460420FFF744FA0126B8F1A1
:101FB000000F00D162B666B194F82D0004EB8000EA
:101FC00090F82600202804D05348801E4078F8F767
:101FD00017F9304604B081E42DE9F05F4D4C81469D
:101FE00094F82D004FF000080125474605B962B668
:101FF00004F8237FA07AFFF71FFE064614F8230992
:102000000028F3D14348803800EB861111F81900FD
:10201000032837D1334604EB830A4A469AF8250051
:10202000904201D1012000E0002083460AF1250002
:102030000021FFF75EFD014610EA0B0F03D00122DD
:102040008AF82820A777E9B1324649460120FFF7F0
:10205000F1F99AF828A000F000FA054694F8230058
:102060000028C3D1BAF1000F07D094F82E00202821
:1020700003D13046FFF7F6FB20B1304600F0E6F919
:102080004FF0010805B962B6404627E40020F0F79A
:102090005BBC0120F0F758BC1F48801E00787047D9
:1020A0002DE9F0411B4C94F82E0020281FD194F804
:1020B0002D6004EB860797F82550202D00D1FFDF17
:1020C0001449803901EB861000EB4500407807F891
:1020D000250F0120F87084F82300294684F82E503B
:1020E000324602202234FFF7A5F9002020707EE45A
:1020F0002DE9F041054E074C012588B101282BD070
:10210000022874D0032873D0FFDF70E44807002052
:10211000E00E0200C809002086000020FFFF3F00FB
:1021200000F0B9F9FFF7BCFF207E00B1FFDF84F8B3
:1021300021500020F0F72FFCA168481C04D0012397
:1021400000221846F0F77AFC14F82E0F217806EBDF
:1021500001110A68012154E0FFF7A2FF0120F0F706
:102160001AFC94F8210050B1A068401C07D014F864
:102170002E0F217806EB01110A68062141E0207E2E
:10218000DFF880830027012803D002281ED0FFDF5C
:102190002DE4A777F0F7EFFC98F80000032801D1B1
:1021A00065772577607DD84951F8200094F8201094
:1021B00051B948B161680123091A00221846F0F7A5
:1021C0003DFC0220207612E4277610E484F82050AB
:1021D00000F061F9A07F60B198F801006168012307
:1021E000091A00221846F0F729FC257602E00BE0D8
:1021F00011E0277614F82E0F217806EB01110A68FA
:102200000021BDE8F0411047BE48801E0078BDE8BF
:10221000F041F7F7F5BFFFF743FF14F82E0F2178D1
:1022200006EB01110A680521EBE710B5B74C94F8ED
:102230002E00202800D1FFDF14F82E0F2178B44A99
:1022400002EB01110A68BDE81040042110477CB57B
:10225000AE4C054694F82E00202800D1FFDFA06880
:10226000401C00D0FFDF94F82E00A94901AA01EB21
:102270000010694690F90C002844F0F7ABFC9DF97A
:1022800004000F2801DD012000E00020009908442F
:102290006168084420F07F41A16094F82100002883
